:020000040800F2
:100000000080002081370008E1350008E335000852
:10001000E5350008E7350008E93500080000000074
:10002000000000000000000000000000EB350008A8
:10003000ED35000800000000EF350008F13500083C
:10004000D1370008D1370008D1370008D137000870
:10005000D1370008D1370008F9350008D13700083A
:10006000D1370008D1370008D1370008D137000850
:10007000D1370008D1370008D1370008D137000840
:10008000D1370008D1370008D1370008D137000830
:10009000D1370008D1370008D1370008D137000820
:1000A00000000000D1370008D1370008D137000820
:1000B000D1370008D1370008D1370008D137000800
:1000C000D1370008D1370008D1370008D1370008F0
:1000D000D1370008D1370008D137000805360008AD
:1000E000D1370008D1370008D1370008D1370008D0
:1000F000D1370008000000000000000000000000F0
:1001000000000000000000000000000000000000EF
:1001100000000000000000000000000000000000DF
:1001200000000000000000000000000000000000CF
:0C01300000000000000000005FF808F173
:1001400010B5054C237833B9044B13B10448AFF311
:1001500000800123237010BDD401002000000000A6
:10016000507B000808B5034B1BB103490348AFF3AC
:10017000008008BD00000000D8010020507B00086E
:100180004FF0FF3C06E000BF4FF0010C02E000BF63
:100190004FF0010C4DF804CD4FEA410C7FEA6C5C46
:1001A0004FEA430C18BF7FEA6C5C1BD001B050EAE9
:1001B000410C0CBF52EA430C91EA030F02BF90EAD4
:1001C000020F0020704710F1000F91EA030F58BF93
:1001D000994208BF90422CBFD8176FEAE37040F0F5
:1001E000010070474FEA410C7FEA6C5C02D150EA93
:1001F000013C07D14FEA430C7FEA6C5CD6D152EA4E
:10020000033CD3D05DF8040B704700BF8446104612
:1002100062468C461946634600E000BF01B5FFF711
:10022000B7FF002848BF10F1000F01BD4DF808EDE1
:10023000FFF7F4FF0CBF012000205DF808FB00BFB2
:100240004DF808EDFFF7EAFF34BF012000205DF80C
:1002500008FB00BF4DF808EDFFF7E0FF94BF012059
:1002600000205DF808FB00BF4DF808EDFFF7CEFF5A
:1002700094BF012000205DF808FB00BF4DF808ED99
:10028000FFF7C4FF34BF012000205DF808FB00BF6A
:10029000034613F8012B002AFBD1181A01387047C6
:1002A00081F0004102E000BF83F0004330B54FEA27
:1002B00041044FEA430594EA050F08BF90EA020F94
:1002C0001FBF54EA000C55EA020C7FEA645C7FEA27
:1002D000655C00F0E2804FEA5454D4EB5555B8BF4A
:1002E0006D420CDD2C4480EA020281EA030382EABB
:1002F000000083EA010180EA020281EA0303362D4D
:1003000088BF30BD11F0004F4FEA01314FF4801C1F
:100310004CEA113102D0404261EB410113F0004F31
:100320004FEA03334CEA133302D0524263EB4303E8
:1003300094EA050F00F0A780A4F10104D5F1200E86
:100340000DDB02FA0EFC22FA05F2801841F10001E1
:1003500003FA0EF2801843FA05F359410EE0A5F1B5
:1003600020050EF1200E012A03FA0EFC28BF4CF0E6
:10037000020C43FA05F3C01851EBE37101F000459C
:1003800007D54FF0000EDCF1000C7EEB00006EEBA9
:100390000101B1F5801F1BD3B1F5001F0CD3490833
:1003A0005FEA30004FEA3C0C04F101044FEA44528A
:1003B00012F5800F80F09A80BCF1004F08BF5FEA11
:1003C000500C50F1000041EB045141EA050130BDF1
:1003D0005FEA4C0C404141EB010111F4801FA4F194
:1003E0000104E9D191F0000F04BF01460020B1FAE9
:1003F00081F308BF2033A3F10B03B3F120020CDA21
:100400000C3208DD02F1140CC2F10C0201FA0CF0FE
:1004100021FA02F10CE002F11402D8BFC2F1200C63
:1004200001FA02F120FA0CFCDCBF41EA0C01904019
:10043000E41AA2BF01EB0451294330BD6FEA040462
:100440001F3C1CDA0C340EDC04F11404C4F120024D
:1004500020FA04F001FA02F340EA030021FA04F35F
:1004600045EA030130BDC4F10C04C4F1200220FAB6
:1004700002F001FA04F340EA0300294630BD21FAF4
:1004800004F0294630BD94F0000F83F4801306BFBA
:1004900081F480110134013D4EE77FEA645C18BFAE
:1004A0007FEA655C29D094EA050F08BF90EA020F45
:1004B00005D054EA000C04BF1946104630BD91EA3D
:1004C000030F1EBF0021002030BD5FEA545C05D140
:1004D0004000494128BF41F0004130BD14F580047F
:1004E0003CBF01F5801130BD01F0004545F0FE41F3
:1004F00041F470014FF0000030BD7FEA645C1ABF28
:10050000194610467FEA655C1CBF0B46024650EA5E
:10051000013406BF52EA033591EA030F41F400218A
:1005200030BD00BF90F0000F04BF0021704730B510
:100530004FF4806404F132044FF000054FF00001E5
:1005400050E700BF90F0000F04BF0021704730B5A6
:100550004FF4806404F1320410F0004548BF40427B
:100560004FF000013EE700BF42004FEAE2014FEAD0
:1005700031014FEA02701FBF12F07F4393F07F4FAB
:1005800081F06051704732F07F4208BF704793F0AE
:100590007F4F04BF41F40021704730B54FF46074C1
:1005A00001F0004521F000411CE700BF50EA0102C4
:1005B00008BF704730B54FF000050AE050EA01026D
:1005C00008BF704730B511F0004502D5404261EBDD
:1005D00041014FF4806404F132045FEA915C3FF41E
:1005E000D8AE4FF003025FEADC0C18BF03325FEABB
:1005F000DC0C18BF033202EBDC02C2F1200300FA6C
:1006000003FC20FA02F001FA03FE40EA0E0021FA90
:1006100002F11444BDE600BF70B54FF0FF0C4CF47E
:10062000E06C1CEA11541DBF1CEA135594EA0C0F30
:1006300095EA0C0F00F0DEF82C4481EA030621EA6B
:100640004C5123EA4C5350EA013518BF52EA0335A6
:1006500041F4801143F4801338D0A0FB02CE4FF058
:100660000005E1FB02E506F00042E0FB03E54FF088
:100670000006E1FB03569CF0000F18BF4EF0010E80
:10068000A4F1FF04B6F5007F64F5407404D25FEA7C
:100690004E0E6D4146EB060642EAC62141EA55512F
:1006A0004FEAC52040EA5E504FEACE2EB4F1FD0C71
:1006B00088BFBCF5E06F1ED8BEF1004F08BF5FEAEF
:1006C000500E50F1000041EB045170BD06F00046A1
:1006D00046EA010140EA020081EA0301B4EB5C044E
:1006E000C2BFD4EB0C0541EA045170BD41F4801146
:1006F0004FF0000E013C00F3AB8014F1360FDEBF6B
:10070000002001F0004170BDC4F10004203C35DA46
:100710000C341BDC04F11404C4F1200500FA05F3C9
:1007200020FA04F001FA05F240EA020001F000426A
:1007300021F0004110EBD37021FA04F642EB0601E0
:100740005EEA430E08BF20EAD37070BDC4F10C040A
:10075000C4F1200500FA04F320FA05F001FA04F2CE
:1007600040EA020001F0004110EBD37041F10001BA
:100770005EEA430E08BF20EAD37070BDC4F12005C5
:1007800000FA05F24EEA020E20FA04F301FA05F22D
:1007900043EA020321FA04F001F0004121FA04F2D5
:1007A00020EA020000EBD3705EEA430E08BF20EAA5
:1007B000D37070BD94F0000F0FD101F000464000DF
:1007C00041EB010111F4801F08BF013CF7D041EA61
:1007D000060195F0000F18BF704703F00046520065
:1007E00043EB030313F4801F08BF013DF7D043EA36
:1007F0000603704794EA0C0F0CEA135518BF95EAEC
:100800000C0F0CD050EA410618BF52EA4306D1D172
:1008100081EA030101F000414FF0000070BD50EA91
:10082000410606BF1046194652EA430619D094EA1B
:100830000C0F02D150EA013613D195EA0C0F05D105
:1008400052EA03361CBF104619460AD181EA030159
:1008500001F0004141F0FE4141F470014FF0000011
:1008600070BD41F0FE4141F4780170BD70B54FF0AC
:10087000FF0C4CF4E06C1CEA11541DBF1CEA13552C
:1008800094EA0C0F95EA0C0F00F0A7F8A4EB05040E
:1008900081EA030E52EA03354FEA013100F0888005
:1008A0004FEA03334FF0805545EA131343EA1263CE
:1008B0004FEA022245EA111545EA10654FEA002683
:1008C0000EF000419D4208BF964244F1FD0404F53C
:1008D000407402D25B084FEA3202B61A65EB030598
:1008E0005B084FEA32024FF480104FF4002CB6EB55
:1008F000020E75EB030E22BFB61A754640EA0C00D5
:100900005B084FEA3202B6EB020E75EB030E22BF14
:10091000B61A754640EA5C005B084FEA3202B6EB55
:10092000020E75EB030E22BFB61A754640EA9C0014
:100930005B084FEA3202B6EB020E75EB030E22BFE4
:10094000B61A754640EADC0055EA060E18D04FEAA2
:10095000051545EA16754FEA06164FEAC30343EA42
:1009600052734FEAC2025FEA1C1CC0D111F4801F0F
:100970000BD141EA00014FF000004FF0004CB6E708
:1009800011F4801F04BF01430020B4F1FD0C88BFA7
:10099000BCF5E06F3FF6AFAEB5EB030C04BFB6EBB2
:1009A000020C5FEA500C50F1000041EB045170BDA5
:1009B0000EF0004E4EEA113114EB5C04C2BFD4EBD2
:1009C0000C0541EA045170BD41F480114FF0000E56
:1009D000013C90E645EA060E8DE60CEA135594EAD2
:1009E0000C0F08BF95EA0C0F3FF43BAF94EA0C0FD5
:1009F0000AD150EA01347FF434AF95EA0C0F7FF44A
:100A000025AF104619462CE795EA0C0F06D152EA9D
:100A100003353FF4FDAE1046194622E750EA410681
:100A200018BF52EA43067FF4C5AE50EA41047FF492
:100A30000DAF52EA43057FF4EBAE12E74FEA410CEB
:100A40007FEA6C5C02D150EA013C0AD14FEA430CC8
:100A50007FEA6C5C02D152EA033C02D14FF0000005
:100A600070474FF0010070474FEA410212F5001243
:100A700015D211D56FF47873B3EB625212D94FEAE5
:100A8000C12343F0004343EA505311F0004F23FACF
:100A900002F018BF404270474FF00000704750EA24
:100AA000013005D111F0004008BF6FF000407047E1
:100AB0004FF00000704700BF4A0011D212F500123B
:100AC00011D20DD56FF47873B3EB62520ED44FEAA6
:100AD000C12343F0004343EA505323FA02F0704726
:100AE0004FF00000704750EA013002D14FF0FF3064
:100AF00070474FF00000704710B50446074B186868
:100B0000074BA3FB0030800900F086F80022214645
:100B10004FF0FF3000F040F8002010BD0000002032
:100B2000D34D621008B5032000F024F80020FFF731
:100B3000E3FF02F0C9FC002008BD0000024A136870
:100B400001331360704700BF04020020014B186896
:100B5000704700BF0402002010B582B00190FFF77B
:100B6000F5FF0446FFF7F2FF001B019B9842F9D303
:100B700002B010BD074AD36823F4E0631B041B0CCA
:100B8000000200F4E060184340F0BF6040F4003021
:100B9000D060704700ED00E030B4174BDB68C3F362
:100BA0000223C3F10704042C28BF04241D1D062DB5
:100BB00018D9033B4FF0FF3505FA04F421EA04018C
:100BC000994005FA03F322EA0303194300280BDBDB
:100BD0000901C9B200F1604000F5614080F80013DE
:100BE00030BC70470023E5E700F00F000901C9B2EF
:100BF000024B1954F4E700BF00ED00E014ED00E0F3
:100C000000F01F02400901239340024A42F82030BD
:100C1000704700BF00E100E00138B0F1807F0AD2E8
:100C2000064B5860064AF02182F823100020986095
:100C300007221A6070470120704700BF10E000E0F3
:100C400000ED00E0F0B482B0002336E0042400E0C0
:100C50000024B4403C4302355B4E46F825405B4CD3
:100C60002568D44304EA05064F6817F4803F01D095
:100C700042EA0506554D2E606D6804EA05064F6888
:100C800017F4003F01D042EA0506504D6E60AD6892
:100C900004EA05064F6817F4801F01D042EA0506F2
:100CA0004A4DAE60ED682C404E6816F4001F01D02E
:100CB00042EA0504454AD46001330A6832FA03F473
:100CC0007FD001249C402240F6D04D68022D01D0F7
:100CD000122D10D1DE08083650F826C003F00705A3
:100CE000AF000F25BD402CEA050C0D69BD4045EA5B
:100CF0000C0540F8265006685F000325BD40ED4313
:100D000005EA060C4E6806F00306BE4046EA0C06ED
:100D100006604E6806F1FF3CBCF1010F03D9112EAD
:100D200001D0122E10D1866805EA060CCE68BE40AE
:100D300046EA0C068660466826EA04044E68C6F356
:100D400000169E4026434660C46825408C68BC401F
:100D50002C43C4604C6814F0805FADD01C4C256AF5
:100D600045F001052562246A04F001040194019C08
:100D70009D08AE1C144C54F8267003F00304A60022
:100D80000F24B44027EA0407124CA0423FF460AF9E
:100D900004F58064A0420ED004F58064A0420CD01B
:100DA00004F58064A0420AD004F58064A0423FF4B8
:100DB0004DAF05244DE701244BE7022449E7032406
:100DC00047E702B0F0BC704700000140000401405A
:100DD000003802400000024012B9090481617047E6
:100DE00081617047436959404161704708B5054BBF
:100DF0005B69034200D108BD024B586101F0C2F8A3
:100E0000F9E700BF0004014082B0214B9B6813F05A
:100E1000F00F2CD11E4B5B6A13F0805F08D01D4B86
:100E20001B6803F4C053B3F5C05F14D000211FE06A
:100E3000174A536A43F080535362536A03F0805356
:100E40000193019B134B1B6803F4C053516A21F0BB
:100E500080515162E7E7B0F5404F01D0002107E033
:100E60000D4A136843F004031360012100E00021E0
:100E7000094A136823F001030B431360136803F05E
:100E800001038B4202D0012002B070470020FBE733
:100E90000038024000700040003C024070B582B053
:100EA0000446036813F0010F37D0754B9B6803F0BD
:100EB0000C03082B1AD0724B9B6803F00C030C2B0D
:100EC0000FD06368012B66D0002B40F088806C4BFC
:100ED0001A6822F480321A601A6822F480221A609A
:100EE0005EE0674B9B6813F4803FEAD04FF4003319
:100EF00093FAA3F3624B19684FF4003393FAA3F308
:100F0000B3FA83F303F01F03012202FA03F30B4247
:100F100003D06368002B00F07883236813F0020F7E
:100F200000F0BF80564B9B6803F00C03042B00F0CD
:100F30009080534B9B6803F00C030C2B00F08380D4
:100F4000E368002B00F04B81012292FAA2F3B3FA7E
:100F500083F303F1845303F58E139B001A60FFF7AC
:100F6000F5FD0546022393FAA3F3454B19680223C6
:100F700093FAA3F3B3FA83F303F01F03012202FAF7
:100F800003F30B4240F01B81FFF7E0FD401B0228FA
:100F9000E8D9032040E33A4A136843F480331360EE
:100FA000636893B3FFF7D2FD05464FF4003393FA1D
:100FB000A3F3334B19684FF4003393FAA3F3B3FA56
:100FC00083F303F01F03012202FA03F30B42A4D1BF
:100FD000FFF7BCFD401B6428E7D903201CE3052B69
:100FE00009D0274B1A6822F480321A601A6822F45A
:100FF00080221A60D4E7224B1A6842F480221A60D9
:101000001A6842F480321A60CAE7FFF79FFD05466E
:101010004FF4003393FAA3F3194B19684FF40033DC
:1010200093FAA3F3B3FA83F303F01F03012202FA46
:1010300003F30B423FF471AFFFF788FD401B6428B8
:10104000E6D90320E8E20E4B9B6813F4803F7FF45F
:1010500077AF022393FAA3F3094B1968022393FA9B
:10106000A3F3B3FA83F303F01F03012202FA03F39D
:101070000B4207D0E368934204D00120CCE200BFCA
:1010800000380240C148436823F4F85321694FF403
:10109000F85292FAA2F2B2FA82F201FA02F2134381
:1010A0004360236813F0100F5CD0B84B9B6813F0BB
:1010B0000C0F40F0D8804FF4007393FAA3F3B34BB6
:1010C00019684FF4007393FAA3F3B3FA83F303F0B0
:1010D0001F03012202FA03F30B4203D0A369002B82
:1010E00000F09582206AA94B5B6803F46043984244
:1010F00040F29D80FFF788FE002840F08A82A349D5
:101100004B6823F46043226A13434B604B6823F01F
:101110007F43E0694FF07F4292FAA2F2B2FA82F284
:1011200000FA02F213434B60236A4FF4604292FAD2
:10113000A2F2B2FA82F2D3405A1C4FF40043934019
:10114000924A926802F0F002F02191FAA1F1B1FA0C
:1011500081F1CA408E498A5CD3408E4A13600020D8
:10116000FFF7CAFC236813F0080F00F017816369CA
:10117000002B00F0E680012191FAA1F2B2FA82F28E
:10118000854B13449B001960FFF7E0FC05460223E2
:1011900093FAA3F27D4A516B93FAA3F3B3FA83F364
:1011A00003F01F03012202FA03F30B4240F0F68022
:1011B000FFF7CCFC401B0228E9D903202CE273483E
:1011C000436823F4F85321694FF4F85292FAA2F2DB
:1011D000B2FA82F201FA02F21343436061E701239B
:1011E00093FAA3F3B3FA83F303F1845303F58E1355
:1011F0009B0000221A60FFF7A9FC0546022393FA20
:10120000A3F3624B1968022393FAA3F3B3FA83F3AF
:1012100003F01F03012202FA03F30B423FF441AF34
:10122000FFF794FC401B0228E8D90320F4E157495A
:101230004B6823F46043184348604B6823F07F43B6
:10124000E0694FF07F4292FAA2F2B2FA82F200FA1B
:1012500002F213434B60206AFFF7D6FD00283FF4EB
:1012600063AF0120D8E1A369002B3FD04FF4807316
:1012700093FAA3F3B3FA83F303F1845303F58E13C4
:101280009B0001221A60FFF761FC05464FF40073D2
:1012900093FAA3F33D4B19684FF4007393FAA3F349
:1012A000B3FA83F303F01F03012202FA03F30B42A4
:1012B00006D1FFF74BFC401B0228E7D90320ABE126
:1012C00032494B6823F46043226A13434B604B68F6
:1012D00023F07F43E0694FF07F4292FAA2F2B2FA24
:1012E00082F200FA02F213434B603BE74FF4807343
:1012F00093FAA3F3B3FA83F303F1845303F58E1344
:101300009B0000221A60FFF721FC05464FF4007392
:1013100093FAA3F31D4B19684FF4007393FAA3F3E8
:10132000B3FA83F303F01F03012202FA03F30B4223
:101330003FF418AFFFF70AFC401B0228E6D9032050
:101340006AE1012292FAA2F2B2FA82F2124B13443B
:101350009B0000221A60FFF7F9FB0546022393FA6F
:10136000A3F20A4A516B93FAA3F3B3FA83F303F09F
:101370001F03012202FA03F30B420FD0FFF7E6FB33
:10138000401B0228EAD9032046E100BF0038024092
:10139000A07B000800000020A0C19110236813F07A
:1013A000040F00F092809E4B5B6A13F0805F1ED1A9
:1013B0009B4B5A6A42F080525A625B6A03F0805338
:1013C0000193019B0125974B1B6813F4807F10D07C
:1013D000A368012B21D0002B43D1914B5A6B22F4EF
:1013E00080725A635A6B22F480625A631AE00025B5
:1013F000E9E78C4A136843F480731360FFF7A6FB98
:101400000646884B1B6813F4807FE1D1FFF79EFBF3
:10141000801B6428F5D90320FEE0814A536B43F416
:1014200080735363A36893B3FFF790FB06464FF4B2
:10143000007393FAA3F27A4A516B93FAA3F3B3FAC7
:1014400083F303F01F03012202FA03F30B423BD1A3
:10145000FFF77CFB801B41F288339842E7D90320D9
:10146000DAE0052B09D06E4B5A6B22F480725A6376
:101470005A6B22F480625A63D4E7694B5A6B42F488
:1014800080625A635A6B42F480725A63CAE7FFF76C
:101490005DFB06464FF4007393FAA3F2604A516B6A
:1014A00093FAA3F3B3FA83F303F01F03012202FAC2
:1014B00003F30B4208D0FFF749FB801B41F288334E
:1014C0009842E7D90320A7E0B5BB636A002B00F080
:1014D000A280534A926802F00C020C2A00F09E800F
:1014E000022B2FD04FF0807393FAA3F3B3FA83F358
:1014F00003F1845303F58E139B0000221A60FFF75B
:1015000025FB04464FF0007393FAA3F3444B19688C
:101510004FF0007393FAA3F3B3FA83F303F01F03BE
:10152000012202FA03F30B426DD0FFF70FFB001B01
:101530000228E7D903206FE0394A536A23F0805329
:101540005362C2E74FF0807393FAA3F3B3FA83F3C5
:1015500003F1845303F58E139B0000221A60FFF7FA
:10156000F5FA05464FF0007393FAA3F32C4B196874
:101570004FF0007393FAA3F3B3FA83F303F01F035E
:10158000012202FA03F30B4206D0FFF7DFFA401BF9
:101590000228E7D903203FE021498B6823F47D032B
:1015A000A26AE06A0243206B024313438B604FF050
:1015B000807393FAA3F3B3FA83F303F1845303F52F
:1015C0008E139B0001221A60FFF7C0FA04464FF009
:1015D000007393FAA3F3124B19684FF0007393FA58
:1015E000A3F3B3FA83F303F01F03012202FA03F318
:1015F0000B4206D1FFF7AAFA001B0228E7D9032005
:101600000AE0002008E0002006E0012004E00120BC
:1016100002E0012000E0002002B070BD0120FBE7E5
:101620000038024000700040224B986800F00C0225
:10163000082A3CD00C2A13D0042A0FD01D4B58681E
:1016400000F460404FF4604393FAA3F3B3FA83F3DA
:10165000D840431C4FF400409840704716487047EC
:1016600000F470114FF4701292FAA2F2B2FA82F200
:1016700021FA02F211498A5C00F440004FF4400361
:1016800093FAA3F3B3FA83F3D8400130094B9B6874
:1016900013F4803F05D00A4B03FB02F3B3FBF0F0D9
:1016A0007047054B03FB02F3B3FBF0F070470448AF
:1016B000704700BF003802400024F400947B00080B
:1016C00000366E018D4B1B6803F001038B4214D270
:1016D00001290CD0894A136823F001030B431360DE
:1016E000136803F001038B4207D001207047834A3F
:1016F000136843F004031360ECE770B5036813F05C
:10170000020F06D07E4A936823F0F00384682343D7
:1017100093600C460546036813F0010F00F0A380A8
:101720004368022B18D0032B48D0012B5BD04FF419
:10173000007292FAA2F2724A10684FF4007292FAA2
:10174000A2F2B2FA82F202F01F02012101FA02F2C1
:10175000024215D10120CDE04FF4003292FAA2F2FC
:10176000674A10684FF4003292FAA2F2B2FA82F29B
:1017700002F01F02012101FA02F2024200F0BB80D6
:101780005F498A6822F0030213438B60FFF7DEF99A
:1017900006466B68022B39D0032B46D0012B53D061
:1017A000574B9B6813F00C0F5DD0FFF7CFF9801BF0
:1017B00041F288339842F3D903209BE04FF0007246
:1017C00092FAA2F24E4A10684FF0007292FAA2F218
:1017D000B2FA82F202F01F02012101FA02F2024281
:1017E000CED1012086E0022292FAA2F2444A106889
:1017F000022292FAA2F2B2FA82F202F01F02012150
:1018000001FA02F20242BBD1012073E03C4B9B681B
:1018100003F00C03082B26D0FFF798F9801B41F248
:1018200088339842F2D9032064E0354B9B6803F07B
:101830000C030C2B17D0FFF789F9801B41F288337A
:101840009842F2D9032055E02D4B9B6803F00C031E
:10185000042B08D0FFF77AF9801B41F288339842B5
:10186000F2D9032046E0254B1B6803F00103A34295
:1018700014D9012C0CD0214A136823F0010323430F
:101880001360136803F00103A34207D0012031E085
:101890001A4A136843F004031360ECE72B6813F053
:1018A000040F06D0164A936823F4E063E9680B43FB
:1018B00093602B6813F0080F07D0114A936823F444
:1018C0006053296943EAC1039360FFF7ADFE0C4BF7
:1018D0009B6803F0F003F02292FAA2F2B2FA82F2CD
:1018E000D340084AD35CD840074B18600020FFF76C
:1018F00003F9002070BD0120FCE700BF003C02405E
:1019000000380240A07B000800000020014B18684E
:10191000704700BF0000002008B5FFF7F7FF074B36
:101920009B6803F4E0634FF4E06292FAA2F2B2FA29
:1019300082F2D340024AD35CD84008BD003802404E
:10194000B07B000808B5FFF7E1FF074B9B6803F485
:1019500060534FF4605292FAA2F2B2FA82F2D3408C
:10196000024AD35CD84008BD00380240B07B000872
:1019700090F83930DBB2122B01D0322B2AD1836898
:10198000B3F5805F16D0036A5A1C02621A780368A6
:101990005A60C38C013B9BB2C384EBB90268D36825
:1019A00023F08003D3600268D36843F04003D36020
:1019B00000207047036A1B880268C3F30803536062
:1019C00003691BB9036A02330362E2E7036A013366
:1019D0000362DEE702207047002070472DE9F843DC
:1019E00004460268136923F44053C1680B43136132
:1019F00083680269134342691343C2691A43016849
:101A0000CB6823F4164323F00C031343CB60026826
:101A1000536923F4407381690B435361C369B3F580
:101A2000004F5CD00268B34B9A4200F00C81FFF784
:101A300073FF00EB800000EB80006568AD00B0FB39
:101A4000F5F5AD4FA7FB05356D092E01FFF764FFD6
:101A500000EB800000EB80006568AD00B0FBF5F99D
:101A6000FFF75AFF00EB800000EB80006568AD00D7
:101A7000B0FBF5F5A7FB05356D094FF0640808FBD1
:101A800015952D013235A7FB05356D0905F0F005DB
:101A90003544FFF741FF00EB800000EB80006668F3
:101AA000B600B0FBF6F6FFF737FF00EB800000EB67
:101AB000800063689B00B0FBF3F0A7FB0030400997
:101AC00008FB10684FEA081808F13208A7FB08372E
:101AD000C7F3431723682F449F60BDE8F88302686B
:101AE000844B9A4257D0FFF717FF00EB800000EBC2
:101AF000800065686D00B0FBF5F57F4FA7FB0535ED
:101B00006D092E01FFF708FF00EB800000EB80005D
:101B100065686D00B0FBF5F9FFF7FEFE00EB800095
:101B200000EB800065686D00B0FBF5F5A7FB05359F
:101B30006D094FF0640808FB1595ED003235A7FBE1
:101B400005356D096D0005F4F8753544FFF7E4FEC1
:101B500000EB800000EB800066687600B0FBF6F6D4
:101B6000FFF7DAFE00EB800000EB800063685B00AB
:101B7000B0FBF3F3A7FB03235B0908FB13684FEAF1
:101B8000C80808F13208A7FB0837C7F342172368D3
:101B90002F449F60A1E7FFF7D5FE00EB800000EB2C
:101BA000800065686D00B0FBF5F5534FA7FB053568
:101BB0006D092E01FFF7C6FE00EB800000EB8000F0
:101BC00065686D00B0FBF5F9FFF7BCFE00EB800027
:101BD00000EB800065686D00B0FBF5F5A7FB0535EF
:101BE0006D094FF0640808FB1595ED003235A7FB31
:101BF00005356D096D0005F4F8753544FFF7A2FE53
:101C000000EB800000EB800066687600B0FBF6F623
:101C1000FFF798FE00EB800000EB800063685B003C
:101C2000B0FBF3F3A7FB03235B0908FB13684FEA40
:101C3000C80808F13208A7FB0837C7F34217236822
:101C40002F449F6049E7FFF77DFE00EB800000EB2B
:101C500080006568AD00B0FBF5F5274FA7FB0535A3
:101C60006D092E01FFF76EFE00EB800000EB800097
:101C70006568AD00B0FBF5F9FFF764FE00EB80008E
:101C800000EB80006568AD00B0FBF5F5A7FB0535FE
:101C90006D094FF0640808FB15952D013235A7FB3F
:101CA00005356D0905F0F0053544FFF74BFE00EBF7
:101CB000800000EB80006668B600B0FBF6F6FFF728
:101CC00041FE00EB800000EB800063689B00B0FBEE
:101CD000F3F3A7FB03235B0908FB13684FEA08181B
:101CE00008F13208A7FB0837C7F3431723682F44CE
:101CF0009F60F2E6003801401F85EB5148B310B5F4
:101D0000044690F83930FBB1022384F83930226858
:101D1000D36823F40053D3602046FFF75FFE2268A8
:101D2000136923F4904313612268536923F02A0353
:101D300053612268D36843F40053D3600020E0630A
:101D4000012384F8393010BD80F8383001F0DEFB13
:101D5000DAE70120704790F83930DBB2012B01D06F
:101D6000122B2FD100292FD0002A2FD090F83830F5
:101D7000012B2DD0012380F8383081628285C28505
:101D80000023C36390F83930DBB2122B16D0222324
:101D900080F83930002380F838300168CA6842F48E
:101DA0008072CA6001684A6942F001024A610168B2
:101DB000CA6842F02002CA6018467047322380F891
:101DC0003930E7E702207047012070470120704753
:101DD00002207047704708B50268D36823F04003BB
:101DE000D36090F83930DBB2322B06D0012380F873
:101DF0003930FFF7EFFF002008BD222380F839308B
:101E0000F7E708B590F83930DBB2222B01D0322B3E
:101E10004ED18368B3F5805F29D00369002B3AD196
:101E200003685A68836A591C81621A70C38D013B2A
:101E30009BB2C385002B3DD10268D36823F02003F9
:101E4000D36090F83930DBB2322B2DD00268D368E2
:101E500023F48073D3600268536923F00103536154
:101E6000012380F8393000F09FF8002008BD826A15
:101E7000036943B903685B68C3F308031380836A8B
:101E800002338362D2E703685B68DBB21380836A44
:101E900001338362CAE703685B68826A511C81620E
:101EA00003F07F031370C1E7122380F83930DAE7BB
:101EB0000220DBE70020D9E7704710B582B0044666
:101EC00003681968DA6811F0010F06D002F4807215
:101ED0001AB1C26B42F00102C26319685A6902F07A
:101EE000010211F0020F04D01AB1E16B41F00401BC
:101EF000E163196811F0040F04D01AB1E16B41F0ED
:101F00000201E163196811F0080F04D01AB1E26B05
:101F100042F00802E2631A68DB6803F0200312F063
:101F2000200F00D0ABB923681A68DB6803F0800388
:101F300012F0800F00D083B923681A68DB6803F0C1
:101F4000400312F0400F00D05BB9E36B6BB902B0F5
:101F500010BD2046FFF755FFE5E72046FFF708FDD7
:101F6000EAE72046FFF737FFEFE723681A68019298
:101F70005B680193019B012384F839302046FFF709
:101F80009BFFE4E7012800D0704708B54FF480516B
:101F90000348FEF727FF034B01221A7008BD00BF5C
:101FA00000000240D802002002680D4B9A4200D087
:101FB000704710B504460B4801F0D7FB18B10A482A
:101FC00002F07CFB10BD23685968C9B2054801F0D6
:101FD000B1FB012205492046FFF7BDFEF2E700BF35
:101FE00000480040CC020020B87B000848020020D6
:101FF000F0B589B0002403940494059406940794E2
:10200000274BDA6942F00402DA61DA6902F004026D
:102010000092009ADA6942F00102DA61DA6902F0AC
:1020200001020192019ADA6942F00202DA61DB6987
:1020300003F002030293029B1A4F224614213846F2
:10204000FEF7CAFE184E01224FF480513046FEF7CB
:10205000C3FE01250395154B0493059503A930464E
:10206000FEF7F0FD1423039304950594069403A949
:102070003846FEF7E7FD4FF480530393049505942B
:10208000069403A93046FEF7DDFD224621460620D0
:10209000FEF782FD0620FEF7B3FD09B0F0BD00BFDC
:1020A000003802400004024000000240000011100D
:1020B00008B50848084B03604FF4E1334360002340
:1020C0008360C36003610C2242618361C361FFF7D7
:1020D00015FE08BD8C0200200038014008B50848F4
:1020E000084B03604FF41653436000238360C360C2
:1020F00003610C2242618361C361FFF7FFFD08BDEC
:102100004C0200200048004010B592B0342200215B
:1021100005A801F025FD0024009401940294039485
:1021200004940F4A136823F4C05343F4006313600C
:102130001023059301230B930C944FF420430D932C
:102140000E9405A8FEF7AAFE0F23009301940294B3
:102150000394049421466846FFF7B4FA12B010BD08
:102160000070004070B5FEF7DDFCFFF7CDFFFFF714
:102170003FFFFFF79DFFFFF7B1FF3D4802F09EFADA
:102180003C4802F09BFA3C4802F098FA3B4802F0C7
:1021900095FA69463A4802F01DFA4FF4806001F062
:1021A000D7FC50B9374802F089FA374802F00AFAEA
:1021B00042F21070FEF7D0FCFAE7044601463348BD
:1021C00002F008FA4FF480622146314801F0ACFA7F
:1021D000802001F0BDFC0646002835D001462D4880
:1021E00002F0F8F901222C492C48FFF7B4FD2C48E5
:1021F00002F064FA012204212A48FEF7EDFD33467D
:1022000000241D46224801F0A9FA0028FAD1013421
:102210001F4801F099FA7E2C21DC6B1C28700A28DB
:10222000EFD12146204802F0D5F900236B703146EA
:102230001E4802F0CFF91E4B1B68986801F088FB1E
:10224000304600F0D9F8DAE71A4802F037FA0E48BB
:1022500002F0B8F942F21070FEF77EFCFAE7164879
:1022600002F02CFA42F21070FEF776FCFAE700BF9B
:10227000C87B0008E47B0008207C0008587C00082C
:10228000907C0008AC7C0008DC7C0008F47C000832
:10229000CC020020487D0008480200204C020020AB
:1022A000747D000800040240A87D0008B47D000889
:1022B00004000020187D0008907D000870B582B0F1
:1022C00005460C4606680A2201A9304603F0FAFAD0
:1022D000208054B1019B19782C2901D02A290DD1D5
:1022E00001332B60002002B070BD019BB342F1D1DD
:1022F000064802F0E3F96FF00100F4E70A460448EB
:1023000002F068F96FF00100EDE700BF387E0008C9
:10231000547E000870B582B005460C4606680A2255
:1023200001A9304603F0CEFA207054B1019B197810
:102330002C2901D02A290DD101332B60002002B0B5
:1023400070BD019BB342F1D1064802F0B7F96FF0BE
:102350000100F4E70A46044802F03CF96FF001007E
:10236000EDE700BF907E0008AC7E000808B503686A
:102370001A780A7059782C2901D02A2903D10233FE
:102380000360002008BD034802F024F96FF001004B
:10239000F8E700BFE87E000870B582B004460E463C
:1023A000056801A9284603F0FFF9C6E900010022EB
:1023B0000023FDF73BFF10B1019BAB420AD0019B0C
:1023C00019782C2901D02A290AD101332360002051
:1023D00002B070BD064802F071F96FF00100F7E736
:1023E0000A46044802F0F6F86FF00100F0E700BF7B
:1023F0000C7F00082C7F00082DE9F041E0B0074673
:1024000001ACAF4D0FCD0FC40FCD0FC495E8070041
:1024100084E807007E1C5F963B78242B40F0F6870B
:1024200000240A2C00F2ED870522314601AB53F857
:10243000240002F085FB054610B10134E4B2F0E758
:10244000B31D5F9373792C2B40F0E387092C00F2C6
:10245000D287DFE814F00A000A003D02F603AD045B
:10246000AD046D056D05AD06AD06964802F026F982
:10247000002C40F02181944802F020F9914802F0AC
:102480001DF9FE238DF8713100238DF836305F9AE7
:10249000531C5F9311788DF83410931C5F9353781D
:1024A0008DF835300A220CA90DA803F00BFAC0B242
:1024B0008DF8200120B90C9A0DAB9A4200F01081E2
:1024C0005F9A531C5F9311788DF83410931C5F93BF
:1024D00053788DF835300A220CA90DA803F0F2F9D3
:1024E000C0B28DF8210120B90C9A0DAB9A4200F0D0
:1024F000FE805F9A531C5F9311788DF83410931C03
:102500005F9353788DF835300A220CA90DA803F09B
:10251000D9F9C3B28DF8223123B90C990DAA914291
:1025200000F0EC809DF821219DF82011674802F011
:1025300051F85F9A531C5F9312782E2A40F0E58081
:102540001A1D5F92DB782C2B40F0E6800DF22311F0
:102550005FA8FFF70BFF0446002840F05D879DF859
:1025600023115B4802F036F85F9B1A782C2A40F062
:10257000DA8001335F935F9B1A782C2A40F0E68063
:1025800001335F935F9B1A782C2A40F0EC80013373
:102590005F935F9B1A782C2A40F0F88001335F9399
:1025A0005F9B1A782C2A40F0FE8001335F935F9B7B
:1025B0001A782C2A40F00A8101335F935F9A531CEA
:1025C0005F9311788DF83410931C5F9353788DF8D6
:1025D00035300A220CA90DA803F074F9C0B28DF8A9
:1025E000580120B90C9A0DAB9A4200F002815F9A13
:1025F000531C5F9311788DF83410931C5F935378BC
:102600008DF835300A220CA90DA803F05BF9C0B291
:102610008DF8590120B90C9A0DAB9A4200F0F08068
:102620005F9A531C5F9311788DF83410931C5F935D
:1026300053788DF835300A220CA90DA803F042F921
:10264000C3B28DF85A3123B90C990DAA914200F00A
:10265000DE809DF859219DF858111E4801F0BAFFFF
:102660005F9B5A1C5F9219782C2940F0D7805B78C9
:102670002C2B40F0DA8001325F925F9B1A782C2A73
:1026800040F0E68001335F935F9B1A782C2A00F0BC
:10269000B9865A1C5F9219788DF87011442900F0A0
:1026A000F4804E2900F0E780412900F0E9800A48D3
:1026B00001F090FF00F0A6BE084801F0FFFFDDE644
:1026C000687B00086C7F0008887F0008E87F0008AE
:1026D000248000081C810008F4810008A47F000801
:1026E0006C4801F0EBFF6FF0010400F08BBE69480D
:1026F00001F0E4FF6FF0010400F084BE654801F0D2
:10270000DDFF6FF0010400F07DBE624801F0D6FFEE
:102710006FF0010400F076BE5F4801F0CFFF6FF06C
:10272000010400F06FBE4AA95FA8FFF735FE30B97B
:102730004AABD3E90023594801F04CFF1BE7584846
:1027400001F0BCFF6FF0010400F05CBE4CA95FA873
:10275000FFF70CFE002840F062869DF830115148CA
:1027600001F038FF0EE74EA95FA8FFF715FE30B95C
:102770004EABD3E900234C4801F02CFF09E7484851
:1027800001F09CFF6FF0010400F03CBE50A95FA86F
:10279000FFF7ECFD002840F045869DF840114348C6
:1027A00001F018FFFCE652A95FA8FFF7F5FD30B96C
:1027B00052ABD3E900233E4801F00CFFF7E638485E
:1027C00001F07CFF6FF0010400F01CBE54A95FA86B
:1027D000FFF7E2FD30B954ABD3E90023354801F0EF
:1027E000F9FEEBE62E4801F069FF6FF0010400F0FE
:1027F00009BE284801F062FF6FF0010400F002BE3C
:10280000244801F05BFF6FF0010400F0FBBD2A4893
:1028100001F054FF6FF0010400F0F4BD274801F00F
:102820004DFF6FF0010400F0EDBD58A95FA8FFF760
:10283000B3FD30B954ABD3E90023214801F0CAFEFF
:102840001BE7174801F03AFF6FF0010400F0DABD12
:102850005AA95FA8FFF7A0FD30B954ABD3E9002314
:10286000174801F0B7FE0FE70D4801F027FF6FF0A2
:10287000010400F0C7BD134801F020FF00F0C2BD05
:10288000114801F01BFF00F0BDBD104801F016FF1C
:1028900000F0B8BDC07F0008048000087480000804
:1028A0004C800008848000089C800008B0800008EC
:1028B000C8800008E0800008F48000083481000827
:1028C0005C81000884810008A0810008C88100089C
:1028D000AD4C204601F0F2FEAC4801F0EFFE204680
:1028E00001F0ECFE00238DF836305F9A531C5F93A5
:1028F00011788DF83410931C5F9353788DF8353030
:102900000A220CA90DA802F0DDFFC0B28DF89000DC
:1029100020B90C9A0DAB9A4200F09B805F9A531C31
:102920005F9311788DF83410931C5F9353788DF872
:1029300035300A220CA90DA802F0C4FFC0B28DF8F0
:10294000910020B90C9A0DAB9A4200F089805F9AF1
:10295000531C5F9311788DF83410931C5F93537858
:102960008DF835300A220CA90DA802F0ABFFC3B2D6
:102970008DF892301BB90C990DAA914277D09DF831
:1029800091209DF89010824801F024FE5F9A531C1C
:102990005F9312782E2A71D11A1D5F92D9782C2953
:1029A00073D11B792C2B77D101325F925F9B1A7800
:1029B0002C2A40F0838001335F935F9B1A782C2A86
:1029C00040F0898001335F935F9B1A782C2A40F096
:1029D000948001335F935F9B1A782C2A40F09A8091
:1029E00001335F935F9B1A782C2A40F0AB80013350
:1029F0005F935F9B1A782C2A40F0E28001335F934B
:102A00005F9B1A782C2A40F0ED8001335F935F9B27
:102A10001A782C2A40F0F78001335F935F9B1A7875
:102A20002C2A40F0FD8001335F935F9B1B782C2B99
:102A300000F0048536A95FA8FFF798FC044600283B
:102A400040F0FE849DF8D810524801F0C3FD00F01C
:102A5000D9BC514801F032FE6FF0010400F0D2BC45
:102A60004D4801F02BFE6FF0010400F0CBBC4A484A
:102A700001F024FE6FF0010400F0C4BC464801F0F0
:102A80001DFE6FF0010400F0BDBC434801F016FECE
:102A90006FF0010400F0B6BC26A95FA8FFF77CFC2C
:102AA00028B9DDE926233D4801F094FD7EE73C4846
:102AB00001F004FE6FF0010400F0A4BC28A95FA897
:102AC000FFF754FC002840F0B0849DF8A010354872
:102AD00001F080FD71E72AA95FA8FFF75DFC28B926
:102AE000DDE92A23304801F075FD6DE72C4801F03F
:102AF000E5FD6FF0010400F085BC2CA95FA8FFF78D
:102B000035FC002840F094849DF8B010274801F06F
:102B100061FD60E75A1C5F9219783039C9B28DF8AF
:102B2000B110234801F056FD5F9B5A1C5F921B7841
:102B30002C2B3FF457AF1F4801F0C0FD6FF001048C
:102B400000F060BC5A1C5F9219788DF834109A1C02
:102B50005F925B788DF835300A220CA90DA802F03F
:102B6000B1FEC1B28DF8B21019B90C9A0DAB9A42F0
:102B700003D0114801F02EFD3BE7104801F09EFD07
:102B80006FF0010400F03EBC747F0008148200085E
:102B9000E87F000850830008C07F000874800008A8
:102BA0004C800008848000089C800008B0800008E9
:102BB0002882000834810008748200083C820008E2
:102BC0002EA95FA8FFF7E8FB28B9DDE92E23A0486E
:102BD00001F000FD14E79F4801F070FD6FF0010463
:102BE00000F010BC30A95FA8FFF7D6FB28B9DDE9DB
:102BF0003023994801F0EEFC09E7984801F05EFDAA
:102C00006FF00104FEE332A95FA8FFF7AFFB0028D5
:102C100040F011849DF8C810914801F0DBFCFDE6FE
:102C200034A95FA8FFF7B8FB28B9DDE934238D4844
:102C300001F0D0FCF9E68C4801F040FD6FF0010492
:102C4000E0E38A4C204601F039FD894801F036FD69
:102C5000204601F033FDFE238DF819315F9B1A7871
:102C60002C2A38D101335F935F9B1A782C2A43D1E9
:102C700001335F935F9B1A782C2A4AD101335F930B
:102C80005F9B1A782C2A55D101335F935F9B1A788A
:102C90002C2A5CD101335F935F9B1A782C2A68D170
:102CA00001335F935F9B1A782C2A6FD101335F93B6
:102CB0005F9B1B782C2B00F0CF8346A95FA8FFF702
:102CC00055FB0446002840F0C9839DF81811694857
:102CD00001F080FC96E338A95FA8FFF75DFB28B9F7
:102CE000DDE93823644801F075FCBDE75E4801F07A
:102CF000E5FC6FF0010485E33AA95FA8FFF736FB16
:102D0000002840F0A0839DF8E8105C4801F062FCC8
:102D1000B0E738A95FA8FFF73FFB28B9DDE9382302
:102D2000554801F057FCABE74F4801F0C7FC6FF086
:102D3000010467E33EA95FA8FFF718FB002840F0F5
:102D400085839DF8F8104E4801F044FC9EE740A9A9
:102D50005FA8FFF721FB30B940ABD3E90023494816
:102D600001F038FC98E7404801F0A8FC6FF001043E
:102D700048E342A95FA8FFF7F9FA002840F0698309
:102D80009DF80811404801F025FC8BE744A95FA895
:102D9000FFF702FB30B944ABD3E900233B4801F015
:102DA00019FC85E7304801F089FC6FF0010429E344
:102DB000374801F083FC042C25D0364801F07EFC16
:102DC000334801F07BFC5F9A531C5F9311788DF8B8
:102DD0006010931C5F9353782C2B18D12E4801F070
:102DE000F9FB5F9A531C5F93117830398DF86110AD
:102DF000931C5F9353782C2B12D0284801F05EFC73
:102E00006FF00104FEE2264801F058FCD8E72348A1
:102E100001F054FC6FF00104F4E201335F930135DB
:102E20000B2D41DC5F9B1A782C2AF6D018AB591970
:102E300002315FA8FFF76EFA002840F0128318AB4A
:102E40002B449A782946174801F0C4FBE7E700BFF6
:102E5000C48200089082000810830008E082000805
:102E600020830008388300084C800008B8840008DC
:102E700070830008848400088C830008AC830008F9
:102E8000D8830008088400083084000860840008A3
:102E9000B4840008F4840008148500080480000845
:102EA000D4840008288500085F9B1A782C2A17D143
:102EB00001335F935F9B1A782C2A22D101335F93F1
:102EC0005F9B1B782C2B09D020A95FA8FFF764FA21
:102ED00040BBDDE920239B4801F07CFB002491E20C
:102EE0001CA95FA8FFF758FA28B9DDE91C2396480A
:102EF00001F070FBDEE7954801F0E0FB6FF00104A4
:102F000080E21EA95FA8FFF747FA28B9DDE91E2372
:102F10008F4801F05FFBD3E78C4801F0CFFB6FF0E7
:102F200001046FE2894801F0C9FB6FF0010469E216
:102F3000884801F0C3FB062C5CD0874801F0BEFB3B
:102F4000844801F0BBFB0DF5BD715FA8FFF7E2F906
:102F5000002853D1814B1B788BB99DF87A117F4C97
:102F600021707F4801F036FB21781E2000F032FCF2
:102F70007C4B1860002847D07B4801F09FFB0DF286
:102F80007B115FA8FFF7C6F9002843D19DF87B119C
:102F9000764801F01FFB734BD3F800809DF87B311E
:102FA0004FF4617707FB03F708EB07066B4B1B78C1
:102FB00008F807309DF87B317370B11C5FA8FFF7EC
:102FC000A9F9044660BB18F80710694801F002FB34
:102FD0007178684801F0FEFAB178674801F0FAFAB2
:102FE000737818F80720934220D3B778013BA7EBFA
:102FF00083077BE0614801F061FBA1E7604801F0D5
:103000005DFB6FF00104FDE15E4801F057FB6FF0DE
:103010000304F7E15C4801F051FB6FF00104F1E1BA
:103020005A4801F04BFB6FF00104EBE104275DE02F
:1030300005EB45035900314404315FA8FFF76AF9F5
:1030400048B905EB4502530033441A7929465048E4
:1030500001F0C0FA54E04F4801F030FB6FF001047A
:10306000D0E105EB45035900314405315FA8FFF776
:1030700051F948B905EB4502530033445A792946C2
:10308000454801F0A7FA43E0444801F017FB6FF010
:103090000104B7E105EB45035900314406315FA84F
:1030A000FFF70CF948B905EB450253003344DA88C1
:1030B00029463B4801F08EFA32E03A4801F0FEFA28
:1030C0006FF001049EE105EB4503590031440831DE
:1030D0005FA8FFF71FF960BB05EB450253003344BF
:1030E0001A7A2946304801F075FA0135AF4226DDDB
:1030F0005F9B1A782A2A22D02C2A99D101335F9318
:103100005F9B1A782A2A1AD02C2AAAD101335F93FE
:103110005F9B1A782A2A12D02C2ABBD101335F93E5
:103120005F9B1A782A2A0AD02C2ACCD101335F93CC
:10313000DBE71E4801F0C2FA6FF0010462E10023F0
:1031400033775FE144850008388500084C8000082B
:10315000C4820008B88400087C850008D9020020D9
:10316000D4850008F00100203C860008A0860008F5
:10317000E8860008008700081887000860850008B6
:1031800098850008F485000870860008BC86000851
:103190005C87000838870008A88700087C8700083B
:1031A000F4870008CC8700083888000818880008D1
:1031B000AF4801F083FA082C54D0AE4801F07EFAF3
:1031C000AB4801F07BFA5F9B1A782C2A4ED1013371
:1031D0005F935F9B1A782C2A59D101335F935F9BD1
:1031E0001A782C2A60D101335F935F9B1A782C2ABE
:1031F0006BD101335F935F9B1A782C2A72D1013314
:103200005F935F9A531C5F9312782E2A40F0CE8012
:103210001A1D5F92D9782C2940F0CE801B792C2B77
:1032200040F0D08001325F925F9B1B782C2B00F026
:10323000D8800DF15D015FA8FFF798F8002840F0F5
:103240003F819DF85D30442B00F0D1804E2B00F083
:10325000C580412B00F0C7809DF87011864801F0B1
:10326000B9F9BEE0854801F029FAA9E710A95FA8DD
:10327000FFF792F828B9DDE91023814801F0AAF997
:10328000A7E7804801F01AFA6FF00104BAE012A92A
:103290005FA8FFF76BF8002840F0E6809DF8481023
:1032A000794801F097F99AE714A95FA8FFF774F835
:1032B00028B9DDE91423754801F08CF995E77148C8
:1032C00001F0FCF96FF001049CE016A95FA8FFF77C
:1032D0004DF8002840F0EE809DF858106C4801F041
:1032E00079F988E700228DF836205A1C5F92197808
:1032F0008DF834109A1C5F925B788DF835300A2275
:103300000CA90DA802F0DEFAC0B28DF8590018B968
:103310000C9A0DAB9A4237D05F9A531C5F93117889
:103320008DF83410931C5F9353788DF835300A2252
:103330000CA90DA802F0C6FAC0B28DF85A0018B94F
:103340000C9A0DAB9A4225D05F9A531C5F9311786B
:103350008DF83410931C5F9353788DF835300A2222
:103360000CA90DA802F0AEFAC3B28DF85B301BB900
:103370000C990DAA914213D09DF85A209DF859102E
:10338000444801F027F93CE7434801F097F96FF012
:10339000010437E0404801F091F96FF0010431E099
:1033A0003D4801F08BF96FF001042BE03B4801F040
:1033B00085F96FF0010425E0374801F07FF96FF0DF
:1033C00001041FE017A95FA8FEF7D0FF002874D101
:1033D0009DF85C10324801F0FDF825E7314801F016
:1033E0006DF900240EE0304801F068F9F9E72F4844
:1033F00001F064F9F5E72E4801F060F94FF0FF3471
:1034000000E00024204660B0BDE8F0814FF0FF34BA
:10341000F8E76FF00104F5E76FF00104F2E76FF0F1
:103420000104EFE76FF00104ECE76FF00104E9E756
:103430006FF00104E6E76FF00104E3E70024E1E741
:103440006FF00104DEE76FF00104DBE76FF00104C9
:10345000D8E76FF00104D5E70024D3E76FF001044B
:10346000D0E76FF00104CDE76FF00104CAE700BFB9
:1034700058880008B0880008F48100088488000893
:10348000748000084C800008DC8800089C800008DC
:10349000F8880008E87F0008C07F0008208900083D
:1034A0005089000884810008A0810008C8810008B4
:1034B000788900086FF00104A4E76FF00104A1E728
:1034C0006FF001049EE700BF84B00F4B5A6A42F0D0
:1034D00000425A625A6A02F000420192019A1A6A44
:1034E00042F001021A621A6A02F001020292029A82
:1034F0005A6A42F080525A625B6A03F08053039327
:10350000039B04B0704700BF0038024000B58BB089
:1035100000230593069307930893099303682B4AA6
:10352000934205D02A4A934225D00BB05DF804FBA4
:10353000284B1A6A42F480421A621A6A02F48042E4
:103540000192019ADA6942F00102DA61DB6903F063
:1035500001030293029B4FF4C06305930223069379
:1035600001230793032308930723099305A91A4806
:10357000FDF768FBD9E7174B5A6A42F480225A627A
:103580005A6A02F480220392039ADA6942F0020234
:10359000DA61DB6903F002030493049B4FF4406398
:1035A000059302230693012307930323089307231C
:1035B000099305A90948FDF745FB0022114627207C
:1035C000FDF7EAFA2720FDF71BFBAEE700380140C4
:1035D0000048004000380240000002400004024061
:1035E0007047FEE7FEE7FEE7FEE77047704770476B
:1035F00008B5FDF7A3FA08BD08B50120FDF7F6FBF5
:1036000008BD000008B50248FEF757FC08BD00BF22
:103610004C02002070B50D461646002404E000F070
:103620006FF8287001340135B442F8DB304670BDC4
:1036300070B51646002405E04D1C087800F054F8DB
:1036400001342946B442F7DB304670BD08B5034665
:103650000B4A126842B10A4A106803446A46934210
:1036600006D8074A136008BD054A06491160F2E70B
:1036700000F0B8F80C2303604FF0FF30F3E700BF11
:10368000F4010020E00200204FF0FF3070474FF4BB
:1036900000534B60002070470120704700207047A6
:1036A0000E4B1A6842F480721A6099680C4A0A40FC
:1036B0009A601A6822F0885222F001121A601A6881
:1036C00022F480221A609A6822F47D029A60002215
:1036D000DA60044B4FF000629A6070470038024095
:1036E0000CC0FF8800ED00E0044B1B6813F0400F96
:1036F000FAD0C0B2014B586000207047003801403A
:10370000044B1B6813F0200FFAD0024B5868C0B26C
:10371000704700BF003801400131038991FBF3F08D
:1037200003FB101080B27047002303804380416088
:103730000281704738B504460D464188FFF7ECFF1B
:10374000608063681D5438BD38B5044645680188FB
:10375000FFF7E2FF0346285C238038BD02884088DB
:10376000824214BF00200120704710B504464188F2
:10377000FFF7D2FF2388984214BF0020012010BD1C
:103780000D488546002103E00C4B5B584350043143
:103790000B480C4B42189A42F6D30B4A02E0002326
:1037A00042F8043B094B9A42F9D3FFF779FF00F046
:1037B000ABF9FEF7D7FC704700800020C0930008EB
:1037C00000000020D4010020D4010020E0020020ED
:1037D000FEE70000024B0A460146186800F0C8B92F
:1037E00004000020014B1868704700BF040000204F
:1037F0008A892DE9F041054610070C4658D44B68DC
:10380000002B05DC0B6C002B02DC0020BDE8F081F6
:10381000E66A002EF9D0002312F480522F68216A44
:103820002B6032D0606DA3895A0705D56368C01A32
:10383000636B0BB1236CC01A00230246E66A216A4F
:103840002846B047431CA38906D129681D2948D8BA
:10385000294ACA40D60744D5002262602269D904A9
:10386000226004D5421C01D12B6803B96065616BED
:103870002F600029C9D004F14403994202D02846A0
:1038800000F084F900206063C0E701232846B047B8
:10389000411CC8D12B68002BC5D01D2B01D0162B85
:1038A00001D12F60B1E7A38943F04003A381ADE7C5
:1038B0000F69002FA9D0930718BF00230E6808BF17
:1038C0004B69A6EB07080F608B60B8F1000F9CDD19
:1038D00043463A46216A2846A66AB047002806DCD5
:1038E000A38943F04003A3814FF0FF308EE70744E4
:1038F000A8EB0008E9E700BF0100402038B50B69DC
:1039000005460C46DBB118B183690BB900F072F8BB
:103910000C4B9C4209D16C68B4F90C307BB1214648
:103920002846BDE83840FFF763BF074B9C4201D1F2
:10393000AC68F1E7054B9C4208BFEC68ECE700205F
:1039400038BD00BF288A0008488A0008088A000895
:10395000014620B9044B0549186800F0B7B8044B7C
:103960001868FFF7CBBF00BF688A0008FD38000861
:1039700004000020002310B50446C0E90033836032
:1039800081814366C281C0E90433836119460822FC
:103990005C3000F0E5F8054B24626362044BA362DF
:1039A000044BE362044B236310BD00BFED460008E7
:1039B0000F470008474700086B470008014900F01F
:1039C00085B800BFFD38000870B568254A1E55430C
:1039D0000E4605F1740100F025F9044640B10021BE
:1039E000C0E900160C30A06005F1680200F0B8F8DC
:1039F000204670BD836910B5044633BBC0E912335D
:103A00000365124B124A1B688262984204BF01236D
:103A1000836100F01FF86060204600F01BF8A06092
:103A2000204600F017F80022E06004216068FFF7EC
:103A3000A1FF01220921A068FFF79CFF02221221A9
:103A4000E068FFF797FF0123A36110BD688A0008B3
:103A5000BD390008F8B51B4B07461E68B36913B99A
:103A60003046FFF7C7FF4836D6E90134013B03D59E
:103A7000336833B13668F7E7B4F90C506DB1683488
:103A8000F4E704213846FFF79FFF30600028F1D1AA
:103A90000C2304463B602046F8BD0B4B6566C4E929
:103AA0000055A560C4E90335C4E905550822294637
:103AB00004F15C0000F054F8C4E90D55C4E9125556
:103AC000E9E700BF688A00080100FFFF2DE9F8431D
:103AD00080468946002600F1480414B93046BDE806
:103AE000F883D4E90175013F01D52468F5E7AB8976
:103AF000012B07D9B5F90E30013303D029464046D2
:103B0000C84706436835EEE770B500250C4E0D4CEE
:103B1000A41BA410A54209D104F01AF800250A4EEE
:103B20000A4CA41BA410A54205D170BD56F825303F
:103B300098470135EEE756F8253098470135F2E70A
:103B4000B8930008B8930008B8930008BC93000825
:103B5000024B0146186800F065B800BF0400002061
:103B600003460244934200D1704703F8011BF9E772
:103B700038B502FB01F4214600F054F8054618B1AF
:103B800022460021FFF7ECFF284638BD38B5054630
:103B9000002943D051F8043C0C1F002BB8BFE41897
:103BA00003F027FA1E4A1368104633B963601460A5
:103BB0002846BDE8384003F01DBAA3420BD921685E
:103BC0006218934201BF1A685B68521822606360F2
:103BD0000460EDE713465A680AB1A242FAD919689F
:103BE0005818A0420BD1206801445818824219602D
:103BF000DED110685268014419605A60D8E702D9D2
:103C00000C232B60D4E7206821188A4201BF116879
:103C100052680918216062605C60C9E738BD00BF66
:103C2000FC01002070B5CD1C25F0030508350C2DD6
:103C300038BF0C25002D064601DBA94203D90C2311
:103C40003360002070BD03F0D4F9214A1468214686
:103C500091B9204C23681BB9304600F037FD206035
:103C60002946304600F032FD431C24D10C23304657
:103C7000336003F0BFF9E4E70B685B1B18D40B2B30
:103C80000FD90B60CC18CD50304603F0B3F904F1D6
:103C90000B00231D20F00700C31AD3D05A42E25074
:103CA000D0E74B688C4216BF636013600C46EBE7AD
:103CB0000C464968CCE7C41C24F00304A04205D09C
:103CC000211A304600F002FD0130CFD02560DBE73D
:103CD000FC01002000020020002B2DE9F0471E46C9
:103CE000BBBF03F100431E4600232D2388B0149F61
:103CF000DDE9121A27F02007462F1446109D0B709D
:103D000004D0452F00D10135022300E0032307AA88
:103D1000049206AACDE902A2CDE900352246334637
:103D200001F05AFF472F804602D1119BDB0726D5B1
:103D3000462F08EB050911D198F80030302B0AD135
:103D40000022002320463146FCF770FA18B9C5F16D
:103D50000105CAF80050DAF8003099440022002327
:103D600020463146FCF762FA38B93022079B4B45B2
:103D700005D2591C07911A70F8E7CDF81C904046FF
:103D8000079B159AA3EB0803136008B0BDE8F08702
:103D9000F7B50029B4BF2D232B230446B8BF4942F1
:103DA000092904F8022B437021DD0DF107031F469A
:103DB0000A2691FBF6F506FB1511092D01F13001DC
:103DC00003F8011C03F1FF32294609DC3031023BC4
:103DD00002F8011CBB42224604D3101A03B0F0BD06
:103DE0001346E6E713F8012B04F8012BF2E7302322
:103DF00019448370021DC170EFE700002DE9F04FF8
:103E000091B00C461A9F93461E46054603F042F8B1
:103E1000036818460993FCF73BFA00230E933B68AE
:103E20000A90073323F0070303F1080294F818807F
:103E3000D4F800A03A60D3E90023C4E91223D4E9FE
:103E4000127929F000430B934FF0FF32A64B38460E
:103E50000B99FCF7F3FD68BB4FF0FF32A24B3846DD
:103E60000B99FCF7F7F928BB002200233846494696
:103E7000FCF7E6F910B12D2384F843309B4F9C4B9F
:103E8000B8F1470F98BF1F4603234FF00009236185
:103E90002AF00403236000965B460FAA21462846B9
:103EA00000F0E2F9013040F090804FF0FF3011B0A7
:103EB000BDE8F08F3A464B4638464946FCF7BEFD12
:103EC00010B18C4F8C4BDBE763684AF48062591C5D
:103ED0000DA80EA940D1062363604FF0000C0DF130
:103EE0003303CDE9012363682260CDE90308009321
:103EF0003A464B46CDE9051C2846FFF7EDFE08F093
:103F0000DF03472B074609D10D9BD81C02DB6268F3
:103F1000934247DDA8F102085FFA88F8B8F1650F0F
:103F20000D9924D80139424604F150000D91FFF754
:103F30002FFF0E9A81461318012A236102DC2268A2
:103F4000D10701D5013323619DF83330002BA2D076
:103F50002D2384F843309EE7B8F1670F00F06E819F
:103F6000B8F1470FB9D1002BB7D10123B4E7B8F1AD
:103F7000660F19D1002963680CDD216113B922682D
:103F8000D20702D501330B4423610D9B4FF000098A
:103F9000A365D9E713B92268D00701D50233F3E747
:103FA0000123F1E74FF06708DDE90D32934205DBAD
:103FB00022682361D107E8D50133E5E7002BCCBFA8
:103FC0000123C3F102031344DEE723685A0507D433
:103FD00023693A4659462846B047013029D164E75B
:103FE000B8F1650F40F2D780D4E912010022002316
:103FF000FCF71CF988B30123404A59462846B047CC
:1040000001303FF452AFDDE90D239A4202DB236811
:10401000D8070ED5DDE9092359462846B0470130B7
:104020003FF443AF002704F11A080E9B013BBB424B
:1040300009DC23689F0700F1FD80E0680F9B984230
:10404000B8BF184633E70123424659462846B047D1
:1040500001303FF42AAF0137E7E70D9B002B2BDC43
:104060000123264A59462846B04701303FF41DAF88
:104070000D9B23B90E9B13B92368D907D9D5DDE968
:10408000092359462846B04701303FF40EAF4FF0A0
:10409000000804F11A090D9B5B42434501DC0E9BAD
:1040A00097E701234A4659462846B04701303FF476
:1040B000FCAE08F10108EEE70E9AA36D9A42A8BF84
:1040C0001A46002A904607DD134659463A462846C6
:1040D000B04701303FF4E9AE04F11A034FF0000A93
:1040E00028EAE8780B9315E0FFFFEF7F708A00085D
:1040F0006C8A0008788A0008748A00087C8A0008A4
:1041000001230B9A59462846B04701303FF4CDAE03
:104110000AF1010AD4F85890A9EB08035345EFDCE3
:10412000DDE90D239A424F4414DB2368DA0711D4EA
:104130000E9B0D99A3EB0902A3EB01099145A8BFC2
:104140009146B9F1000F0DDC002729EAE97904F165
:104150001A0818E0DDE9092359462846B04701301E
:10416000E6D1A2E64B463A4659462846B0470130CA
:10417000EAD19AE60123424659462846B047013023
:104180003FF493AE0137DDE90D239B1AA3EB09033E
:10419000BB42EFDC4DE70E9A012A01DCDB0738D584
:1041A00001233A4659462846B04701303FF47DAED8
:1041B000DDE9092359462846B047013007F10107D8
:1041C0003FF473AED4E912010E9B002203F1FF38D5
:1041D0000023FCF72BF8C0B943463A465946284617
:1041E000B04701300DD160E60123424659462846CA
:1041F000B04701303FF459AE01370E9B013BBB4243
:10420000F2DC4B4604F15002E4E6002704F11A0800
:10421000F3E70123E1E70123424659462846B04728
:1042200001303FF442AE0137E3680F9A9B1ABB425C
:10423000F1DC02E7002704F11908F5E7002B3FF451
:1042400094AE4FF0000CCDE9051C0DF13301226056
:10425000CDE90308CDE9012100933A464B462846B3
:10426000FFF73AFD07464FE62DE9F04791461F4616
:104270008A680B6906469342B8BF1346C9F80030F6
:1042800091F843200C46DDF8208012B10133C9F8C3
:1042900000302368990642BFD9F800300233C9F8CC
:1042A0000030256815F0060507D104F1190AE36806
:1042B000D9F800209B1AAB4229DC94F843302268DD
:1042C000003318BF012392062ED404F1430239466D
:1042D0003046C047013021D02368E56803F006036B
:1042E000042B18BF0025D9F800204FF0000908BFA3
:1042F000AD1AA368226908BF25EAE5759342C4BFD9
:104300009B1AED181A344D451AD1002008E00123FC
:10431000524639463046C047013003D14FF0FF3096
:10432000BDE8F0870135C2E73020E11881F843008D
:104330005A1C94F845102244023382F84310C4E713
:104340000123224639463046C0470130E6D009F104
:104350000109D8E72DE9F04301F1430C0C46097E31
:1043600085B06E291746064698460C9A00F0B38031
:1043700022D8632936D00AD8002900F0B9805829FC
:1043800000F0838004F1420584F8421032E0642991
:1043900001D06929F6D120681368050603F10401EC
:1043A0002AD51B681160002B03DA2D225B4284F8AA
:1043B00043206F480A2239E0732900F09D8008D815
:1043C0006F2920D07029DDD1236843F020032360BA
:1043D00003E0752917D07829D4D17823654884F86B
:1043E000453055E0136804F14205191D1B68116042
:1043F00084F8423001238CE01B6810F0400F1160FC
:1044000018BF1BB2CFE713682568181D1060280677
:1044100001D51B6802E06806FBD51B886F2914BF15
:104420000A2208225248002184F843106568002DB2
:10443000A560C0F29580216821F004012160002B65
:104440003DD1002D40F08E806546082A0BD12368AF
:10445000DB0708D5236962689A42DEBF302305F87E
:10446000013C05F1FF35ACEB05032361CDF800807D
:104470003B4603AA21463046FFF7F6FE01304DD1F8
:104480004FF0FF3005B0BDE8F083394884F845109F
:10449000136821681D1D1B6815600A060BD5CA0725
:1044A00044BF41F0200121601BB9226822F02002A4
:1044B00022601022B7E74D0648BF9BB2EFE7654682
:1044C000B3FBF2F102FB1133C35C05F8013D0B466F
:1044D0000029F5D1B9E713682568181D61691060D6
:1044E00028061B6801D5196002E06A06FBD5198011
:1044F000002365462361B9E71368191D11601D6823
:1045000062680021284602F05BFD08B1401B606034
:1045100063682361002384F84330A7E723692A46B0
:1045200039463046C0470130AAD023689B0713D4D0
:10453000E068039B9842B8BF1846A3E701234A46A8
:1045400039463046C04701309AD00135E368039AB6
:104550009B1AAB42F2DCEBE7002504F11909F5E701
:10456000002BACD1037804F1420584F842306CE7AB
:104570007E8A00088F8A000837B50D46044618B1B8
:1045800083690BB9FFF736FA4DB12B783BB1E1687F
:10459000284602F049F9E168094802F045F901AB03
:1045A00001222168204600F0E5F810B1E16802F030
:1045B0003BF9E1680A2002F0E7F803B030BD00BF24
:1045C000A08A0008024B01461868FFF7D5BF00BF5C
:1045D000040000200FB40A4B13B51C6824B1A36972
:1045E00013B92046FFF706FA05AB049AA1682046E6
:1045F000019303F021F902B0BDE8104004B0704708
:104600000400002070B50E46054618B183690BB949
:10461000FFF7F0F9AB69AC6813B92846FFF7EAF980
:10462000234B9C4217D16C68A3891B071DD52369B6
:10463000DBB1013EA36816F8011F013BA360E9B995
:10464000002B2EDA22460A21284601F053F90130C8
:1046500011D00A2011E0174B9C4201D1AC68E3E76E
:10466000154B9C4208BFEC68DEE72146284601F066
:10467000A5F90028DDD04FF0FF3070BD002B04DA23
:10468000A2699A4206DC0A2904D023685A1C2260D7
:104690001970CFE72246284601F02CF90130C9D124
:1046A000E9E70A2023685A1C22601870E5E700BF7A
:1046B000288A0008488A0008088A0008024B014638
:1046C0001868FFF79FBF00BF0400002038B5002323
:1046D000054C054608462360FEF7B8FF431C02D18F
:1046E000236803B12B6038BDDC02002010B50C46F6
:1046F000B1F90E1003F0EAF90028ABBF636DA3898E
:104700001B1823F48053ACBF6365A38110BD2DE952
:10471000F0411F468B890546DB050C46164605D53C
:1047200002230022B1F90E1002F0C2FBA389324627
:1047300023F48053A381B4F90E103B462846BDE80C
:10474000F04101F029B910B50C46B1F90E1002F094
:10475000AFFB431CA38915BF606523F4805343F46A
:104760008053A38118BFA38110BDB1F90E1001F0D1
:1047700093B9000010B50446084611468E2800F291
:104780002F81DFE810F038018F0091009300950031
:10479000970099009B009D00A100A300A700A9001D
:1047A000AB00AD002D01AF00B100B300B500B70004
:1047B000BD00BF00C500C700C900CB00CD00D100BF
:1047C000D500D700D900DB00DD00DF00E100E30009
:1047D0002D012D012D012D012D012D012D012D0169
:1047E000E700EB002D012D012D012D012D012D01E3
:1047F0002D012D012D012D012D012D012D01ED008A
:104800000701EF00F1002D012D012D01F3002D0115
:104810002D012D01F5002D012D01F9002D012D0196
:10482000FB002D012D012D012D012D012D012D014B
:104830002D012D012D01FD002D01FF0001010301BE
:104840002D012D0125012D012D012D012D012D0100
:104850002D012D012D011301050109010B010D0190
:104860000F012D01110115011901E900C1002B01F2
:10487000B900CF00BB009F00A5002901F7002D0162
:104880001701C3001D011B012D012D012D012D015B
:104890002D01D3002D012D012D01E50027011F0160
:1048A00021012301554810BD5548FCE75548FAE75A
:1048B0005548F8E75548F6E75548F4E75548F2E714
:1048C0005548F0E75548EEE75548ECE75548EAE724
:1048D0005548E8E75548E6E75548E4E75548E2E734
:1048E0005548E0E75548DEE75548DCE75548DAE744
:1048F0005548D8E75548D6E75548D4E75548D2E754
:104900005548D0E75548CEE75548CCE75548CAE763
:104910005548C8E75548C6E75548C4E75548C2E773
:104920005548C0E75548BEE75548BCE75548BAE783
:104930005548B8E75548B6E75548B4E75548B2E793
:104940005548B0E75548AEE75548ACE75548AAE7A3
:104950005548A8E75548A6E75548A4E75548A2E7B3
:104960005548A0E755489EE755489CE755489AE7C3
:10497000554898E7554896E7554894E7554892E7D3
:10498000554890E755488EE755488CE755488AE7E3
:10499000554888E7554886E7554884E7554882E7F3
:1049A000554880E755487EE755487CE755487AE703
:1049B000554878E7554876E7554874E7554872E713
:1049C000554870E755486EE755486CE755486AE723
:1049D000554868E7554866E7554864E7554862E733
:1049E000002B14BF1A46224600F082FF524B0028CB
:1049F00008BF184657E7514855E700BFAB8A000883
:104A0000B58A0008CF8A0008DF8A0008F78A000804
:104A1000018B00081B8B00082D8B00083F8B0008C2
:104A2000588B0008688B0008748B0008918B000875
:104A3000A38B0008B48B0008C68B0008D28B00083B
:104A4000EA8B0008F68B0008088C0008178C000819
:104A5000278C0008348C0008538C0008628C0008F6
:104A6000738C0008978C0008B58C0008D38C000864
:104A7000F38C00080A8D0008198D0008288D0008A5
:104A80003C8D0008548D0008628D00086F8D000871
:104A9000858D0008948D0008A08D0008CF8D00083A
:104AA000E08D0008FB8D00080E8E0008248E0008A3
:104AB0002D8E0008448E00084C8E0008598E000888
:104AC0006E8E0008828E00089A8E0008A98E00085B
:104AD000BA8E0008CD8E0008D98E0008F28E00082C
:104AE000068F0008218F0008398F0008538F0008B7
:104AF0005B8F00088B8F0008AA8F0008C98F000801
:104B0000E08F0008F38F00080C9000082390000845
:104B1000399000085A900008729000088E900008A2
:104B2000A1900008B7900008CB900008ED90000815
:104B30001391000824910008A9920008A38A000894
:104B400010B56AB10139841810F8013B11F8012F32
:104B5000934203D1A04201D0002BF5D1981A10BD89
:104B60001046FCE72DE9F0410F46904602F00EFD9D
:104B700004460D46B8F1000F11D0C7F30A53C3F134
:104B80006B03002B0BDD00241B0503F17F5505F59E
:104B9000401522462B46FBF73FFD04460D462046B6
:104BA0002946BDE8F08100002DE9F04F1F460023A3
:104BB000A1B0834638460E4617921C9302F067F95F
:104BC00080460068FBF764FB4FF0000904464FF095
:104BD000000A1B961B9B1A780D2A32D8092A36D256
:104BE000002A3ED000230D931B9D2B78302B40F0E4
:104BF000AC806B78582B01D0782B67D10D9B029736
:104C000001931CAB0093894A1DAB1BA9584601F0C8
:104C100063FE10F00704064605D0062C2BD10023B6
:104C200001351B950D93179B002B40F0A6850D9B1E
:104C3000E3B14A460AF100431046194621B0BDE8E7
:104C4000F08F2B2A15D02D2A04D0202ACAD1013367
:104C50001B93BFE701220D925A1C1B925B78002B1D
:104C6000C2D1179B1B96002B40F085854A465346C0
:104C7000E2E70022EFE71C9A3AB135211EA802F0C4
:104C800078FD1C99584602F0EAF9013C042C06D83C
:104C9000DFE804F00A0314170A00DDE91E9A310761
:104CA000C1D54AF0004ABEE71D9ADDE91E9302F223
:104CB000334223F4801343EA025AF0E7DFF870A18D
:104CC000EDE76FF0004A4FF0FF39E8E71B9B5A1CF5
:104CD0001B925B78302BF9D0002BA4D00123002548
:104CE0000A2207931B9B0695089304951B98077847
:104CF000A7F13003D9B2092929D92246D8F80010E2
:104D0000FFF71EFF002831D000203B460246049CDE
:104D10000590652B01D0452B14D124B910B9079B00
:104D2000002B9ED000241B9E731C1B9373782B2B8F
:104D300078D02D2B70D04FF0000CA3F13007092F45
:104D40007CD91B964FF0000E9AE00023C7E7049928
:104D500001300829D7BF069902FB053502FB013354
:104D60000693049B1B9001330493BFE71B9B1A1906
:104D70001B92049A1B5D002A37D00246049CA3F1C3
:104D80003001092913D901210591C2E71B9B01308C
:104D90005A1C1B925B78302BF8D0A3F13102082A01
:104DA00000F2F0841B9A0892024600200446B3F1F8
:104DB000300E00F1010112D00A440A27214600EB0F
:104DC000040C8C4513D12118082904F10104044472
:104DD00019DC0A21069B01FB03E3069300211B9BC0
:104DE000581C1B905B780846C9E70498D3E708294C
:104DF00001F1010103DC069B7B430693E1E71029E7
:104E0000D8BF7D43DDE7102CDCBF0A2101FB05E59F
:104E1000E4E70123059381E74FF0010CB31C1B93DA
:104E2000B3788AE74FF0000CF8E700BF3C91000828
:104E30000000F07F1B9B5F1C1B975B78302BF9D029
:104E4000A3F13107082F3FF67DAFA3F1300E1B9B76
:104E500009931B9B5F1C1B975B78A3F13008B8F18B
:104E6000090F37D909997F1A082F44F61F6737DCD5
:104E7000BE45A8BFBE46BCF1000F01D0CEF1000E6A
:104E8000002C51D100287FF4CEAE079A002A7FF47F
:104E9000CAAE059A002A7FF4E4AE4E2B27D021DC5F
:104EA000492B7FF4DEAEA4491BA801F049FF00287E
:104EB0003FF4D7AE1B9BA149013B1BA81B9301F0FC
:104EC0003FFF10B91B9B01331B93DFF884A24FF007
:104ED0000009A8E60A2101FB0E3EAEF1300EB8E74C
:104EE000BE46C8E7692BDED06E2B7FF4BAAE94497C
:104EF0001BA801F025FF00283FF4B3AE1B9B1B78D5
:104F0000282B0ED11EAA8F491BA801F02DFF0528C2
:104F100007D11F9BDDF8789043F0FF4A4AF4E00A7E
:104F200081E6DFF834A2D2E7AEEB02030793049BDD
:104F30000698002B08BF2346102C0493A046A8BF58
:104F40004FF01008FBF7EEFA092C81468A4613DC75
:104F5000079B002B3FF467AE079B7EDD162B65DCBD
:104F6000794A02EBC30E4A46DEE900015346FBF7DD
:104F700053FB81468A4656E6734B03EBC80353E95D
:104F80001223FBF749FB064628460F46FBF7CAFAF1
:104F900002460B4630463946FBF788F90F2C81460E
:104FA0008A46D5DD079BA4EB08089844B8F1000FAA
:104FB00040F39A8018F00F030AD063494A4601EB88
:104FC000C301D1E900015346FBF726FB81468A461F
:104FD00038F00F0877D0B8F59A7F4BDD4FF0000816
:104FE000CDF81080CDF82080CDF8188022234FF026
:104FF0000009DFF85CA1CBF80030089B002B3FF4E0
:1050000012AE1C99584602F02AF80699584602F04A
:1050100026F80499584602F022F80899584602F0FA
:105020001EF84146584602F01AF8FCE5079AC4F10A
:1050300025039342B6DB444DC4F10F0405EBC401D4
:105040004A46D1E900015346FBF7E6FA079B1C1BD1
:1050500005EBC405D5E9002389E713F1160FA1DBA1
:10506000394A4846A2EBC302D2E900235146FBF776
:10507000FDFB7EE70023484651461D46334E4FEA6E
:105080002818B8F1010F21DC0BB181468A462F4B5D
:10509000AAF1547A03EBC5054A46D5E90001534607
:1050A000FBF7BAFA2A4B0A460B402A4981468B4243
:1050B00094D8A1F580118B4286BF4FF0FF39DFF8FD
:1050C0009CA002F1547A002305937BE018F0010FB5
:1050D00006D006EBC503D3E90023FBF79DFA0123B5
:1050E00001354FEA6808CCE7EDD0C8F1000818F0A8
:1050F0000F020AD0144B484603EBC2035146D3E9D2
:105100000023FBF7B3FB81468A465FEA2818DAD012
:10511000B8F11F0F24DD4FF00008CDF81080CDF856
:105120002080CDF8188022234FF000094FF0000AAC
:10513000CBF8003061E700BF718A00089391000846
:10514000798A000850910008D0910008A8910008C1
:105150000000F07F0000A07C0000F8FFFFFFEF7F61
:1051600018F0100318BF6A234846059351460023E0
:10517000A14DB8F1000F00F313810BB181468A46AF
:10518000059BBBB1CAF30A53C3F16B03002B514615
:1051900010DD1F2B40F31081342BD8BF4FF0FF32AE
:1051A0004FF00009CFBF4FF05C7A203B02FA03F3C7
:1051B00003EA010A0022002348465146FBF736F86D
:1051C0000028A8D1069B049A0093089923465846C4
:1051D00001F097FF089000283FF400AF079A079B63
:1051E000002AC3F10003A8BF00234FF000080E936C
:1051F00022EAE2731693CDF81080089B584659684E
:1052000001F0F9FE069000283FF4F0AE089B0C3048
:105210001A6903F10C010232920001F0DFFE1EABAD
:1052200001931DAB00934A4653465846CDE90A9A6E
:1052300002F022FA1C9000283FF4D8AE0121584613
:1052400001F0EBFF0490034600283FF4CFAE1D9D14
:105250001E9A002DABBF0E9B169BEE185C1B059B88
:10526000A8BF169CA5EB03051544644B05F1FF355B
:10527000B8BF0E9E9D42C2F1360280F2AF805B1B2A
:105280001F2BA2EB03024FF0010700F39C800025C7
:1052900007FA03F30F93B718059BBE4214441C444E
:1052A0003346A8BF3B46A342A8BF2346002BC2BF3C
:1052B000FF1AE41AF61A0E9BBBB11A460499584617
:1052C00002F04AF8049000283FF490AE01461C9A80
:1052D000584601F0ABFF099000283FF487AE1C99B7
:1052E000584601F0BCFE099B1C93002F7ADC079BFB
:1052F000002B08DD169A0699584602F02DF8069004
:1053000000283FF473AE002C08DD2246069958466B
:1053100002F070F8069000283FF468AE002E08DD19
:1053200032460499584602F065F8049000283FF48C
:105330005DAE069A1C99584602F0CAF880460028CD
:105340003FF454AE0024C3680499C4600C9302F087
:10535000A5F8A04254DA0C9BF3B9B9F1000F1BD1A8
:10536000CAF31303C3B92AF000431B0D1B05B3F1A5
:10537000D66F11D9D8F814301BB9D8F81030012BDA
:105380000ADD41460122584602F034F8049980466D
:1053900002F084F8002868DC059B002B72D130E60F
:1053A00018F0010F04D0D5E90023FBF735F90123EC
:1053B0004FEA68080835DCE64FF0FF3202FA03F3E3
:1053C00003EA0909F6E6C5F17F4505F57F0505F510
:1053D0007B45E23507FA05F50F975CE701230025C9
:1053E0000F9358E73A461C99584602F003F81C9070
:1053F00000287FF47CAFF9E56891000802FCFFFF0C
:10540000CDF824A040F089800C9ACAF3130342B36C
:10541000AF4A934256D1059B4846EBB15346AD4A3D
:105420004FF0FF311A40B2F1D46F18D8120DC2F10B
:105430006B0301FA03F3984244D1A74B099A9A42AD
:1054400002D101303FF4D2ADA24B099A4FF00009CE
:105450001A4002F5801A9FE74FF0FF33EBE70B4647
:10546000E9E77BBBB9F1000F2CD105995346994A66
:10547000F1B102EA0A01B1F1D66F19DCB1F15C7F3A
:105480007FF751AE0023954A4846CDE91432514684
:10549000DDE91423FBF7C0F881468A4600297FF432
:1054A000B0AD00287FF4ADAD2223CBF80030A8E5E5
:1054B0001340A3F580136FEA135A4FF0FF396FEAD8
:1054C0000A5A69E79DB1099B1D423FF465AF0C9BE9
:1054D000059A4846514673B1FFF744FB02460B4616
:1054E000DDE90A01FAF7E2FE81468A4654E70F9B9E
:1054F00013EA090FE9E7FFF735FB02460B46DDE942
:105500000A01FAF7D1FE0022002381468A46FAF703
:105510008DFE00287FF407AE3EE70499404602F076
:10552000FAF800224FF0804306460F46FAF792FE43
:10553000002875D00C9B002B47D00026684F684D83
:10554000099B23F000431B0D1B050F930F9A654B1E
:105550009A4240F0CF80DDE90A23CDE91423099B6C
:105560004846A3F1547A514602F010F802460B4621
:1055700030463946FBF750F84A465346FAF796FE4E
:105580000B465449584A1940914281465ED90B9BBB
:1055900002F15472934203D10A9B01333FF426ADCA
:1055A0004FF0FF39DFF830A11C99584601F057FD44
:1055B0000699584601F053FD0499584601F04FFDF5
:1055C0004146584601F04BFD17E6B9F1000F19D1DD
:1055D000099BC3F31303E3B90022414B304639461C
:1055E000FAF72EFEC8B90022404B30463946FBF789
:1055F00013F804460D4605F1004318941993DDE9AC
:1056000018679DE7B9F1010F03D1099B002B3FF407
:105610008AAD0026364F002491E70C9C334DEAE713
:10562000324B002230463946FAF7F6FF0C9B04460F
:105630000D4633B901F1004310901193DDE9106775
:105640007EE702460B46CDE91023F7E703F1547AD3
:10565000059B002BA8D12AF000431B0D0F9A1B05B8
:105660009A425646A0D129462046FBF7FDF9FAF7A3
:1056700069FF0B46024629462046FAF715FE0C9BA9
:1056800004460D4633B9B9F1000F03D1CAF313062E
:10569000002E6AD00AA3D3E9002320462946FAF750
:1056A000CFFD00287FF4ADAC07A3D3E9002320464B
:1056B0002946FAF7E3FD00283FF476AFA1E400BFE6
:1056C0009535A094FFFFDF3F35E5AF350000E03FA3
:1056D000FFFF0F000000F07FFFFFEF7F0000503959
:1056E0000000F03F0000E07FFFFF9F7C0000E03FF4
:1056F0000000F0BF059B13B30F9BB3F1D46F1ED80E
:1057000025A3D3E9002320462946FAF7A3FD90B14B
:1057100029462046FBF7D0F9002808BF0120FAF7F8
:1057200001FF0C9B04460D46D3B901F100431290D2
:105730001393DDE912670F9A07F1D6639F1ADDE92B
:105740000A0101F023FF02460B4630463946FAF7BC
:1057500063FFDDE90A23FAF7A9FD81468A4677E768
:1057600002460B46CDE91223E3E70DA3D3E900235C
:10577000FAF766FD9FE700230D931B9B179A1360B2
:10578000FFF755BA652B4FF000023FF442AB012101
:1057900014460591FFF7BFBA0000C0FFFFFFDF41CD
:1057A0009535A094FFFFCF3F064B10B41C68064A06
:1057B000236A002B08BF13460A460146204610BC48
:1057C000FFF7F2B904000020680000202DE9F0473F
:1057D0008046894692461E460F463D46089815F873
:1057E000014B01F051FB2044437813F0080332D100
:1057F0002D2C32D101227C78BD1C002E5DD0102EC4
:1058000009D1302C07D12B7803F0DF03582B4FD16F
:1058100010266C780235002A14BF4FF000416FF05B
:1058200000410027B1FBF6FC384606FB1C1EA4F124
:105830003003092B17D81C46A64223DD7B1C07D05A
:1058400084451CD301D1A64519DB012700FB064086
:1058500015F8014BEBE72F46BFE72B2C04BFBD1C0F
:105860007C781A46C9E7A4F14103192B01D8373CCB
:10587000E2E7A4F16103192B04D8573CDCE74FF0B1
:10588000FF37E5E77B1C08D122230846C8F8003023
:10589000BAF1000F07D1BDE8F08702B14042BAF17A
:1058A000000FF8D00FB105F1FF39CAF80090F2E708
:1058B0003024002EAFD10826ADE7302CA3D00A2625
:1058C000A9E70000084B37B51C68084D236A002B78
:1058D00008BF2B46009313460A4601462046FFF7B1
:1058E00075FF03B030BD00BF040000206800002039
:1058F00000207047F8B50E461446054618B1836976
:105900000BB9FEF777F8214B9C422AD16C68A3694A
:10591000A360A3891A072ED5236963B3236920687E
:10592000F6B2C01A63693746834204DC2146284632
:10593000FDF7E4FF28BBA3680130013BA3602368A7
:105940005A1C22601E706369834204D0A389DB075E
:1059500019D50A2E17D121462846FDF7CFFF90B161
:105960000FE00B4B9C4201D1AC68D0E7094B9C4245
:1059700008BFEC68CBE72146284600F01FF8002856
:10598000CCD04FF0FF373846F8BD00BF288A00085A
:10599000488A0008088A000838B5054608461146B6
:1059A0000022054C22601A46FDF742FE431C02D13C
:1059B000236803B12B6038BDDC020020324B70B588
:1059C0001D6806460C4625B1AB6913B92846FEF79B
:1059D00011F82E4B9C420FD16C68B4F90C309AB27E
:1059E00015072CD4D00611D40922326043F04003AD
:1059F000A3814FF0FF303EE0254B9C4201D1AC68C3
:105A0000EBE7244B9C4208BFEC68E6E7510712D550
:105A1000616B41B104F14403994202D03046FEF774
:105A2000B5F800236363A38923F02403A381002333
:105A3000636023692360A38943F00803A38123697A
:105A40004BB9A38903F42073B3F5007F03D021463B
:105A5000304601F063FAA28912F001030CD0002352
:105A6000A36063695B42A361236953B9B4F90C3045
:105A700013F08000BAD170BD920758BF6369A3606C
:105A8000F2E70020F7E700BF04000020288A0008A2
:105A9000488A0008088A000838B50023054C0546E6
:105AA00008462360FDF7F0FD431C02D1236803B1D3
:105AB0002B6038BDDC0200202DE9F74F03690C692B
:105AC0008046A342C0F28480013C01F1140700F13A
:105AD000140657F8245056F824000135B0FBF5F5AC
