:020000040800F2
:1000000000800020B52400081523000817230008ED
:10001000192300081B2300081D230008000000000E
:100020000000000000000000000000001F23000886
:1000300021230008000000002323000825230008D6
:1000400005250008052500080525000805250008E8
:1000500005250008052500082D23000805250008B2
:1000600005250008052500080525000805250008C8
:1000700005250008052500080525000805250008B8
:1000800005250008052500080525000805250008A8
:100090000525000805250008052500080525000898
:1000A00000000000052500080525000805250008BA
:1000B0000525000805250008052500080525000878
:1000C0000525000805250008052500080525000868
:1000D0000525000805250008052500083923000826
:1000E0000525000805250008052500080525000848
:1000F00005250008000000000000000000000000CE
:1001000000000000000000000000000000000000EF
:1001100000000000000000000000000000000000DF
:1001200000000000000000000000000000000000CF
:0C01300000000000000000005FF808F173
:1001400010B5054C237833B9044B13B10448AFF311
:1001500000800123237010BDD401002000000000A6
:100160002C52000808B5034B1BB103490348AFF3F9
:10017000008008BD00000000D80100202C520008BB
:10018000034613F8012B002AFBD1181A01387047D7
:1001900081F0004102E000BF83F0004330B54FEA38
:1001A00041044FEA430594EA050F08BF90EA020FA5
:1001B0001FBF54EA000C55EA020C7FEA645C7FEA38
:1001C000655C00F0E2804FEA5454D4EB5555B8BF5B
:1001D0006D420CDD2C4480EA020281EA030382EACC
:1001E000000083EA010180EA020281EA0303362D5E
:1001F00088BF30BD11F0004F4FEA01314FF4801C31
:100200004CEA113102D0404261EB410113F0004F42
:100210004FEA03334CEA133302D0524263EB4303F9
:1002200094EA050F00F0A780A4F10104D5F1200E97
:100230000DDB02FA0EFC22FA05F2801841F10001F2
:1002400003FA0EF2801843FA05F359410EE0A5F1C6
:1002500020050EF1200E012A03FA0EFC28BF4CF0F7
:10026000020C43FA05F3C01851EBE37101F00045AD
:1002700007D54FF0000EDCF1000C7EEB00006EEBBA
:100280000101B1F5801F1BD3B1F5001F0CD3490844
:100290005FEA30004FEA3C0C04F101044FEA44529B
:1002A00012F5800F80F09A80BCF1004F08BF5FEA22
:1002B000500C50F1000041EB045141EA050130BD02
:1002C0005FEA4C0C404141EB010111F4801FA4F1A5
:1002D0000104E9D191F0000F04BF01460020B1FAFA
:1002E00081F308BF2033A3F10B03B3F120020CDA32
:1002F0000C3208DD02F1140CC2F10C0201FA0CF010
:1003000021FA02F10CE002F11402D8BFC2F1200C74
:1003100001FA02F120FA0CFCDCBF41EA0C0190402A
:10032000E41AA2BF01EB0451294330BD6FEA040473
:100330001F3C1CDA0C340EDC04F11404C4F120025E
:1003400020FA04F001FA02F340EA030021FA04F370
:1003500045EA030130BDC4F10C04C4F1200220FAC7
:1003600002F001FA04F340EA0300294630BD21FA05
:1003700004F0294630BD94F0000F83F4801306BFCB
:1003800081F480110134013D4EE77FEA645C18BFBF
:100390007FEA655C29D094EA050F08BF90EA020F56
:1003A00005D054EA000C04BF1946104630BD91EA4E
:1003B000030F1EBF0021002030BD5FEA545C05D151
:1003C0004000494128BF41F0004130BD14F5800490
:1003D0003CBF01F5801130BD01F0004545F0FE4104
:1003E00041F470014FF0000030BD7FEA645C1ABF39
:1003F000194610467FEA655C1CBF0B46024650EA70
:10040000013406BF52EA033591EA030F41F400219B
:1004100030BD00BF90F0000F04BF0021704730B521
:100420004FF4806404F132044FF000054FF00001F6
:1004300050E700BF90F0000F04BF0021704730B5B7
:100440004FF4806404F1320410F0004548BF40428C
:100450004FF000013EE700BF42004FEAE2014FEAE1
:1004600031014FEA02701FBF12F07F4393F07F4FBC
:1004700081F06051704732F07F4208BF704793F0BF
:100480007F4F04BF41F40021704730B54FF46074D2
:1004900001F0004521F000411CE700BF50EA0102D5
:1004A00008BF704730B54FF000050AE050EA01027E
:1004B00008BF704730B511F0004502D5404261EBEE
:1004C00041014FF4806404F132045FEA915C3FF42F
:1004D000D8AE4FF003025FEADC0C18BF03325FEACC
:1004E000DC0C18BF033202EBDC02C2F1200300FA7D
:1004F00003FC20FA02F001FA03FE40EA0E0021FAA2
:1005000002F11444BDE600BF70B54FF0FF0C4CF48F
:10051000E06C1CEA11541DBF1CEA135594EA0C0F41
:1005200095EA0C0F00F0DEF82C4481EA030621EA7C
:100530004C5123EA4C5350EA013518BF52EA0335B7
:1005400041F4801143F4801338D0A0FB02CE4FF069
:100550000005E1FB02E506F00042E0FB03E54FF099
:100560000006E1FB03569CF0000F18BF4EF0010E91
:10057000A4F1FF04B6F5007F64F5407404D25FEA8D
:100580004E0E6D4146EB060642EAC62141EA555140
:100590004FEAC52040EA5E504FEACE2EB4F1FD0C82
:1005A00088BFBCF5E06F1ED8BEF1004F08BF5FEA00
:1005B000500E50F1000041EB045170BD06F00046B2
:1005C00046EA010140EA020081EA0301B4EB5C045F
:1005D000C2BFD4EB0C0541EA045170BD41F4801157
:1005E0004FF0000E013C00F3AB8014F1360FDEBF7C
:1005F000002001F0004170BDC4F10004203C35DA58
:100600000C341BDC04F11404C4F1200500FA05F3DA
:1006100020FA04F001FA05F240EA020001F000427B
:1006200021F0004110EBD37021FA04F642EB0601F1
:100630005EEA430E08BF20EAD37070BDC4F10C041B
:10064000C4F1200500FA04F320FA05F001FA04F2DF
:1006500040EA020001F0004110EBD37041F10001CB
:100660005EEA430E08BF20EAD37070BDC4F12005D6
:1006700000FA05F24EEA020E20FA04F301FA05F23E
:1006800043EA020321FA04F001F0004121FA04F2E6
:1006900020EA020000EBD3705EEA430E08BF20EAB6
:1006A000D37070BD94F0000F0FD101F000464000F0
:1006B00041EB010111F4801F08BF013CF7D041EA72
:1006C000060195F0000F18BF704703F00046520076
:1006D00043EB030313F4801F08BF013DF7D043EA47
:1006E0000603704794EA0C0F0CEA135518BF95EAFD
:1006F0000C0F0CD050EA410618BF52EA4306D1D184
:1007000081EA030101F000414FF0000070BD50EAA2
:10071000410606BF1046194652EA430619D094EA2C
:100720000C0F02D150EA013613D195EA0C0F05D116
:1007300052EA03361CBF104619460AD181EA03016A
:1007400001F0004141F0FE4141F470014FF0000022
:1007500070BD41F0FE4141F4780170BD70B54FF0BD
:10076000FF0C4CF4E06C1CEA11541DBF1CEA13553D
:1007700094EA0C0F95EA0C0F00F0A7F8A4EB05041F
:1007800081EA030E52EA03354FEA013100F0888016
:100790004FEA03334FF0805545EA131343EA1263DF
:1007A0004FEA022245EA111545EA10654FEA002694
:1007B0000EF000419D4208BF964244F1FD0404F54D
:1007C000407402D25B084FEA3202B61A65EB0305A9
:1007D0005B084FEA32024FF480104FF4002CB6EB66
:1007E000020E75EB030E22BFB61A754640EA0C00E6
:1007F0005B084FEA3202B6EB020E75EB030E22BF26
:10080000B61A754640EA5C005B084FEA3202B6EB66
:10081000020E75EB030E22BFB61A754640EA9C0025
:100820005B084FEA3202B6EB020E75EB030E22BFF5
:10083000B61A754640EADC0055EA060E18D04FEAB3
:10084000051545EA16754FEA06164FEAC30343EA53
:1008500052734FEAC2025FEA1C1CC0D111F4801F20
:100860000BD141EA00014FF000004FF0004CB6E719
:1008700011F4801F04BF01430020B4F1FD0C88BFB8
:10088000BCF5E06F3FF6AFAEB5EB030C04BFB6EBC3
:10089000020C5FEA500C50F1000041EB045170BDB6
:1008A0000EF0004E4EEA113114EB5C04C2BFD4EBE3
:1008B0000C0541EA045170BD41F480114FF0000E67
:1008C000013C90E645EA060E8DE60CEA135594EAE3
:1008D0000C0F08BF95EA0C0F3FF43BAF94EA0C0FE6
:1008E0000AD150EA01347FF434AF95EA0C0F7FF45B
:1008F00025AF104619462CE795EA0C0F06D152EAAF
:1009000003353FF4FDAE1046194622E750EA410692
:1009100018BF52EA43067FF4C5AE50EA41047FF4A3
:100920000DAF52EA43057FF4EBAE12E74FF0FF3C08
:1009300006E000BF4FF0010C02E000BF4FF0010CD9
:100940004DF804CD4FEA410C7FEA6C5C4FEA430C52
:1009500018BF7FEA6C5C1BD001B050EA410C0CBFA1
:1009600052EA430C91EA030F02BF90EA020F002003
:10097000704710F1000F91EA030F58BF994208BF6A
:1009800090422CBFD8176FEAE37040F00100704727
:100990004FEA410C7FEA6C5C02D150EA013C07D17E
:1009A0004FEA430C7FEA6C5CD6D152EA033CD3D0C9
:1009B0005DF8040B704700BF8446104662468C46C3
:1009C0001946634600E000BF01B5FFF7B7FF0028F6
:1009D00048BF10F1000F01BD4DF808EDFFF7F4FF1F
:1009E0000CBF012000205DF808FB00BF4DF808EDAA
:1009F000FFF7EAFF34BF012000205DF808FB00BFCD
:100A00004DF808EDFFF7E0FF94BF012000205DF8EE
:100A100008FB00BF4DF808EDFFF7CEFF94BF0120A3
:100A200000205DF808FB00BF4DF808EDFFF7C4FF9C
:100A300034BF012000205DF808FB00BF4FEA410CE5
:100A40007FEA6C5C02D150EA013C0AD14FEA430CC8
:100A50007FEA6C5C02D152EA033C02D14FF0000005
:100A600070474FF0010070474FEA410212F5001243
:100A700015D211D56FF47873B3EB625212D94FEAE5
:100A8000C12343F0004343EA505311F0004F23FACF
:100A900002F018BF404270474FF00000704750EA24
:100AA000013005D111F0004008BF6FF000407047E1
:100AB0004FF00000704700BF10B50446074B1868A0
:100AC000074BA3FB0030800900F086F80022214686
:100AD0004FF0FF3000F040F8002010BD0000002073
:100AE000D34D621008B5032000F024F80020FFF772
:100AF000E3FF01F083FB002008BD0000024A1368F9
:100B000001331360704700BF00020020014B1868DA
:100B1000704700BF0002002010B582B00190FFF7BF
:100B2000F5FF0446FFF7F2FF001B019B9842F9D343
:100B300002B010BD074AD36823F4E0631B041B0C0A
:100B4000000200F4E060184340F0BF6040F4003061
:100B5000D060704700ED00E030B4174BDB68C3F3A2
:100B60000223C3F10704042C28BF04241D1D062DF5
:100B700018D9033B4FF0FF3505FA04F421EA0401CC
:100B8000994005FA03F322EA0303194300280BDB1B
:100B90000901C9B200F1604000F5614080F800131E
:100BA00030BC70470023E5E700F00F000901C9B22F
:100BB000024B1954F4E700BF00ED00E014ED00E033
:100BC00000F01F02400901239340024A42F82030FE
:100BD000704700BF00E100E00138B0F1807F0AD229
:100BE000064B5860064AF02182F8231000209860D6
:100BF00007221A6070470120704700BF10E000E034
:100C000000ED00E0F0B482B0002336E0042400E000
:100C10000024B4403C4302355B4E46F825405B4C13
:100C20002568D44304EA05064F6817F4803F01D0D5
:100C300042EA0506554D2E606D6804EA05064F68C8
:100C400017F4003F01D042EA0506504D6E60AD68D2
:100C500004EA05064F6817F4801F01D042EA050632
:100C60004A4DAE60ED682C404E6816F4001F01D06E
:100C700042EA0504454AD46001330A6832FA03F4B3
:100C80007FD001249C402240F6D04D68022D01D037
:100C9000122D10D1DE08083650F826C003F00705E3
:100CA000AF000F25BD402CEA050C0D69BD4045EA9B
:100CB0000C0540F8265006685F000325BD40ED4353
:100CC00005EA060C4E6806F00306BE4046EA0C062E
:100CD00006604E6806F1FF3CBCF1010F03D9112EEE
:100CE00001D0122E10D1866805EA060CCE68BE40EF
:100CF00046EA0C068660466826EA04044E68C6F397
:100D000000169E4026434660C46825408C68BC405F
:100D10002C43C4604C6814F0805FADD01C4C256A35
:100D200045F001052562246A04F001040194019C48
:100D30009D08AE1C144C54F8267003F00304A60062
:100D40000F24B44027EA0407124CA0423FF460AFDE
:100D500004F58064A0420ED004F58064A0420CD05B
:100D600004F58064A0420AD004F58064A0423FF4F8
:100D70004DAF05244DE701244BE7022449E7032446
:100D800047E702B0F0BC704700000140000401409A
:100D9000003802400000024012B909048161704726
:100DA00081617047436959404161704708B5054BFF
:100DB0005B69034200D108BD024B586101F0C2F8E3
:100DC000F9E700BF0004014082B0214B9B6813F09B
:100DD000F00F2CD11E4B5B6A13F0805F08D01D4BC7
:100DE0001B6803F4C053B3F5C05F14D000211FE0AB
:100DF000174A536A43F080535362536A03F0805397
:100E00000193019B134B1B6803F4C053516A21F0FB
:100E100080515162E7E7B0F5404F01D0002107E073
:100E20000D4A136843F004031360012100E0002120
:100E3000094A136823F001030B431360136803F09E
:100E400001038B4202D0012002B070470020FBE773
:100E50000038024000700040003C024070B582B093
:100E60000446036813F0010F37D0754B9B6803F0FD
:100E70000C03082B1AD0724B9B6803F00C030C2B4D
:100E80000FD06368012B66D0002B40F088806C4B3C
:100E90001A6822F480321A601A6822F480221A60DA
:100EA0005EE0674B9B6813F4803FEAD04FF4003359
:100EB00093FAA3F3624B19684FF4003393FAA3F348
:100EC000B3FA83F303F01F03012202FA03F30B4288
:100ED00003D06368002B00F07883236813F0020FBF
:100EE00000F0BF80564B9B6803F00C03042B00F00E
:100EF0009080534B9B6803F00C030C2B00F0838015
:100F0000E368002B00F04B81012292FAA2F3B3FABE
:100F100083F303F1845303F58E139B001A60FFF7EC
:100F2000F5FD0546022393FAA3F3454B1968022306
:100F300093FAA3F3B3FA83F303F01F03012202FA37
:100F400003F30B4240F01B81FFF7E0FD401B02283A
:100F5000E8D9032040E33A4A136843F4803313602E
:100F6000636893B3FFF7D2FD05464FF4003393FA5D
:100F7000A3F3334B19684FF4003393FAA3F3B3FA96
:100F800083F303F01F03012202FA03F30B42A4D1FF
:100F9000FFF7BCFD401B6428E7D903201CE3052BA9
:100FA00009D0274B1A6822F480321A601A6822F49A
:100FB00080221A60D4E7224B1A6842F480221A6019
:100FC0001A6842F480321A60CAE7FFF79FFD0546AF
:100FD0004FF4003393FAA3F3194B19684FF400331D
:100FE00093FAA3F3B3FA83F303F01F03012202FA87
:100FF00003F30B423FF471AFFFF788FD401B6428F9
:10100000E6D90320E8E20E4B9B6813F4803F7FF49F
:1010100077AF022393FAA3F3094B1968022393FADB
:10102000A3F3B3FA83F303F01F03012202FA03F3DD
:101030000B4207D0E368934204D00120CCE200BF0A
:1010400000380240C148436823F4F85321694FF443
:10105000F85292FAA2F2B2FA82F201FA02F21343C1
:101060004360236813F0100F5CD0B84B9B6813F0FB
:101070000C0F40F0D8804FF4007393FAA3F3B34BF6
:1010800019684FF4007393FAA3F3B3FA83F303F0F0
:101090001F03012202FA03F30B4203D0A369002BC2
:1010A00000F09582206AA94B5B6803F46043984284
:1010B00040F29D80FFF788FE002840F08A82A34915
:1010C0004B6823F46043226A13434B604B6823F060
:1010D0007F43E0694FF07F4292FAA2F2B2FA82F2C5
:1010E00000FA02F213434B60236A4FF4604292FA13
:1010F000A2F2B2FA82F2D3405A1C4FF4004393405A
:10110000924A926802F0F002F02191FAA1F1B1FA4C
:1011100081F1CA408E498A5CD3408E4A1360002018
:10112000FFF7CAFC236813F0080F00F0178163690A
:10113000002B00F0E680012191FAA1F2B2FA82F2CE
:10114000854B13449B001960FFF7E0FC0546022322
:1011500093FAA3F27D4A516B93FAA3F3B3FA83F3A4
:1011600003F01F03012202FA03F30B4240F0F68062
:10117000FFF7CCFC401B0228E9D903202CE273487E
:10118000436823F4F85321694FF4F85292FAA2F21B
:10119000B2FA82F201FA02F21343436061E70123DB
:1011A00093FAA3F3B3FA83F303F1845303F58E1395
:1011B0009B0000221A60FFF7A9FC0546022393FA60
:1011C000A3F3624B1968022393FAA3F3B3FA83F3F0
:1011D00003F01F03012202FA03F30B423FF441AF75
:1011E000FFF794FC401B0228E8D90320F4E157499B
:1011F0004B6823F46043184348604B6823F07F43F7
:10120000E0694FF07F4292FAA2F2B2FA82F200FA5B
:1012100002F213434B60206AFFF7D6FD00283FF42B
:1012200063AF0120D8E1A369002B3FD04FF4807356
:1012300093FAA3F3B3FA83F303F1845303F58E1304
:101240009B0001221A60FFF761FC05464FF4007312
:1012500093FAA3F33D4B19684FF4007393FAA3F389
:10126000B3FA83F303F01F03012202FA03F30B42E4
:1012700006D1FFF74BFC401B0228E7D90320ABE166
:1012800032494B6823F46043226A13434B604B6836
:1012900023F07F43E0694FF07F4292FAA2F2B2FA64
:1012A00082F200FA02F213434B603BE74FF4807383
:1012B00093FAA3F3B3FA83F303F1845303F58E1384
:1012C0009B0000221A60FFF721FC05464FF40073D3
:1012D00093FAA3F31D4B19684FF4007393FAA3F329
:1012E000B3FA83F303F01F03012202FA03F30B4264
:1012F0003FF418AFFFF70AFC401B0228E6D9032091
:101300006AE1012292FAA2F2B2FA82F2124B13447B
:101310009B0000221A60FFF7F9FB0546022393FAAF
:10132000A3F20A4A516B93FAA3F3B3FA83F303F0DF
:101330001F03012202FA03F30B420FD0FFF7E6FB73
:10134000401B0228EAD9032046E100BF00380240D2
:101350005452000800000020A0C19110236813F02F
:10136000040F00F092809E4B5B6A13F0805F1ED1E9
:101370009B4B5A6A42F080525A625B6A03F0805378
:101380000193019B0125974B1B6813F4807F10D0BC
:10139000A368012B21D0002B43D1914B5A6B22F42F
:1013A00080725A635A6B22F480625A631AE00025F5
:1013B000E9E78C4A136843F480731360FFF7A6FBD8
:1013C0000646884B1B6813F4807FE1D1FFF79EFB34
:1013D000801B6428F5D90320FEE0814A536B43F457
:1013E00080735363A36893B3FFF790FB06464FF4F3
:1013F000007393FAA3F27A4A516B93FAA3F3B3FA08
:1014000083F303F01F03012202FA03F30B423BD1E3
:10141000FFF77CFB801B41F288339842E7D9032019
:10142000DAE0052B09D06E4B5A6B22F480725A63B6
:101430005A6B22F480625A63D4E7694B5A6B42F4C8
:1014400080625A635A6B42F480725A63CAE7FFF7AC
:101450005DFB06464FF4007393FAA3F2604A516BAA
:1014600093FAA3F3B3FA83F303F01F03012202FA02
:1014700003F30B4208D0FFF749FB801B41F288338E
:101480009842E7D90320A7E0B5BB636A002B00F0C0
:10149000A280534A926802F00C020C2A00F09E804F
:1014A000022B2FD04FF0807393FAA3F3B3FA83F398
:1014B00003F1845303F58E139B0000221A60FFF79B
:1014C00025FB04464FF0007393FAA3F3444B1968CD
:1014D0004FF0007393FAA3F3B3FA83F303F01F03FF
:1014E000012202FA03F30B426DD0FFF70FFB001B42
:1014F0000228E7D903206FE0394A536A23F080536A
:101500005362C2E74FF0807393FAA3F3B3FA83F305
:1015100003F1845303F58E139B0000221A60FFF73A
:10152000F5FA05464FF0007393FAA3F32C4B1968B4
:101530004FF0007393FAA3F3B3FA83F303F01F039E
:10154000012202FA03F30B4206D0FFF7DFFA401B39
:101550000228E7D903203FE021498B6823F47D036B
:10156000A26AE06A0243206B024313438B604FF090
:10157000807393FAA3F3B3FA83F303F1845303F56F
:101580008E139B0001221A60FFF7C0FA04464FF049
:10159000007393FAA3F3124B19684FF0007393FA98
:1015A000A3F3B3FA83F303F01F03012202FA03F358
:1015B0000B4206D1FFF7AAFA001B0228E7D9032045
:1015C0000AE0002008E0002006E0012004E00120FD
:1015D00002E0012000E0002002B070BD0120FBE726
:1015E0000038024000700040224B986800F00C0266
:1015F000082A3CD00C2A13D0042A0FD01D4B58685F
:1016000000F460404FF4604393FAA3F3B3FA83F31A
:10161000D840431C4FF4004098407047164870472C
:1016200000F470114FF4701292FAA2F2B2FA82F240
:1016300021FA02F211498A5C00F440004FF44003A1
:1016400093FAA3F3B3FA83F3D8400130094B9B68B4
:1016500013F4803F05D00A4B03FB02F3B3FBF0F019
:101660007047054B03FB02F3B3FBF0F070470448EF
:10167000704700BF003802400024F40048520008C0
:1016800000366E018D4B1B6803F001038B4214D2B0
:1016900001290CD0894A136823F001030B4313601E
:1016A000136803F001038B4207D001207047834A7F
:1016B000136843F004031360ECE770B5036813F09C
:1016C000020F06D07E4A936823F0F0038468234318
:1016D00093600C460546036813F0010F00F0A380E9
:1016E0004368022B18D0032B48D0012B5BD04FF45A
:1016F000007292FAA2F2724A10684FF4007292FAE3
:10170000A2F2B2FA82F202F01F02012101FA02F201
:10171000024215D10120CDE04FF4003292FAA2F23C
:10172000674A10684FF4003292FAA2F2B2FA82F2DB
:1017300002F01F02012101FA02F2024200F0BB8016
:101740005F498A6822F0030213438B60FFF7DEF9DA
:1017500006466B68022B39D0032B46D0012B53D0A1
:10176000574B9B6813F00C0F5DD0FFF7CFF9801B30
:1017700041F288339842F3D903209BE04FF0007286
:1017800092FAA2F24E4A10684FF0007292FAA2F258
:10179000B2FA82F202F01F02012101FA02F20242C1
:1017A000CED1012086E0022292FAA2F2444A1068C9
:1017B000022292FAA2F2B2FA82F202F01F02012190
:1017C00001FA02F20242BBD1012073E03C4B9B685C
:1017D00003F00C03082B26D0FFF798F9801B41F289
:1017E00088339842F2D9032064E0354B9B6803F0BC
:1017F0000C030C2B17D0FFF789F9801B41F28833BB
:101800009842F2D9032055E02D4B9B6803F00C035E
:10181000042B08D0FFF77AF9801B41F288339842F5
:10182000F2D9032046E0254B1B6803F00103A342D5
:1018300014D9012C0CD0214A136823F0010323434F
:101840001360136803F00103A34207D0012031E0C5
:101850001A4A136843F004031360ECE72B6813F093
:10186000040F06D0164A936823F4E063E9680B433B
:1018700093602B6813F0080F07D0114A936823F484
:101880006053296943EAC1039360FFF7ADFE0C4B37
:101890009B6803F0F003F02292FAA2F2B2FA82F20D
:1018A000D340084AD35CD840074B18600020FFF7AC
:1018B00003F9002070BD0120FCE700BF003C02409E
:1018C000003802405452000800000020014B186804
:1018D000704700BF0000002008B5FFF7F7FF074B77
:1018E0009B6803F4E0634FF4E06292FAA2F2B2FA6A
:1018F00082F2D340024AD35CD84008BD003802408F
:101900006452000808B5FFF7E1FF074B9B6803F43A
:1019100060534FF4605292FAA2F2B2FA82F2D340CC
:10192000024AD35CD84008BD003802406452000827
:1019300090F83930DBB2122B01D0322B2AD18368D8
:10194000B3F5805F16D0036A5A1C02621A780368E6
:101950005A60C38C013B9BB2C384EBB90268D36865
:1019600023F08003D3600268D36843F04003D36060
:1019700000207047036A1B880268C3F308035360A2
:1019800003691BB9036A02330362E2E7036A0133A6
:101990000362DEE702207047002070472DE9F8431C
:1019A00004460268136923F44053C1680B43136172
:1019B00083680269134342691343C2691A43016889
:1019C000CB6823F4164323F00C031343CB60026867
:1019D000536923F4407381690B435361C369B3F5C1
:1019E000004F5CD00268B34B9A4200F00C81FFF7C5
:1019F00073FF00EB800000EB80006568AD00B0FB7A
:101A0000F5F5AD4FA7FB05356D092E01FFF764FF16
:101A100000EB800000EB80006568AD00B0FBF5F9DD
:101A2000FFF75AFF00EB800000EB80006568AD0017
:101A3000B0FBF5F5A7FB05356D094FF0640808FB11
:101A400015952D013235A7FB05356D0905F0F0051B
:101A50003544FFF741FF00EB800000EB8000666833
:101A6000B600B0FBF6F6FFF737FF00EB800000EBA7
:101A7000800063689B00B0FBF3F0A7FB00304009D7
:101A800008FB10684FEA081808F13208A7FB08376E
:101A9000C7F3431723682F449F60BDE8F8830268AB
:101AA000844B9A4257D0FFF717FF00EB800000EB02
:101AB000800065686D00B0FBF5F57F4FA7FB05352D
:101AC0006D092E01FFF708FF00EB800000EB80009E
:101AD00065686D00B0FBF5F9FFF7FEFE00EB8000D6
:101AE00000EB800065686D00B0FBF5F5A7FB0535E0
:101AF0006D094FF0640808FB1595ED003235A7FB22
:101B000005356D096D0005F4F8753544FFF7E4FE01
:101B100000EB800000EB800066687600B0FBF6F614
:101B2000FFF7DAFE00EB800000EB800063685B00EB
:101B3000B0FBF3F3A7FB03235B0908FB13684FEA31
:101B4000C80808F13208A7FB0837C7F34217236813
:101B50002F449F60A1E7FFF7D5FE00EB800000EB6C
:101B6000800065686D00B0FBF5F5534FA7FB0535A8
:101B70006D092E01FFF7C6FE00EB800000EB800030
:101B800065686D00B0FBF5F9FFF7BCFE00EB800067
:101B900000EB800065686D00B0FBF5F5A7FB05352F
:101BA0006D094FF0640808FB1595ED003235A7FB71
:101BB00005356D096D0005F4F8753544FFF7A2FE93
:101BC00000EB800000EB800066687600B0FBF6F664
:101BD000FFF798FE00EB800000EB800063685B007D
:101BE000B0FBF3F3A7FB03235B0908FB13684FEA81
:101BF000C80808F13208A7FB0837C7F34217236863
:101C00002F449F6049E7FFF77DFE00EB800000EB6B
:101C100080006568AD00B0FBF5F5274FA7FB0535E3
:101C20006D092E01FFF76EFE00EB800000EB8000D7
:101C30006568AD00B0FBF5F9FFF764FE00EB8000CE
:101C400000EB80006568AD00B0FBF5F5A7FB05353E
:101C50006D094FF0640808FB15952D013235A7FB7F
:101C600005356D0905F0F0053544FFF74BFE00EB37
:101C7000800000EB80006668B600B0FBF6F6FFF768
:101C800041FE00EB800000EB800063689B00B0FB2E
:101C9000F3F3A7FB03235B0908FB13684FEA08185B
:101CA00008F13208A7FB0837C7F3431723682F440E
:101CB0009F60F2E6003801401F85EB5148B310B534
:101CC000044690F83930FBB1022384F83930226899
:101CD000D36823F40053D3602046FFF75FFE2268E9
:101CE000136923F4904313612268536923F02A0394
:101CF00053612268D36843F40053D3600020E0634B
:101D0000012384F8393010BD80F8383000F098FA9B
:101D1000DAE70120704790F83930DBB2012B01D0AF
:101D2000122B2FD100292FD0002A2FD090F8383035
:101D3000012B2DD0012380F8383081628285C28545
:101D40000023C36390F83930DBB2122B16D0222364
:101D500080F83930002380F838300168CA6842F4CE
:101D60008072CA6001684A6942F001024A610168F2
:101D7000CA6842F02002CA6018467047322380F8D1
:101D80003930E7E702207047012070470120704793
:101D900002207047704708B50268D36823F04003FB
:101DA000D36090F83930DBB2322B06D0012380F8B3
:101DB0003930FFF7EFFF002008BD222380F83930CB
:101DC000F7E708B590F83930DBB2222B01D0322B7F
:101DD0004ED18368B3F5805F29D00369002B3AD1D7
:101DE00003685A68836A591C81621A70C38D013B6B
:101DF0009BB2C385002B3DD10268D36823F020033A
:101E0000D36090F83930DBB2322B2DD00268D36822
:101E100023F48073D3600268536923F00103536194
:101E2000012380F8393000F09FF8002008BD826A55
:101E3000036943B903685B68C3F308031380836ACB
:101E400002338362D2E703685B68DBB21380836A84
:101E500001338362CAE703685B68826A511C81624E
:101E600003F07F031370C1E7122380F83930DAE7FB
:101E70000220DBE70020D9E7704710B582B00446A6
:101E800003681968DA6811F0010F06D002F4807255
:101E90001AB1C26B42F00102C26319685A6902F0BA
:101EA000010211F0020F04D01AB1E16B41F00401FC
:101EB000E163196811F0040F04D01AB1E16B41F02D
:101EC0000201E163196811F0080F04D01AB1E26B46
:101ED00042F00802E2631A68DB6803F0200312F0A4
:101EE000200F00D0ABB923681A68DB6803F08003C9
:101EF00012F0800F00D083B923681A68DB6803F002
:101F0000400312F0400F00D05BB9E36B6BB902B035
:101F100010BD2046FFF755FFE5E72046FFF708FD17
:101F2000EAE72046FFF737FFEFE723681A680192D8
:101F30005B680193019B012384F839302046FFF749
:101F40009BFFE4E7012800D0704708B54FF48051AB
:101F50000348FEF727FF034B01221A7008BD00BF9C
:101F600000000240D402002002680D4B9A4200D0CB
:101F7000704710B504460B4800F091FA18B10A48B2
:101F800001F0A8F810BD23685968C9B2054800F0EF
:101F90006BFA012205492046FFF7BDFEF2E700BFBC
:101FA00000480040C80200206C5200084402002093
:101FB000F0B589B000240394049405940694079422
:101FC000294BDA6942F00402DA61DA6902F00402AC
:101FD0000092009ADA6942F00102DA61DA6902F0ED
:101FE00001020192019ADA6942F00202DA61DB69C8
:101FF00003F002030293029B1C4F22460421384641
:10200000FEF7CAFE1A4D01224FF480512846FEF712
:10201000C3FE012210213846FEF7BEFE01260396BC
:10202000144B0493059403A92846FEF7EBFD1423F3
:10203000039304960594069403A93846FEF7E2FD3F
:102040004FF48053039304960594069403A92846FD
:10205000FEF7D8FD224621460620FEF77DFD06202C
:10206000FEF7AEFD09B0F0BD0038024000040240AA
:10207000000002400000111008B50848084B03603A
:102080004FF4E133436000238360C36003610C229B
:1020900042618361C361FFF711FE08BD8802002021
:1020A0000038014008B50848084B03604FF4165348
:1020B000436000238360C36003610C22426183613B
:1020C000C361FFF7FBFD08BD480200200048004047
:1020D00010B592B03422002105A800F047FA002480
:1020E000009401940294039404940F4A136823F417
:1020F000C05343F4006313601023059301230B9333
:102100000C944FF420430D930E9405A8FEF7A6FE01
:102110000F2300930194029403940494214668468B
:10212000FFF7B0FA12B010BD0070004010B5FEF716
:10213000D9FCFFF7CDFFFFF73BFFFFF79DFFFFF750
:10214000B1FF214800F0C6FF204800F0C3FF20483F
:1021500000F0C0FF69461F4800F034FF4FF40070E4
:1021600000F0FCF950B91C4800F0B4FF1B4800F027
:1021700021FF42F21070FEF7CFFCFAE70446014659
:10218000174800F01FFF4FF400722146154800F079
:1021900065F9012214491548FFF7BDFD144800F008
:1021A00099FF012204211348FEF7F6FD124B00228D
:1021B0001A700C4800F06CF90028FAD1094800F0B8
:1021C0005DF900F017FFF4E77C5200089852000810
:1021D000D45200080C530008285300085853000834
:1021E00070530008C802002044020020480200206A
:1021F0009453000800040240D402002084B00F4B26
:102200005A6A42F000425A625A6A02F0004201924F
:10221000019A1A6A42F001021A621A6A02F0010275
:102220000292029A5A6A42F080525A625B6A03F042
:1022300080530393039B04B0704700BF00380240F3
:1022400000B58BB000230593069307930893099379
:1022500003682B4A934205D02A4A934225D00BB0FB
:102260005DF804FB284B1A6A42F480421A621A6A2B
:1022700002F480420192019ADA6942F00102DA61C5
:10228000DB6903F001030293029B4FF4C0630593E3
:10229000022306930123079303230893072309933B
:1022A00005A91A48FEF7AEFCD9E7174B5A6A42F463
:1022B00080225A625A6A02F480220392039ADA69EF
:1022C00042F00202DA61DB6903F002030493049B2B
:1022D0004FF44063059302230693012307930323DE
:1022E00008930723099305A90948FEF78BFC0022F0
:1022F00011462720FEF730FC2720FEF761FCAEE7F1
:102300000038014000480040003802400000024010
:10231000000402407047FEE7FEE7FEE7FEE7704775
:102320007047704708B5FEF7E9FB08BD08B5012006
:10233000FEF73CFD08BD000008B50248FFF79DFD13
:1023400008BD00BF4802002070B50D4616460024A7
:1023500004E000F06FF8287001340135B442F8DB76
:10236000304670BD70B51646002405E04D1C087857
:1023700000F054F801342946B442F7DB304670BD12
:1023800008B503460B4A126842B10A4A1068034472
:102390006A46934206D8074A136008BD054A0649B3
:1023A0001160F2E700F0B0F80C2303604FF0FF304B
:1023B000F3E700BFF0010020E00200204FF0FF3003
:1023C00070474FF400534B60002070470120704766
:1023D000002070470E4B1A6842F480721A609968A8
:1023E0000C4A0A409A601A6822F0885222F00112C0
:1023F0001A601A6822F480221A609A6822F47D0218
:102400009A600022DA60044B4FF000629A607047D5
:10241000003802400CC0FF8800ED00E0044B1B6850
:1024200013F0400FFAD0C0B2014B58600020704743
:1024300000380140044B1B6813F0200FFAD0024B08
:102440005868C0B2704700BF0038014001310389AD
:1024500091FBF3F003FB101080B270470023038060
:10246000438041600281704738B504460D4641887B
:10247000FFF7ECFF608063681D5438BD38B5044633
:1024800045680188FFF7E2FF0346285C238038BDDA
:1024900002884088824214BF00200120704710B596
:1024A00004464188FFF7D2FF2388984214BF0020DA
:1024B000012010BD0D488546002103E00C4B5B5800
:1024C000435004310B480C4B42189A42F6D30B4A46
:1024D00002E0002342F8043B094B9A42F9D3FFF78C
:1024E00079FF00F017F8FFF721FE70470080002009
:1024F000105D000800000020D4010020D40100205D
:10250000DC020020FEE70000014B1868704700BFA6
:102510000400002070B500250C4E0D4CA41BA41027
:10252000A54209D102F082FE00250A4E0A4CA41BE6
:10253000A410A54205D170BD56F825309847013545
:10254000EEE756F8253098470135F2E7085D0008B8
:10255000085D0008085D00080C5D0008024B01469C
:10256000186800F057B800BF04000020034602447A
:10257000934200D1704703F8011BF9E738B50546CF
:10258000002943D051F8043C0C1F002BB8BFE418BD
:1025900002F023F91E4A1368104633B963601460D1
:1025A0002846BDE8384002F019B9A3420BD921688A
:1025B0006218934201BF1A685B6852182260636018
:1025C0000460EDE713465A680AB1A242FAD91968C5
:1025D0005818A0420BD12068014458188242196053
:1025E000DED110685268014419605A60D8E702D9F8
:1025F0000C232B60D4E7206821188A4201BF1168A0
:1026000052680918216062605C60C9E738BD00BF8C
:10261000F801002070B5CD1C25F0030508350C2D00
:1026200038BF0C25002D064601DBA94203D90C2337
:102630003360002070BD02F0D0F8214A14682146B2
:1026400091B9204C23681BB9304600F04BFD206047
:102650002946304600F046FD431C24D10C23304669
:10266000336002F0BBF8E4E70B685B1B18D40B2B5C
:102670000FD90B60CC18CD50304602F0AFF804F102
:102680000B00231D20F00700C31AD3D05A42E2509A
:10269000D0E74B688C4216BF636013600C46EBE7D3
:1026A0000C464968CCE7C41C24F00304A04205D0C2
:1026B000211A304600F016FD0130CFD02560DBE74F
:1026C000F8010020FC010020002B2DE9F0471E46F8
:1026D000BBBF03F100431E4600232D2388B0149F87
:1026E000DDE9121A27F02007462F1446109D0B70C3
:1026F00004D0452F00D10135022300E0032307AAAF
:10270000049206AACDE902A2CDE90035224633465D
:1027100001F02EF8472F804602D1119BDB0726D50A
:10272000462F08EB050911D198F80030302B0AD15B
:102730000022002320463146FEF74EF918B9C5F1B4
:102740000105CAF80050DAF800309944002200234D
:1027500020463146FEF740F938B93022079B4B45F9
:1027600005D2591C07911A70F8E7CDF81C90404625
:10277000079B159AA3EB0803136008B0BDE8F08728
:10278000F7B50029B4BF2D232B230446B8BF494217
:10279000092904F8022B437021DD0DF107031F46C0
:1027A0000A2691FBF6F506FB1511092D01F1300102
:1027B00003F8011C03F1FF32294609DC3031023BEA
:1027C00002F8011CBB42224604D3101A03B0F0BD2C
:1027D0001346E6E713F8012B04F8012BF2E7302348
:1027E00019448370021DC170EFE700002DE9F04F1E
:1027F00091B00C461A9F93461E46054601F062FFB3
:10280000036818460993FDF7BBFC00230E933B6851
:102810000A90073323F0070303F1080294F81880A5
:10282000D4F800A03A60D3E90023C4E91223D4E924
:10283000127929F000430B934FF0FF32A64B384634
:102840000B99FEF7FBF868BB4FF0FF32A24B3846FE
:102850000B99FEF7D5F828BB0022002338464946DD
:10286000FEF7C4F810B12D2384F843309B4F9C4BE6
:10287000B8F1470F98BF1F4603234FF000092361AB
:102880002AF00403236000965B460FAA21462846DF
:1028900000F0E2F9013040F090804FF0FF3011B0CD
:1028A000BDE8F08F3A464B4638464946FEF7C6F833
:1028B00010B18C4F8C4BDBE763684AF48062591C83
:1028C0000DA80EA940D1062363604FF0000C0DF156
:1028D0003303CDE9012363682260CDE90308009347
:1028E0003A464B46CDE9051C2846FFF7EDFE08F0B9
:1028F000DF03472B074609D10D9BD81C02DB62681A
:10290000934247DDA8F102085FFA88F8B8F1650F35
:102910000D9924D80139424604F150000D91FFF77A
:102920002FFF0E9A81461318012A236102DC2268C8
:10293000D10701D5013323619DF83330002BA2D09C
:102940002D2384F843309EE7B8F1670F00F06E81C5
:10295000B8F1470FB9D1002BB7D10123B4E7B8F1D3
:10296000660F19D1002963680CDD216113B9226853
:10297000D20702D501330B4423610D9B4FF00009B0
:10298000A365D9E713B92268D00701D50233F3E76D
:102990000123F1E74FF06708DDE90D32934205DBD3
:1029A00022682361D107E8D50133E5E7002BCCBFCE
:1029B0000123C3F102031344DEE723685A0507D459
:1029C00023693A4659462846B047013029D164E781
:1029D000B8F1650F40F2D780D4E91201002200233C
:1029E000FDF7FAFF88B30123404A59462846B0470D
:1029F00001303FF452AFDDE90D239A4202DB236838
:102A0000D8070ED5DDE9092359462846B0470130DD
:102A10003FF443AF002704F11A080E9B013BBB4271
:102A200009DC23689F0700F1FD80E0680F9B984256
:102A3000B8BF184633E70123424659462846B047F7
:102A400001303FF42AAF0137E7E70D9B002B2BDC69
:102A50000123264A59462846B04701303FF41DAFAE
:102A60000D9B23B90E9B13B92368D907D9D5DDE98E
:102A7000092359462846B04701303FF40EAF4FF0C6
:102A8000000804F11A090D9B5B42434501DC0E9BD3
:102A900097E701234A4659462846B04701303FF49C
:102AA000FCAE08F10108EEE70E9AA36D9A42A8BFAA
:102AB0001A46002A904607DD134659463A462846EC
:102AC000B04701303FF4E9AE04F11A034FF0000AB9
:102AD00028EAE8780B9315E0FFFFEF7FB853000872
:102AE000B4530008C0530008BC530008C453000886
:102AF00001230B9A59462846B04701303FF4CDAE2A
:102B00000AF1010AD4F85890A9EB08035345EFDC09
:102B1000DDE90D239A424F4414DB2368DA0711D410
:102B20000E9B0D99A3EB0902A3EB01099145A8BFE8
:102B30009146B9F1000F0DDC002729EAE97904F18B
:102B40001A0818E0DDE9092359462846B047013044
:102B5000E6D1A2E64B463A4659462846B0470130F0
:102B6000EAD19AE60123424659462846B047013049
:102B70003FF493AE0137DDE90D239B1AA3EB090364
:102B8000BB42EFDC4DE70E9A012A01DCDB0738D5AA
:102B900001233A4659462846B04701303FF47DAEFE
:102BA000DDE9092359462846B047013007F10107FE
:102BB0003FF473AED4E912010E9B002203F1FF38FB
:102BC0000023FDF709FFC0B943463A465946284657
:102BD000B04701300DD160E60123424659462846F0
:102BE000B04701303FF459AE01370E9B013BBB4269
:102BF000F2DC4B4604F15002E4E6002704F11A0827
:102C0000F3E70123E1E70123424659462846B0474E
:102C100001303FF442AE0137E3680F9A9B1ABB4282
:102C2000F1DC02E7002704F11908F5E7002B3FF477
:102C300094AE4FF0000CCDE9051C0DF1330122607C
:102C4000CDE90308CDE9012100933A464B462846D9
:102C5000FFF73AFD07464FE62DE9F04791461F463C
:102C60008A680B6906469342B8BF1346C9F800301C
:102C700091F843200C46DDF8208012B10133C9F8E9
:102C800000302368990642BFD9F800300233C9F8F2
:102C90000030256815F0060507D104F1190AE3682C
:102CA000D9F800209B1AAB4229DC94F84330226803
:102CB000003318BF012392062ED404F14302394693
:102CC0003046C047013021D02368E56803F0060391
:102CD000042B18BF0025D9F800204FF0000908BFC9
:102CE000AD1AA368226908BF25EAE5759342C4BFFF
:102CF0009B1AED181A344D451AD1002008E0012323
:102D0000524639463046C047013003D14FF0FF30BC
:102D1000BDE8F0870135C2E73020E11881F84300B3
:102D20005A1C94F845102244023382F84310C4E739
:102D30000123224639463046C0470130E6D009F12A
:102D40000109D8E72DE9F04301F1430C0C46097E57
:102D500085B06E291746064698460C9A00F0B38057
:102D600022D8632936D00AD8002900F0B980582922
:102D700000F0838004F1420584F8421032E06429B7
:102D800001D06929F6D120681368050603F1040112
:102D90002AD51B681160002B03DA2D225B4284F8D0
:102DA00043206F480A2239E0732900F09D8008D83B
:102DB0006F2920D07029DDD1236843F020032360E0
:102DC00003E0752917D07829D4D17823654884F891
:102DD000453055E0136804F14205191D1B68116068
:102DE00084F8423001238CE01B6810F0400F116022
:102DF00018BF1BB2CFE713682568181D106028069E
:102E000001D51B6802E06806FBD51B886F2914BF3B
:102E10000A2208225248002184F843106568002DD8
:102E2000A560C0F29580216821F004012160002B8B
:102E30003DD1002D40F08E806546082A0BD12368D5
:102E4000DB0708D5236962689A42DEBF302305F8A4
:102E5000013C05F1FF35ACEB05032361CDF80080A3
:102E60003B4603AA21463046FFF7F6FE01304DD11E
:102E70004FF0FF3005B0BDE8F083394884F84510C5
:102E8000136821681D1D1B6815600A060BD5CA074B
:102E900044BF41F0200121601BB9226822F02002CA
:102EA00022601022B7E74D0648BF9BB2EFE76546A8
:102EB000B3FBF2F102FB1133C35C05F8013D0B4695
:102EC0000029F5D1B9E713682568181D61691060FC
:102ED00028061B6801D5196002E06A06FBD5198037
:102EE000002365462361B9E71368191D11601D6849
:102EF00062680021284601F057FC08B1401B606061
:102F000063682361002384F84330A7E723692A46D6
:102F100039463046C0470130AAD023689B0713D4F6
:102F2000E068039B9842B8BF1846A3E701234A46CE
:102F300039463046C04701309AD00135E368039ADC
:102F40009B1AAB42F2DCEBE7002504F11909F5E727
:102F5000002BACD1037804F1420584F842306CE7D1
:102F6000C6530008D753000837B50D46044618B1BC
:102F700083690BB901F0A0FA4DB12B783BB1E16840
:102F8000284601F079FBE168094801F075FB01ABC7
:102F900001222168204600F0B5F810B1E16801F087
:102FA0006BFBE1680A2001F017FB03B030BD00BFE6
:102FB000E8530008024B01461868FFF7D5BF00BF71
:102FC000040000200FB40A4B13B51C6824B1A36998
:102FD00013B9204601F070FA05AB049AA1682046A7
:102FE000019301F00DFF02B0BDE8104004B070473E
:102FF0000400002038B5084B05461C6824B1A369BD
:1030000013B9204601F058FAA26829462046BDE8C7
:10301000384002F009B800BF0400002070B50E4629
:10302000054618B183690BB901F046FAAB69AC6883
:1030300013B9284601F040FA234B9C4217D16C6823
:10304000A3891B071DD52369DBB1013EA36816F8D0
:10305000011F013BA360E9B9002B2EDA22460A21A9
:10306000284600F037FA013011D00A2011E0174B42
:103070009C4201D1AC68E3E7154B9C4208BFEC6869
:10308000DEE72146284600F077FA0028DDD04FF031
:10309000FF3070BD002B04DAA2699A4206DC0A29CF
:1030A00004D023685A1C22601970CFE722462846B4
:1030B00000F010FA0130C9D1E9E70A2023685A1C50
:1030C00022601870E5E700BFB05A0008D05A000827
:1030D000905A0008024B01461868FFF79FBF00BFD7
:1030E0000400002038B50023054C0546084623603F
:1030F000FFF746F9431C02D1236803B12B6038BDAA
:10310000D802002010B50446084611468E2800F269
:103110002F81DFE810F038018F00910093009500B7
:10312000970099009B009D00A100A300A700A900A3
:10313000AB00AD002D01AF00B100B300B500B7008A
:10314000BD00BF00C500C700C900CB00CD00D10045
:10315000D500D700D900DB00DD00DF00E100E3008F
:103160002D012D012D012D012D012D012D012D01EF
:10317000E700EB002D012D012D012D012D012D0169
:103180002D012D012D012D012D012D012D01ED0010
:103190000701EF00F1002D012D012D01F3002D019C
:1031A0002D012D01F5002D012D01F9002D012D011D
:1031B000FB002D012D012D012D012D012D012D01D2
:1031C0002D012D012D01FD002D01FF000101030145
:1031D0002D012D0125012D012D012D012D012D0187
:1031E0002D012D012D011301050109010B010D0117
:1031F0000F012D01110115011901E900C1002B0179
:10320000B900CF00BB009F00A5002901F7002D01E8
:103210001701C3001D011B012D012D012D012D01E1
:103220002D01D3002D012D012D01E50027011F01E6
:1032300021012301554810BD5548FCE75548FAE7E0
:103240005548F8E75548F6E75548F4E75548F2E79A
:103250005548F0E75548EEE75548ECE75548EAE7AA
:103260005548E8E75548E6E75548E4E75548E2E7BA
:103270005548E0E75548DEE75548DCE75548DAE7CA
:103280005548D8E75548D6E75548D4E75548D2E7DA
:103290005548D0E75548CEE75548CCE75548CAE7EA
:1032A0005548C8E75548C6E75548C4E75548C2E7FA
:1032B0005548C0E75548BEE75548BCE75548BAE70A
:1032C0005548B8E75548B6E75548B4E75548B2E71A
:1032D0005548B0E75548AEE75548ACE75548AAE72A
:1032E0005548A8E75548A6E75548A4E75548A2E73A
:1032F0005548A0E755489EE755489CE755489AE74A
:10330000554898E7554896E7554894E7554892E759
:10331000554890E755488EE755488CE755488AE769
:10332000554888E7554886E7554884E7554882E779
:10333000554880E755487EE755487CE755487AE789
:10334000554878E7554876E7554874E7554872E799
:10335000554870E755486EE755486CE755486AE7A9
:10336000554868E7554866E7554864E7554862E7B9
:10337000002B14BF1A46224600F0AAF8524B002830
:1033800008BF184657E7514855E700BFF3530008F8
:10339000FD53000817540008275400083F54000844
:1033A0004954000863540008755400088754000805
:1033B000A0540008B0540008BC540008D9540008B8
:1033C000EB540008FC5400080E5500081A5500087C
:1033D000325500083E550008505500085F5500085A
:1033E0006F5500087C5500089B550008AA55000839
:1033F000BB550008DF550008FD5500081B560008A6
:103400003B560008525600086156000870560008E6
:10341000845600089C560008AA560008B7560008B3
:10342000CD560008DC560008E8560008175700087B
:103430002857000843570008565700086C570008E3
:10344000755700088C57000894570008A1570008CA
:10345000B6570008CA570008E2570008F15700089D
:103460000258000815580008215800083A5800086A
:103470004E58000869580008815800089B580008F9
:10348000A3580008D3580008F25800081159000842
:10349000285900083B590008545900086B59000886
:1034A00081590008A2590008BA590008D6590008E5
:1034B000E9590008FF590008135A0008355A000856
:1034C0005B5A00086C5A0008F15B0008EB530008D7
:1034D00000207047F8B50E461446054618B18369BA
:1034E0000BB900F0E9FF214B9C422AD16C68A3691B
:1034F000A360A3891A072ED5236963B323692068C3
:10350000F6B2C01A63693746834204DC2146284676
:1035100000F068FF28BBA3680130013BA36023686B
:103520005A1C22601E706369834204D0A389DB07A2
:1035300019D50A2E17D12146284600F053FF90B125
:103540000FE00B4B9C4201D1AC68D0E7094B9C4289
:1035500008BFEC68CBE72146284600F00DF80028AC
:10356000CCD04FF0FF373846F8BD00BFB05A000846
:10357000D05A0008905A0008324B70B51D680646B4
:103580000C4625B1AB6913B9284600F095FF2E4BC8
:103590009C420FD16C68B4F90C309AB215072CD448
:1035A000D00611D40922326043F04003A3814FF0CA
:1035B000FF303EE0254B9C4201D1AC68EBE7244B49
:1035C0009C4208BFEC68E6E7510712D5616B41B138
:1035D00004F14403994202D03046FEF7CFFF0023A6
:1035E0006363A38923F02403A38100236360236919
:1035F0002360A38943F00803A38123694BB9A389FE
:1036000003F42073B3F5007F03D02146304601F068
:103610008BF8A28912F001030CD00023A360636928
:103620005B42A361236953B9B4F90C3013F08000F5
:10363000BAD170BD920758BF6369A360F2E700205A
:10364000F7E700BF04000020B05A0008D05A000875
:10365000905A00082DE9F74F03690C698046A34290
:10366000C0F28480013C01F1140700F1140657F800
:10367000245056F824000135B0FBF5F54FEA840CD0
:1036800006EB0C0307EB0C0901939DB34FF0000A06
:103690003846B646D34650F8042B93B205FB03A335
:1036A000120C4FEA134A05FB02A29BB2ABEB0303D9
:1036B000DEF800B04FEA124A1FFA8BFB5B441FFA98
:1036C00082FBDEF800208145CBEB124202EB234265
:1036D0009BB243EA02434FEA224B4EF8043BDAD254
:1036E00056F80C3033B9019B043B9E421A4631D345
:1036F000C8F81040404601F087FA002826DB304623
:103700004FF0000C013557F8041BD0F800E08BB2E5
:10371000ACEB03031FFA8EF213440A0CC2EB1E42F9
:1037200002EB23429BB243EA0243B9454FEA224CE3
:1037300040F8043BE7D256F8242006EB84032AB96C
:10374000043B9E421A460BD3C8F81040284603B0EB
:10375000BDE8F08F1268043B002AC9D1013CC4E7E0
:103760001268043B002AEFD1013CEAE70020EEE7B3
:103770002DE9F04F16461F46456A95B00446DDF820
:103780008480CDE902673DB91020FEF7E7FE606254
:10379000C0E901550560C560636A196851B15A688E
:1037A000012393404A608B60204601F04CF80022D0
:1037B000636A1A603B1EAFBF0023012223F000435F
:1037C0000393ACBFC8F80030C8F80020AE4BDDF85A
:1037D0000C8033EA08031BD142F20F73209A136066
:1037E000029B23B9C8F31300002800F04585229BF3
:1037F00053B9A64B21E0A64B06930833229A1360D7
:10380000069815B0BDE8F08FA04B06930333F5E79B
:10381000DDE902670022002330463946FDF7DCF877
:10382000824660B10123209A1360229B002B00F096
:103830002085984B229A1360013B0693E0E712AB78
:10384000019313AB009332463B46204601F054FAF5
:10385000C8F30A558346002D7DD0B046C7F3130345
:1038600043F07F5949F44019A5F2FF35CDF840A047
:103870000022894B40464946FCF78EFC7CA3D3E9E5
:103880000023FCF741FE7CA3D3E90023FCF786FC70
:10389000064628460F46FCF7CDFD79A3D3E9002361
:1038A000FCF732FE02460B4630463946FCF776FC02
:1038B00006460F46FDF7D8F8002282460023304620
:1038C0003946FDF793F848B15046FCF7B3FD324650
:1038D0003B46FDF781F808B90AF1FF3ABAF1160F35
:1038E0005AD8DDE902236D4901EBCA01D1E9000193
:1038F000FDF79AF8002851D000230AF1FF3A0D9302
:10390000129B5D1B6B1E079343BF0023C5F101098A
:1039100007934FF00009BAF1000F41DB079BCDF888
:1039200030A053440793002308931E9B092B00F2F9
:103930008F80052BC4BF043B1E931E9BC8BF002570
:10394000A3F10203D8BF0125032B00F28D80DFE82D
:1039500003F07B7D2F6FDDE912531D4405F23240E9
:10396000202813DDC0F14000029B08FA00F805F2A0
:10397000124023FA00F048EA0000FCF74BFD012357
:103980008046A1F1F879013D109371E7029BC0F1E7
:10399000200003FA00F0F0E70123B0E70D90AFE755
:1039A000CAF1000308930023A9EB0A090C93BCE7B2
:1039B000012309931F9B002B74DD9846049300227A
:1039C000666A7260042202F11400984271686ED92E
:1039D000204600F004FF636A30601B68B8F10E0FE8
:1039E000069300F2ED80002D00F0EA80DDE902236D
:1039F000BAF1000FCDE90E2377DD284A0AF00F0354
:103A00004FEA2A1602EBC303F006D3E90023CDE9FF
:103A10000A2368D5DDE90E01214B0325D3E90823EC
:103A2000FCF79CFECDE9020106F00F061C4F4FE0AB
:103A3000012309931F9B534403F101080493434658
:103A4000012BB8BF0123BAE70023B2E70023F0E758
:103A50000125002309951E934FF0FF3300220493A4
:103A6000984612231F92AAE701230993F4E700BFA7
:103A700061436F63A787D23FB3C8608B288AC63F74
:103A8000FB799F501344D33F0000F07F8A5A00080F
:103A9000815A0008C55300080000F83F185B000871
:103AA000F05A00080123049398461A46DAE70131D8
:103AB0007160520087E7F10708D5DDE90A01D7E90F
:103AC0000023FCF721FDCDE90A0101357610083706
:103AD000002EF0D1DDE90A23DDE90201FCF73EFE0C
:103AE000CDE902011BE00225A0E700F0A480DDE99A
:103AF0000E01CAF10006A04B06F00F0203EBC20351
:103B0000D3E90023FCF700FD02250023CDE90201E3
:103B10009A4F3611002E40F08380002BE0D10D9B90
:103B2000002B00F08A80DDE90223CDE90A23DDE9DC
:103B30000A010022924BFCF759FF00287DD0B8F112
:103B4000000F7AD0049B002B36DDDDE90A0100224C
:103B50008C4BFCF7D9FCCDE90201049E0AF1FF373A
:103B600001352846FCF766FCDDE90223FCF7CCFCB6
:103B70000022854BFCF712FBA1F15075CDE90A013B
:103B80000B95002E5CD1DDE9020100227F4BFCF792
:103B900003FB0A9A2B46CDE90201FCF745FF0028FA
:103BA00040F08182DDE902010A9A05F10043FCF749
:103BB0001DFF002840F07582DDE90E23CDE90223C8
:103BC000139B002BC0F24B81BAF10E0F00F347811B
:103BD000694B03EBCA03D3E90023CDE904231F9B00
:103BE000002B80F2D780B8F1000F00F3D38040F0B3
:103BF0005782DDE904010022644BFCF785FCDDE916
:103C00000223FCF707FF46464746002840F02D8276
:103C1000069B069A5D1C31230AF1010A137028E203
:103C2000F20705D5D7E90023FCF76EFC0123013527
:103C3000761008376EE7022571E75746464690E74B
:103C40004D4B03EBC60353E90201099B002B48D0FF
:103C500002460B4600204E49FCF780FDDDE90A23B1
:103C6000FCF79AFACDE90A01069DDDE90201FCF7AD
:103C7000FBFE1190FCF7DEFB02460B46DDE902017C
:103C8000FCF78AFA119BCDE90201303305F8013BBC
:103C9000DDE90A23FCF7AAFE002863D1DDE902234F
:103CA00000203749FCF778FADDE90A23FCF79EFE8D
:103CB000002840F0B580069BEB1A9E427FF77CAF50
:103CC000DDE90A0100222F4BFCF71EFC0022CDE9A2
:103CD0000A01DDE902012B4BFCF716FCCDE90201DC
:103CE000C3E7DDE90A23FCF70FFC069BCDE90A01D7
:103CF0009D191E46DDE90201FCF7B6FE1190FCF7A6
:103D000099FB02460B46DDE90201FCF745FA119BDF
:103D1000CDE90201303306F8013BAE424FF000021C
:103D200024D1DDE90A011A4BFCF738FA02460B46AA
:103D3000DDE90201FCF778FE002871D1DDE90A23F4
:103D400000201349FCF728FA02460B46DDE9020180
:103D5000FCF74CFE00283FF42FAF15F8013C6A1E1B
:103D6000302B01D0BA464AE01546F6E7054BFCF782
:103D7000CBFBCDE90201BDE7185B0008F05A000853
:103D80000000F03F0000244000001C4000001440F0
:103D90000000E03F069DDDE90267DDE904233046CF
:103DA0003946FCF7DBFCFCF75FFE8146FCF742FB83
:103DB000DDE90423FCF7A8FB02460B4630463946F2
:103DC000FCF7EAF909F1300605F8016B069E024698
:103DD000AE1BB0450B4635D1FCF7E0F9DDE9042315
:103DE00006460F46FCF720FEC8B9DDE9042330463D
:103DF0003946FCF7F1FD10B119F0010F0FD159460A
:103E0000204600F020FD0023209A2B700AF10103C8
:103E10001360229B002B3FF4F3AC1D60F0E4574687
:103E200015F8012C6B1E392A06D1069A9A4207D141
:103E300030231370134601371A7801321A7091E754
:103E40001D46EDE70022994BFCF75EFB00220023A4
:103E500006460F46FCF7C0FD00289ED0CFE7099A22
:103E6000002A00F088801E9A012A6DDC109A002A30
:103E700066D003F233434D46089E079A01211A4447
:103E800020469944079200F07EFD0746002D0BDD89
:103E9000079B002B08DDAB42A8BF2B46079AA9EB76
:103EA0000309ED1AD31A0793089BEBB1099B002B6A
:103EB00065D08EB139463246204600F003FE5A46A0
:103EC00001460746204600F067FD59460A90204605
:103ED00000F0B9FC0A9B9B46089B9A1B04D05946EC
:103EE000204600F0EFFD83460121204600F04BFD07
:103EF0000C9B0646002B00F0C6811A460146204660
:103F000000F0E0FD1E9B0646012B3EDC029B002BD1
:103F100037D1039BC3F31303002B34D1039B23F04E
:103F200000431B0D1B052BB1079B09F10109013350
:103F30000793012308930C9B002B28D101202EE02E
:103F4000129BC3F1360396E7089B08F1FF36B34294
:103F5000B7BF089B9E1BF21A0C9BBFBF08969B180D
:103F60000C930026B8F1000FB9BFA9EB0805002398
:103F70004D46434681E7089E4D46099F86E7089ACD
:103F8000ADE70023D6E7029BD4E70023089333690B
:103F900006EB8303186900F0A8FCC0F12000079B22
:103FA000184410F01F0047D0C0F12003042B3BDD64
:103FB000079BC0F11C008144054403440793B9F1F9
:103FC000000F05DD59464A46204600F0C9FD8346EC
:103FD000079B002B05DD31461A46204600F0C0FD48
:103FE00006460D9B53B33146584600F00DFE00289F
:103FF00024DA002359460A22204600F03BFC099BA4
:104000000AF1FF3A8346002B00F044810023394631
:104010000A22204600F02EFC049B0746002B4DDCB4
:104020001E9B022B4ADD11E0C9D0079A1C331A44AB
:1040300099441D441346C1E70346F6E7B8F1000F63
:1040400036DC1E9B022B33DDCDF81080049B63B958
:1040500031460522204600F00DFC01460646584632
:1040600000F0D2FD00283FF7D3AD1F9B069D6FEAFD
:10407000030A4FF000093146204600F0E4FB002F10
:104080003FF4BDAEB9F1000F05D0B94503D04946A4
:10409000204600F0D8FB3946204600F0D4FBAEE6BF
:1040A00000263746E1E7BA463746B1E5000024402E
:1040B000099BCDF81080002B00F0F380002D05DD6A
:1040C00039462A46204600F04BFD0746089B002B48
:1040D0004CD07968204600F082FB05463A6907F12A
:1040E0000C01023292000C3000F06CFB01222946D8
:1040F000204600F035FDB9460746069B0793029B14
:1041000003F00103089331465846FFF7A3FA4946E6
:10411000054600F13008584600F076FD3A46029018
:104120003146204600F08AFDC368024603BB0146C3
:104130000990584600F068FD0346099A114620464A
:10414000099300F080FB099BA3B91E9A92B9089AC3
:1041500082B9B8F1390F29D0029B002B01DD05F19E
:104160003108079B5D1C83F8008084E73846C2E76E
:104170000123E3E7029A002A04DB23D11E9A0ABB3B
:10418000089AFAB9002BECDD59460122204600F0CE
:10419000E7FC3146834600F037FD002803DCE0D120
:1041A00018F0010FDDD0B8F1390FD8D1079B079A6D
:1041B0005D1C3923137015F8013C6A1E392B4DD054
:1041C000013352E0079A002B02F1010506DDB8F138
:1041D000390FEBD008F10108079BC4E7069B049A4E
:1041E000EB1A934205F8018C21D0594600230A228C
:1041F000204600F03FFBB94583464FF000034FF0E7
:104200000A024946204605D100F034FB81460746A4
:10421000079578E700F02EFB3946814600230A22F5
:10422000204600F027FB0746F2E74FF00009594609
:104230000122204600F094FC3146834600F0E4FC65
:104240000028B8DC02D118F0010FB4D115F8013CF8
:104250006A1E302B7FF40FAF1546F7E7069B93429B
:1042600005D13123069A0AF1010A137003E71546B6
:10427000A1E7174BFFF7E1BA229B002B7FF4BBAA03
:10428000144BFFF7DABA1E9B012B7FF73FAE0C9B56
:10429000089353E6049B002B03DC1E9B022B3FF785
:1042A000D5AE069D31465846FFF7D4F9069B00F17E
:1042B000300805F8018B049AEB1A9A42B5DD59468D
:1042C00000230A22204600F0D5FA8346EAE700BF21
:1042D000C4530008815A00088A892DE9F041054637
:1042E00010070C4658D44B68002B05DC0B6C002BD8
:1042F00002DC0020BDE8F081E66A002EF9D0002340
:1043000012F480522F68216A2B6032D0606DA3892D
:104310005A0705D56368C01A636B0BB1236CC01ACA
:1043200000230246E66A216A2846B047431CA38957
:1043300006D129681D2948D8294ACA40D60744D53C
:10434000002262602269D904226004D5421C01D196
:104350002B6803B96065616B2F600029C9D004F137
:104360004403994202D02846FEF708F90020606312
:10437000C0E701232846B047411CC8D12B68002B59
:10438000C5D01D2B01D0162B01D12F60B1E7A38919
:1043900043F04003A381ADE70F69002FA9D0930735
:1043A00018BF00230E6808BF4B69A6EB07080F6013
:1043B0008B60B8F1000F9CDD43463A46216A2846DF
:1043C000A66AB047002806DCA38943F04003A38116
:1043D0004FF0FF308EE70744A8EB0008E9E700BF85
:1043E0000100402038B50B6905460C46DBB118B119
:1043F00083690BB900F060F80C4B9C4209D16C68E2
:10440000B4F90C307BB121462846BDE83840FFF7AF
:1044100063BF074B9C4201D1AC68F1E7054B9C425E
:1044200008BFEC68ECE7002038BD00BFB05A0008B8
:10443000D05A0008905A0008002310B50446C0E97D
:104440000033836081814366C281C0E904338361A4
:10445000194608225C30FEF789F8054B2462636236
:10446000044BA362044BE362044B236310BD00BF03
:1044700095500008B7500008EF500008135100088D
:10448000014900F001B900BFE543000870B5682597
:104490004A1E55430E4605F17401FEF7BBF804466B
:1044A00040B10021C0E900160C30A06005F168029F
:1044B000FEF75CF8204670BD836910B5044633BB37
:1044C000C0E912330365124B124A1B68826298429C
:1044D00004BF0123836100F01FF86060204600F0F4
:1044E0001BF8A060204600F017F80022E0600421CD
:1044F0006068FFF7A1FF01220921A068FFF79CFF78
:1045000002221221E068FFF797FF0123A36110BD8B
:10451000B053000881440008F8B51B4B07461E68DD
:10452000B36913B93046FFF7C7FF4836D6E90134FF
:10453000013B03D5336833B13668F7E7B4F90C5063
:104540006DB16834F4E704213846FFF79FFF30600F
:104550000028F1D10C2304463B602046F8BD0B4BEC
:104560006566C4E90055A560C4E90335C4E905558D
:104570000822294604F15C00FDF7F8FFC4E90D5557
:10458000C4E91255E9E700BFB05300080100FFFF7E
:1045900070B50E461446054618B183690BB9FFF78E
:1045A0008BFF0A4B9C4207D16C6822463146284655
:1045B000BDE8704000F038BD054B9C4201D1AC68AD
:1045C000F3E7044B9C4208BFEC68EEE7B05A0008E2
:1045D000D05A0008905A0008024B0A460146186853
:1045E000FFF7D6BF0400002070B50E4614460546FE
:1045F00018B183690BB9FFF75FFF1C4B9C420BD1CD
:104600006C68A3891B0711D523697BB1013E16F89D
:10461000011FA1B9084611E0154B9C4201D1AC68BD
:10462000EFE7144B9C4208BFEC68EAE721462846B6
:10463000FEF7A2FF0028E9D04FF0FF3070BDA3685D
:10464000013B002BA36004DAA269934206DB0A292E
:1046500004D023685A1C22601970D8E722462846E5
:10466000FEF738FF0130D2D1E6E700BFB05A0008AC
:10467000D05A0008905A0008024B0A4601461868B2
:10468000FFF7B2BF040000202DE9F84380468946B9
:10469000002600F1480414B93046BDE8F883D4E997
:1046A0000175013F01D52468F5E7AB89012B07D9D6
:1046B000B5F90E30013303D029464046C8470643BA
:1046C0006835EEE7044B1B68186A044B002808BFE6
:1046D0001846F030704700BF04000020680000203A
:1046E00070B50E46B1F90E1096B0002914461D465D
:1046F00007DA00232B60B3891A0610D44FF48063C5
:104700000EE06A4600F02CFD0028F2DB019A02F46C
:104710007042A2F500535A425A412A60EEE7402304
:104720000020236016B070BD8B8973B59D070646C7
:104730000C4607D504F1470323602361012363611D
:1047400002B070BD01AB6A46FFF7CAFF009905468B
:104750003046FDF75FFF48B9B4F90C309A05EFD445
:1047600023F0030343F00203A381E3E70D4BB3629D
:10477000A389206043F08003A381009B20616361D3
:10478000019B5BB1B4F90E10304600F0FBFC28B180
:10479000A38923F0030343F00103A381A3891D43ED
:1047A000A581CDE78144000810B5C9B2024490420A
:1047B000034601D1002303E01C7801308C42F6D17E
:1047C000184610BD10B5431E0A44914200D110BDD9
:1047D00011F8014B03F8014FF7E77047704770B5C8
:1047E000456A04460E463DB91020FDF7B7FE6062EB
:1047F000C0E901550560C560656AEB6883B1636A0D
:10480000DB6853F82600B8B9012101FA06F56A1DE4
:104810009200204600F0BFFA60B1C0E901650EE0E9
:1048200021220421204600F0B6FA636AE860DB68C2
:10483000002BE4D1002070BD026843F8262000233D
:10484000C0E90333F7E770B5446A06460D463CB944
:104850001020FDF783FE7062C0E901440460C4606B
:104860003DB1736A6A68DB6853F82210296043F827
:10487000225070BD2DE9F0411F4606460C4600232C
:104880000D6901F1140CDCF80000013381B202FB68
:104890000171000C0F0C02FB007089B201EB0041AA
:1048A0009D424FEA10474CF8041BECDCD7B1A368DB
:1048B000AB4212DC616830460131FFF790FF804661
:1048C000226904F10C01023292000C30FFF77AFFEA
:1048D00021463046FFF7B7FF444604EB8503013518
:1048E0005F6125612046BDE8F081020C1204034699
:1048F000B2B90304102013F07F4F04BF1B0208302D
:1049000013F0704F04BF1B01043013F0404F04BF7D
:104910009B000230002B06DB5B0003D501307047A3
:104920000020E8E7202070470368014613F00702E3
:104930000BD0DA0723D4980749BF5B089B080120F6
:104940000B605CBF0B600220704798B2A8B91020C2
:104950001B0C13F0FF0F04BF1B0A08301A0704BF1B
:104960001B0904309A0704BF9B080230DA0702D4FF
:104970005B0806D001300B6070471046E9E7002065
:1049800070472020704710B50C460121FFF727FF24
:1049900001224461026110BD2DE9F74F14460A69F6
:1049A000236988469A42BEBF0B46A0461C46D8F8EB
:1049B0001070D4F81090D8F80830D8F8041007EB2D
:1049C0000906B342B8BF0131FFF709FF00F1140532
:1049D0002B46002205EB860E734516D304F1140214
:1049E00008F1140102EB890301EB87070093009B98
:1049F000019293420CD8002E03DD5EF8043D002B9B
:104A00005DD0066103B0BDE8F08F43F8042BE3E707
:104A1000B2F800B0BBF1000F23D08946AC464FF08E
:104A2000000859F8044BDCF800A0A3B21FFA8AFA78
:104A30000BFB03A34FEA144ADCF8004043444FEA5F
:104A400014480BFB0A84E24604EB13449BB243EA8E
:104A500004434F454FEA14484AF8043B2BD8CCF89E
:104A60000480019B0432B3F802A0BAF1000F20D0F9
:104A70008946A8464FF0000B2B68B9F800C0B8F87B
:104A800002409BB20AFB0C44C4465C4443EA044324
:104A90004CF8043B59F8043BB8F804B01B0C0AFB73
:104AA00003B34F4503EB14434FEA134B05D8C8F843
:104AB000043004359BE7D446B3E7E046DDE7013E2A
:104AC00099E700002DE9F843154612F00302064667
:104AD0000F4607D0214C013A002354F82220FFF75B
:104AE000C9FE0746AD1035D0746A3CB91020FDF7F9
:104AF00035FD7062C0E901440460C460D6F82480CA
:104B0000D8F808404CB940F271213046FFF73BFF1E
:104B100000230446C8F8080003604FF00008EB07C4
:104B20000AD5394622463046FFF736FF81463946D8
:104B30003046FFF788FE4F466D100BD0206838B91D
:104B4000224621463046FFF727FF2060C0F800804C
:104B50000446E4E73846BDE8F88300BFE05B0008A0
:104B60002DE9F0470C460746164623694FEA621ABC
:104B70000AEB03094968A36809F10105AB4232DB7E
:104B80003846FFF72CFE002380461A4600F1140138
:104B900053452BDB20692AEAEA7A04F1140316F064
:104BA0001F0201EB8A0103EB800C25D00020C2F12B
:104BB000200E8A461E68964030434AF8040B53F88C
:104BC000040B9C4520FA0EF014D8486008B109F196
:104BD0000205013D3846C8F810502146FFF733FE64
:104BE0004046BDE8F08701315B00C7E741F823206C
:104BF0000133CDE75146DCE7043953F8042B9C45DB
:104C000041F8042FF9D8E4E703690A6930B59B1A23
:104C10000CD19200143014318418114454F8045DFE
:104C200051F8042D954203D005D30123184630BD19
:104C3000A042F3D3FAE74FF0FF33F7E72DE9F0474F
:104C40000D460746114628461446FFF7DDFF061EAF
:104C500008D131463846FFF7C2FD0123C0E90436CA
:104C6000BDE8F087A4BF23462C4638466168A6BF3E
:104C70001D4600260126FFF7B2FD4FF0000EC6606C
:104C80002B69266904F1140205F1140902EB860769
:104C900009EB830800F1140152F804AB59F8045BE6
:104CA0001FFA8AF37344ACB21B1B2C0CC4EB1A44DE
:104CB00004EB23449BB24FEA244EC84543EA044424
:104CC000944641F8044BE7D8BC4504D351F8043D61
:104CD00083B10661C4E75CF8044BA2B272441314BA
:104CE00003EB144392B242EA03424FEA234E41F8E7
:104CF000042BE9E7013EE9E72DE9F3411C46DDE934
:104D0000086501219046FFF76AFDC4F31302C4F35E
:104D10000A54074634BB0192B8F1000227D002A81A
:104D200040F8082DFFF700FE0099F0B1019AC0F19C
:104D3000200302FA03F30B43C2407B610192019B03
:104D4000002B14BF02210121BB613961C4B1A4F25F
:104D5000334404443460C0F135002860384602B062
:104D6000BDE8F08142F48012D5E77961E7E701A858
:104D7000FFF7DAFD0121019B39617B612030E5E716
:104D8000A0F2324007EB810330601869FFF7ADFDF8
:104D9000C0EB4110E1E738B502FB01F42146FDF715
:104DA00039FC054618B122460021FDF7DFFB2846F5
:104DB00038BD936810B4013B002B936007DA946907
:104DC000A34201DB0A2902D110BCFEF783BB1368A2
:104DD000581C10601970084610BC7047F8B506469C
:104DE0000F461446D518AC4201D1002007E03A46E0
:104DF00014F8011B3046FFF7DCFF431CF3D1F8BD6C
:104E00002DE9F04F9DB00C4617460393064618B1A6
:104E100083690BB9FFF750FB7B4B9C4257D17468F9
:104E2000A38918075DD52369002B5AD00023099365
:104E300020238DF8293030234FF0010B8DF82A30D4
:104E4000B846454615F8013B0BB1252B54D1B8EBBC
:104E5000070A0BD053463A4621463046FFF7BEFFBD
:104E6000013000F0C280099B5344099398F8003048
:104E7000002B00F0BA8000234FF0FF32CDE905236C
:104E8000049307938DF853301A93A846052218F817
:104E9000011B5E48FFF788FC049B78BBD90644BF22
:104EA00020228DF853201A0744BF2B228DF853205F
:104EB0002A782A2A2AD0A84600200A25079A41469D
:104EC00011F8013B303B092B69D960B324E0504B0A
:104ED0009C4201D1B468A3E74E4B9C4208BFF468E2
:104EE0009EE721463046FEF747FB00289ED04FF054
:104EF000FF301DB0BDE8F08FA846A2E7434A454603
:104F0000801A0BFA00F018430490BEE7039A111DB3
:104F100012680391002A01DB079204E0524243F039
:104F200002030792049398F800302E2B0ED198F8C4
:104F300001302A2B38D1039B08F102081A1D1B6887
:104F40000392002BB8BF4FF0FF330593324D03227D
:104F500098F800102846FFF727FC40B14023401B7B
:104F600003FA00F0049B08F101080343049398F846
:104F700000100622294808F101078DF82810FFF7D4
:104F800013FC002837D0264B1BBB039B073323F0B1
:104F9000070308330393099B4B44099350E705FB30
:104FA0000232012088468AE700230A25194608F1C3
:104FB00001080593404610F8012B303A092A03D91D
:104FC000002BC3D00591C1E705FB012101238046D9
:104FD000F0E703AB00932246124B04A93046FDF7DD
:104FE00005FCB0F1FF3F8146D5D1A3895B063FF5B3
:104FF0007EAF09987DE703AB00932246094B04A9D5
:105000003046FDF79FFEECE7B05A0008EC5B000865
:10501000D05A0008905A0008F25B0008F65B0008BE
:10502000ED270008DD4D000870B50D461446064614
:1050300018B183690BB9FFF73FFA134B9C4212D1A9
:105040007468A368013B002BA36016DAA26993423F
:1050500002DBEBB20A2B10D1224629463046BDE8CE
:105060007040FEF737BA094B9C4201D1B468E8E7BB
:10507000074B9C4208BFF468E3E72368E8B25A1C78
:1050800022601D7070BD00BFB05A0008D05A0008E1
:10509000905A000810B50C46B1F90E1000F0A6F8B1
:1050A0000028ABBF636DA3891B1823F48053ACBFEA
:1050B0006365A38110BD2DE9F0411F468B8905462C
:1050C000DB050C46164605D502230022B1F90E1069
:1050D00000F068F8A389324623F48053A381B4F921
:1050E0000E103B462846BDE8F04100F017B810B559
:1050F0000C46B1F90E1000F055F8431CA38915BFFA
:10510000606523F4805343F48053A38118BFA381C7
:1051100010BDB1F90E1000F013B8000038B5054607
:10512000084611460022054C22601A46FDF71AF97E
:10513000431C02D1236803B12B6038BDD802002084
:1051400038B50023054C054608462360FDF736F9BF
:10515000431C02D1236803B12B6038BDD802002064
:1051600038B50023064C0546084611462360FDF776
:1051700028F9431C02D1236803B12B6038BD00BF5E
:10518000D802002038B50023054C054608462360A8
:10519000FDF71CF9431C02D1236803B12B6038BD15
:1051A000D802002038B50546084611460022054CB5
:1051B00022601A46FDF70CF9431C02D1236803B1A3
:1051C0002B6038BDD802002082B001B901A942B1DC
:1051D0004BB113780B601278101C18BF012002B07D
:1051E00070471046FBE76FF00100F8E738B5054659
:1051F000084611460022054C22601A46FDF7A4F825
:10520000431C02D1236803B12B6038BDD8020020B3
:1052100049B1FF2A8BBF8A230A700360012088BF2F
:105220004FF0FF307047084670470000F8B500BFE8
:10523000F8BC08BC9E467047F8B500BFF8BC08BC77
:045240009E467047CF
:10524800030406080C1018203000000000000000BD
:10525800000000000102030406070809000000001E
:10526800010203044669666F2069732066756C6CD9
:105278000D00000052616B35323035204750532005
:1052880064656D6F2070726F6772616D0D0000004C
:10529800546865205175656374656C204C373620F9
:1052A800475053207265636569766572206973207B
:1052B800636F6E6E656374656420746F2052616BF2
:1052C800383131205541525420330D00546865203F
:1052D8004750532074696D696E672070756C7365EB
:1052E80020697320636F6E6E656374656420746FE4
:1052F8002052616B383131204750494F205041309E
:105308000D000000537461636B20706F696E7465E3
:10531800722069732061742025780D0A000000004E
:1053280043616E6E6F7420616C6C6F63617465208D
:10533800746865206E6D6561206D6573736167655E
:10534800206669666F206275666665720D000000EA
:105358004572726F72206166746572206D616C6C43
:105368006F633A20000000006669666F2062756608
:1053780066657220616C6C6F63617465642061742A
:10538800203078256C780D0A000000005377697486
:105398006368696E6720475053205374616E646276
:1053A80079206F66660D000008000020494E46000F
:1053B800696E66004E414E006E616E0030003031FD
:1053C8003233343536373839414243444546003064
:1053D8003132333435363738396162636465660093
:1053E8003A200053756363657373004E6F74206FC2
:1053F800776E6572004E6F20737563682066696CFE
:1054080065206F72206469726563746F7279004EEB
:105418006F20737563682070726F636573730049DA
:105428006E746572727570746564207379737465CF
:105438006D2063616C6C00492F4F206572726F722A
:10544800004E6F2073756368206465766963652014
:105458006F72206164647265737300417267206CB7
:1054680069737420746F6F206C6F6E670045786580
:105478006320666F726D6174206572726F7200537B
:105488006F636B657420616C726561647920636F0A
:105498006E6E6563746564004261642066696C655C
:1054A800206E756D626572004E6F206368696C646A
:1054B80072656E0044657374696E6174696F6E20FD
:1054C800616464726573732072657175697265646D
:1054D800004E6F206D6F72652070726F6365737315
:1054E8006573004E6F7420656E6F75676820737002
:1054F800616365005065726D697373696F6E2064CE
:10550800656E6965640042616420616464726573F4
:105518007300446576696365206F72207265736FE6
:105528007572636520627573790046696C652065DC
:1055380078697374730043726F73732D6465766949
:105548006365206C696E6B004E6F2073756368200D
:10555800646576696365004E6F74206120646972C2
:105568006563746F727900486F737420697320647F
:105578006F776E00436F6E6E656374696F6E20613E
:105588006C726561647920696E2070726F677265EC
:1055980073730049732061206469726563746F7264
:1055A8007900496E76616C696420617267756D6512
:1055B8006E74004E6574776F726B20696E746572D5
:1055C80066616365206973206E6F7420636F6E6611
:1055D80069677572656400436F6E6E656374696FA1
:1055E8006E2061626F72746564206279206E6574E2
:1055F800776F726B00546F6F206D616E79206F70DA
:10560800656E2066696C657320696E2073797374A2
:10561800656D0046696C65206465736372697074B2
:105628006F722076616C756520746F6F206C617283
:105638006765004E6F7420612063686172616374EE
:1056480065722064657669636500546578742066C0
:10565800696C6520627573790046696C6520746FA2
:105668006F206C6172676500486F737420697320DE
:10567800756E726561636861626C65004E6F207358
:1056880070616365206C656674206F6E2064657652
:10569800696365004E6F7420737570706F727465FE
:1056A8006400496C6C6567616C207365656B0052BA
:1056B8006561642D6F6E6C792066696C65207379FD
:1056C8007374656D00546F6F206D616E79206C691D
:1056D8006E6B730042726F6B656E20706970650047
:1056E8004D617468656D6174696373206172677573
:1056F8006D656E74206F7574206F6620646F6D61C0
:10570800696E206F662066756E6374696F6E0052ED
:105718006573756C7420746F6F206C6172676500B7
:105728004E6F206D657373616765206F66206465D1
:1057380073697265642074797065004964656E7474
:1057480069666965722072656D6F76656400496C7B
:105758006C6567616C206279746520736571756525
:105768006E636500446561646C6F636B004E6574BD
:10577800776F726B20697320756E726561636861FB
:10578800626C65004E6F206C6F636B004E6F742007
:10579800612073747265616D0053747265616D2068
:1057A800696F63746C2074696D656F7574004E6FF2
:1057B8002073747265616D207265736F75726365AD
:1057C80073005669727475616C20636972637569D8
:1057D8007420697320676F6E650050726F746F6311
:1057E8006F6C206572726F7200556E6B6E6F776E9C
:1057F8002070726F746F636F6C004D756C7469689C
:105808006F7020617474656D7074656400426164C2
:10581800206D6573736167650046756E6374696FA3
:105828006E206E6F7420696D706C656D656E746541
:1058380064004469726563746F7279206E6F7420B6
:10584800656D7074790046696C65206F72207061AF
:105858007468206E616D6520746F6F206C6F6E6761
:1058680000546F6F206D616E792073796D626F6C73
:105878006963206C696E6B73004E6F206275666693
:10588800657220737061636520617661696C61621D
:105898006C65004E6F2064617461004164647265D8
:1058A80073732066616D696C79206E6F74207375EF
:1058B80070706F727465642062792070726F746F93
:1058C800636F6C2066616D696C790050726F746FDC
:1058D800636F6C2077726F6E6720747970652066CD
:1058E8006F7220736F636B657400536F636B6574BD
:1058F800206F7065726174696F6E206F6E206E6FB5
:105908006E2D736F636B65740050726F746F636F85
:105918006C206E6F7420617661696C61626C6500E1
:10592800436F6E6E656374696F6E2072656675731A
:10593800656400436F6E6E656374696F6E2072658F
:1059480073657420627920706565720041646472C1
:1059580065737320616C726561647920696E207566
:1059680073650041646472657373206E6F7420619F
:105978007661696C61626C6500536F6674776172F9
:10598800652063617573656420636F6E6E6563740B
:10599800696F6E2061626F727400536F636B657418
:1059A800206973206E6F7420636F6E6E6563746513
:1059B8006400536F636B657420697320616C726552
:1059C80061647920636F6E6E6563746564004F70FF
:1059D80065726174696F6E2063616E63656C65647E
:1059E800005374617465206E6F74207265636F76FE
:1059F800657261626C650050726576696F757320B7
:105A08006F776E65722064696564004F70657261B6
:105A180074696F6E206E6F7420737570706F727416
:105A28006564206F6E20736F636B65740056616CDC
:105A3800756520746F6F206C6172676520666F7280
:105A480020646566696E6564206461746120747998
:105A58007065004D65737361676520746F6F206CA6
:105A68006F6E6700436F6E6E656374696F6E207446
:105A7800696D6564206F757400496E66696E697436
:105A880079004E614E000000000000000000000098
:105A980000000000000000000000000000000000FE
:105AA80000000000000000000000000000000000EE
:105AB80000000000000000000000000000000000DE
:105AC80000000000000000000000000000000000CE
