:020000040800F2
:10000000004000202D1C0008CD1B0008CF1B00085D
:10001000D11B0008D31B0008D51B000800000000FE
:10002000000000000000000000000000D71B0008D6
:10003000D91B000800000000DB1B0008DD1B0008C6
:10004000751C0008751C0008751C0008751C00084C
:10005000751C0008751C0008751C0008751C00083C
:10006000751C0008751C0008751C0008751C00082C
:10007000751C0008751C0008751C0008751C00081C
:10008000751C0008751C0008751C0008751C00080C
:10009000751C0008751C0008751C0008751C0008FC
:1000A00000000000751C0008751C0008751C000885
:1000B000751C0008751C0008751C0008751C0008DC
:1000C000751C0008751C0008751C0008751C0008CC
:1000D000751C0008751C0008751C0008751C0008BC
:1000E000751C0008751C0008751C0008751C0008AC
:1000F000751C000800000000000000000000000067
:1001000000000000000000000000000000000000EF
:1001100000000000000000000000000000000000DF
:1001200000000000000000000000000000000000CF
:0C01300000000000000000005FF808F173
:10013C0010B5054C237833B9044B13B10448AFF315
:10014C0000800123237010BD680000200000000017
:10015C000C25000808B5034B1BB103490348AFF34A
:10016C00008008BD000000006C0000200C25000879
:10017C00034613F8012B002AFBD1181A01387047DB
:10018C0010B50446074B1868074BA3FB00308009D9
:10019C0000F07AF8002221464FF0FF3000F040F8D2
:1001AC00002010BD00000020D34D621008B50320C4
:1001BC0000F024F80020FFF7E3FF01F06FFC0020B3
:1001CC0008BD0000024A136801331360704700BF7A
:1001DC0090000020014B1868704700BF9000002071
:1001EC0010B582B00190FFF7F5FF0446FFF7F2FF60
:1001FC00001B019B9842F9D302B010BD074AD3688B
:10020C0023F4E0631B041B0C000200F4E0601843B1
:10021C0040F0BF6040F40030D060704700ED00E06B
:10022C0030B4174BDB68C3F30223C3F10704042C6F
:10023C0028BF04241D1D062D18D9033B4FF0FF3594
:10024C0005FA04F421EA0401994005FA03F322EAC1
:10025C000303194300280BDB0901C9B200F160400C
:10026C0000F5614080F8001330BC70470023E5E7CF
:10027C0000F00F000901C9B2024B1954F4E700BF9A
:10028C0000ED00E014ED00E00138B0F1807F0AD2FF
:10029C00064B5860064AF02182F823100020986023
:1002AC0007221A6070470120704700BF10E000E081
:1002BC0000ED00E0F0B482B0002336E0042400E04E
:1002CC000024B4403C4302355B4E46F825405B4C61
:1002DC002568D44304EA05064F6817F4803F01D023
:1002EC0042EA0506554D2E606D6804EA05064F6816
:1002FC0017F4003F01D042EA0506504D6E60AD6820
:10030C0004EA05064F6817F4801F01D042EA05067F
:10031C004A4DAE60ED682C404E6816F4001F01D0BB
:10032C0042EA0504454AD46001330A6832FA03F400
:10033C007FD001249C402240F6D04D68022D01D084
:10034C00122D10D1DE08083650F826C003F0070530
:10035C00AF000F25BD402CEA050C0D69BD4045EAE8
:10036C000C0540F8265006685F000325BD40ED43A0
:10037C0005EA060C4E6806F00306BE4046EA0C067B
:10038C0006604E6806F1FF3CBCF1010F03D9112E3B
:10039C0001D0122E10D1866805EA060CCE68BE403C
:1003AC0046EA0C068660466826EA04044E68C6F3E4
:1003BC0000169E4026434660C46825408C68BC40AD
:1003CC002C43C4604C6814F0805FADD01C4C256A83
:1003DC0045F001052562246A04F001040194019C96
:1003EC009D08AE1C144C54F8267003F00304A600B0
:1003FC000F24B44027EA0407124CA0423FF460AF2C
:10040C0004F58064A0420ED004F58064A0420CD0A8
:10041C0004F58064A0420AD004F58064A0423FF445
:10042C004DAF05244DE701244BE7022449E7032493
:10043C0047E702B0F0BC70470000014000040140E7
:10044C00003802400000024012B909048161704773
:10045C0081617047F8B506460C4617461D461EE0EE
:10046C002DB1FFF7B7FE069BC01AA84217D900237F
:10047C003363202286F83D2086F83E3086F83C30E7
:10048C0003201AE033685B6924EA03039BB2B3FAD6
:10049C0083F35B099F420FD1B5F1FF3FE0D1C4F369
:1004AC000743012BEED033689B6924EA03039BB20C
:1004BC00B3FA83F35B09EDE70020F8BD002800F0E8
:1004CC00A28070B5044690F83D30002B61D000F04E
:1004DC00EDFE4F4B984240F29880242384F83D3037
:1004EC002268136823F0010313604A4BA3FB00231B
:1004FC009B0C21684A6822F03F021A434A60256827
:10050C002A6A22F03F02666843498E4246D801337C
:10051C0013432B622568EB6923F44F4323F0FF034D
:10052C0062683D498A4243D85200B0FBF2F0C0F3F6
:10053C000B02032A00D804201843E86121680B68D9
:10054C0023F0C003E269206A024313430B60216865
:10055C008B6823F4034323F0FF032269E068024312
:10056C0013438B602168CB6823F0FF036269A06999
:10057C0002431343CB602268136843F001031360FA
:10058C0000202064202384F83D30206384F83E0052
:10059C0070BD80F83C3001F0A3FA98E74FF49671E7
:1005AC0001FB03F31D49A1FB03139B090133AFE7C7
:1005BC00A6688EB902EB4201B0FBF1F1C1F30B015D
:1005CC00B1FA81F14909E1B996B902EB4202B0FBEB
:1005DC00F2F040F40040AFE702EB820101EB810145
:1005EC00B0FBF1F1C1F30B01B1FA81F14909EAE772
:1005FC0002EB820202EB8202B0FBF2F040F44040CC
:10060C009AE7012098E7012070470120C0E700BF5E
:10061C007F841E0083DE1B43A0860100D34D621035
:10062C002DE9F04385B00446884691461D46FFF7F8
:10063C00D1FD94F83D30DBB2202B04D002231846B8
:10064C0005B0BDE8F08306460090192301224FF057
:10065C0002112046FFF7FEFE002840F0958094F82A
:10066C003C30012B00F09280012384F83C3023684D
:10067C001A6812F0010F03D11A6842F001021A60D5
:10068C002268136823F400631360242384F83D303C
:10069C0000232364A3F58033E362012722E0FFF7F4
:1006AC0099FD801BA84233D945E0202384F83D30C6
:1006BC00536913F0020F42D1136843F400731360B3
:1006CC0023686FF480625A610096192301224FF05F
:1006DC0002112046FFF7BEFE00285DD17B1C4F4562
:1006EC004AD21F462268136843F480731360009645
:1006FC002B4600224FF001112046FFF7ABFE0028DD
:10070C0046D1236808F0FE021A61FFF763FD064626
:10071C002268536913F0020FC7D1536913F4806F29
:10072C00C3D194F83D30DBB2A02BBED0B5F1FF3F66
:10073C00EED0002DB3D1A02384F83D30E8E7136848
:10074C0043F4007313600023039323685A690392E4
:10075C009B690393039B0096192301224FF002110E
:10076C002046FFF777FE0346A0B9202284F83D20EF
:10077C00002284F83C2062E7202384F83D300023DB
:10078C0084F83C3001235AE7022358E7022356E74A
:10079C00032354E7032352E7032350E782B0214B92
:1007AC009B6813F0F00F2CD11E4B5B6A13F0805F2B
:1007BC0008D01D4B1B6803F4C053B3F5C05F14D0B5
:1007CC0000211FE0174A536A43F080535362536A67
:1007DC0003F080530193019B134B1B6803F4C0532C
:1007EC00516A21F080515162E7E7B0F5404F01D0DA
:1007FC00002107E00D4A136843F004031360012144
:10080C0000E00021094A136823F001030B43136035
:10081C00136803F001038B4202D0012002B0704731
:10082C000020FBE70038024000700040003C024012
:10083C0070B582B00446036813F0010F37D0754BC6
:10084C009B6803F00C03082B1AD0724B9B6803F0C7
:10085C000C030C2B0FD06368012B66D0002B40F0DF
:10086C0088806C4B1A6822F480321A601A6822F461
:10087C0080221A605EE0674B9B6813F4803FEAD0DD
:10088C004FF4003393FAA3F3624B19684FF400331F
:10089C0093FAA3F3B3FA83F303F01F03012202FAD2
:1008AC0003F30B4203D06368002B00F078832368BA
:1008BC0013F0020F00F0BF80564B9B6803F00C0343
:1008CC00042B00F09080534B9B6803F00C030C2B13
:1008DC0000F08380E368002B00F04B81012292FA38
:1008EC00A2F3B3FA83F303F1845303F58E139B0045
:1008FC001A60FFF76FFC0546022393FAA3F3454BEE
:10090C001968022393FAA3F3B3FA83F303F01F03DA
:10091C00012202FA03F30B4240F01B81FFF75AFC51
:10092C00401B0228E8D9032040E33A4A136843F4F9
:10093C0080331360636893B3FFF74CFC05464FF4A8
:10094C00003393FAA3F3334B19684FF4003393FA43
:10095C00A3F3B3FA83F303F01F03012202FA03F3A8
:10096C000B42A4D1FFF736FC401B6428E7D90320C7
:10097C001CE3052B09D0274B1A6822F480321A602D
:10098C001A6822F480221A60D4E7224B1A6842F4C7
:10099C0080221A601A6842F480321A60CAE7FFF7A4
:1009AC0019FC05464FF4003393FAA3F3194B19685D
:1009BC004FF4003393FAA3F3B3FA83F303F01F035A
:1009CC00012202FA03F30B423FF471AFFFF702FC72
:1009DC00401B6428E6D90320E8E20E4B9B6813F415
:1009EC00803F7FF477AF022393FAA3F3094B196886
:1009FC00022393FAA3F3B3FA83F303F01F03012248
:100A0C0002FA03F30B4207D0E368934204D00120AF
:100A1C00CCE200BF00380240C148436823F4F853CD
:100A2C0021694FF4F85292FAA2F2B2FA82F201FA68
:100A3C0002F213434360236813F0100F5CD0B84BE1
:100A4C009B6813F00C0F40F0D8804FF4007393FAAE
:100A5C00A3F3B34B19684FF4007393FAA3F3B3FAEF
:100A6C0083F303F01F03012202FA03F30B4203D0BA
:100A7C00A369002B00F09582206AA94B5B6803F4F4
:100A8C006043984240F29D80FFF788FE002840F0BA
:100A9C008A82A3494B6823F46043226A13434B6058
:100AAC004B6823F07F43E0694FF07F4292FAA2F249
:100ABC00B2FA82F200FA02F213434B60236A4FF44B
:100ACC00604292FAA2F2B2FA82F2D3405A1C4FF46C
:100ADC0000439340924A926802F0F002F02191FA9E
:100AEC00A1F1B1FA81F1CA408E498A5CD3408E4A99
:100AFC0013600020FFF744FB236813F0080F00F08D
:100B0C0017816369002B00F0E680012191FAA1F2B4
:100B1C00B2FA82F2854B13449B001960FFF75AFB23
:100B2C000546022393FAA3F27D4A516B93FAA3F381
:100B3C00B3FA83F303F01F03012202FA03F30B420F
:100B4C0040F0F680FFF746FB401B0228E9D9032052
:100B5C002CE27348436823F4F85321694FF4F8529C
:100B6C0092FAA2F2B2FA82F201FA02F21343436051
:100B7C0061E7012393FAA3F3B3FA83F303F18453EC
:100B8C0003F58E139B0000221A60FFF723FB05462A
:100B9C00022393FAA3F3624B1968022393FAA3F38B
:100BAC00B3FA83F303F01F03012202FA03F30B429F
:100BBC003FF441AFFFF70EFB401B0228E8D903209E
:100BCC00F4E157494B6823F46043184348604B6881
:100BDC0023F07F43E0694FF07F4292FAA2F2B2FA1F
:100BEC0082F200FA02F213434B60206AFFF7D6FD43
:100BFC0000283FF463AF0120D8E1A369002B3FD05C
:100C0C004FF4807393FAA3F3B3FA83F303F1845391
:100C1C0003F58E139B0001221A60FFF7DBFA0546E1
:100C2C004FF4007393FAA3F33D4B19684FF4007320
:100C3C0093FAA3F3B3FA83F303F01F03012202FA2E
:100C4C0003F30B4206D1FFF7C5FA401B0228E7D984
:100C5C000320ABE132494B6823F46043226A13430F
:100C6C004B604B6823F07F43E0694FF07F4292FA70
:100C7C00A2F2B2FA82F200FA02F213434B603BE7A3
:100C8C004FF4807393FAA3F3B3FA83F303F1845311
:100C9C0003F58E139B0000221A60FFF79BFA0546A2
:100CAC004FF4007393FAA3F31D4B19684FF40073C0
:100CBC0093FAA3F3B3FA83F303F01F03012202FAAE
:100CCC0003F30B423FF418AFFFF784FA401B0228E2
:100CDC00E6D903206AE1012292FAA2F2B2FA82F278
:100CEC00124B13449B0000221A60FFF773FA05465F
:100CFC00022393FAA3F20A4A516B93FAA3F3B3FAC1
:100D0C0083F303F01F03012202FA03F30B420FD00B
:100D1C00FFF760FA401B0228EAD9032046E100BF26
:100D2C00003802403025000800000020A0C19110BE
:100D3C00236813F0040F00F092809E4B5B6A13F053
:100D4C00805F1ED19B4B5A6A42F080525A625B6A9A
:100D5C0003F080530193019B0125974B1B6813F4FF
:100D6C00807F10D0A368012B21D0002B43D1914B55
:100D7C005A6B22F480725A635A6B22F480625A6363
:100D8C001AE00025E9E78C4A136843F4807313607A
:100D9C00FFF720FA0646884B1B6813F4807FE1D1DD
:100DAC00FFF718FA801B6428F5D90320FEE0814A6E
:100DBC00536B43F480735363A36893B3FFF70AFA3E
:100DCC0006464FF4007393FAA3F27A4A516B93FAE6
:100DDC00A3F3B3FA83F303F01F03012202FA03F324
:100DEC000B423BD1FFF7F6F9801B41F28833984256
:100DFC00E7D90320DAE0052B09D06E4B5A6B22F4AD
:100E0C0080725A635A6B22F480625A63D4E7694B3E
:100E1C005A6B42F480625A635A6B42F480725A6382
:100E2C00CAE7FFF7D7F906464FF4007393FAA3F21B
:100E3C00604A516B93FAA3F3B3FA83F303F01F03E5
:100E4C00012202FA03F30B4208D0FFF7C3F9801B0F
:100E5C0041F288339842E7D90320A7E0B5BB636A17
:100E6C00002B00F0A280534A926802F00C020C2A6C
:100E7C0000F09E80022B2FD04FF0807393FAA3F3D7
:100E8C00B3FA83F303F1845303F58E139B00002212
:100E9C001A60FFF79FF904464FF0007393FAA3F31F
:100EAC00444B19684FF0007393FAA3F3B3FA83F32E
:100EBC0003F01F03012202FA03F30B426DD0FFF77C
:100ECC0089F9001B0228E7D903206FE0394A536ADD
:100EDC0023F080535362C2E74FF0807393FAA3F36D
:100EEC00B3FA83F303F1845303F58E139B000022B2
:100EFC001A60FFF76FF905464FF0007393FAA3F3EE
:100F0C002C4B19684FF0007393FAA3F3B3FA83F3E5
:100F1C0003F01F03012202FA03F30B4206D0FFF782
:100F2C0059F9401B0228E7D903203FE021498B687F
:100F3C0023F47D03A26AE06A0243206B024313434D
:100F4C008B604FF0807393FAA3F3B3FA83F303F13E
:100F5C00845303F58E139B0001221A60FFF73AF9B4
:100F6C0004464FF0007393FAA3F3124B19684FF039
:100F7C00007393FAA3F3B3FA83F303F01F03012274
:100F8C0002FA03F30B4206D1FFF724F9001B0228E7
:100F9C00E7D903200AE0002008E0002006E0012049
:100FAC0004E0012002E0012000E0002002B070BD4E
:100FBC000120FBE70038024000700040224B98688B
:100FCC0000F00C02082A3CD00C2A13D0042A0FD0B3
:100FDC001D4B586800F460404FF4604393FAA3F340
:100FEC00B3FA83F3D840431C4FF400409840704749
:100FFC001648704700F470114FF4701292FAA2F276
:10100C00B2FA82F221FA02F211498A5C00F4400031
:10101C004FF4400393FAA3F3B3FA83F3D8400130AF
:10102C00094B9B6813F4803F05D00A4B03FB02F37A
:10103C00B3FBF0F07047054B03FB02F3B3FBF0F08E
:10104C0070470448704700BF003802400024F40089
:10105C002425000800366E018D4B1B6803F001033C
:10106C008B4214D201290CD0894A136823F0010356
:10107C000B431360136803F001038B4207D001206C
:10108C007047834A136843F004031360ECE770B5B0
:10109C00036813F0020F06D07E4A936823F0F00326
:1010AC008468234393600C460546036813F0010FD4
:1010BC0000F0A3804368022B18D0032B48D0012BDF
:1010CC005BD04FF4007292FAA2F2724A10684FF49D
:1010DC00007292FAA2F2B2FA82F202F01F0201211D
:1010EC0001FA02F2024215D10120CDE04FF4003298
:1010FC0092FAA2F2674A10684FF4003292FAA2F206
:10110C00B2FA82F202F01F02012101FA02F202424B
:10111C0000F0BB805F498A6822F0030213438B60A6
:10112C00FFF758F806466B68022B39D0032B46D0D4
:10113C00012B53D0574B9B6813F00C0F5DD0FFF76E
:10114C0049F8801B41F288339842F3D903209BE085
:10115C004FF0007292FAA2F24E4A10684FF00072F1
:10116C0092FAA2F2B2FA82F202F01F02012101FA03
:10117C0002F20242CED1012086E0022292FAA2F2C1
:10118C00444A1068022292FAA2F2B2FA82F202F0F7
:10119C001F02012101FA02F20242BBD1012073E0CD
:1011AC003C4B9B6803F00C03082B26D0FFF712F87E
:1011BC00801B41F288339842F2D9032064E0354B0E
:1011CC009B6803F00C030C2B17D0FFF703F8801B64
:1011DC0041F288339842F2D9032055E02D4B9B689D
:1011EC0003F00C03042B08D0FEF7F4FF801B41F234
:1011FC0088339842F2D9032046E0254B1B6803F054
:10120C000103A34214D9012C0CD0214A136823F0FA
:10121C00010323431360136803F00103A34207D0B7
:10122C00012031E01A4A136843F004031360ECE721
:10123C002B6813F0040F06D0164A936823F4E0636E
:10124C00E9680B4393602B6813F0080F07D0114A21
:10125C00936823F46053296943EAC1039360FFF751
:10126C00ADFE0C4B9B6803F0F003F02292FAA2F255
:10127C00B2FA82F2D340084AD35CD840074B1860CC
:10128C000020FEF77DFF002070BD0120FCE700BFB1
:10129C00003C0240003802403025000800000020CD
:1012AC00014B1868704700BF0000002008B5FFF71D
:1012BC00F7FF074B9B6803F4E0634FF4E06292FA8C
:1012CC00A2F2B2FA82F2D340024AD35CD84008BDF3
:1012DC00003802404025000808B5FFF7E1FF074B36
:1012EC009B6803F460534FF4605292FAA2F2B2FA84
:1012FC0082F2D340024AD35CD84008BD0038024089
:10130C00402500082DE9F84304460268136923F4CC
:10131C004053C1680B4313618368026913434269EC
:10132C001343C2691A430168CB6823F4164323F0B4
:10133C000C031343CB600268536923F44073816937
:10134C000B435361C369B3F5004F5CD00268B34BD8
:10135C009A4200F00C81FFF7A9FF00EB800000EB34
:10136C0080006568AD00B0FBF5F5AD4FA7FB05350A
:10137C006D092E01FFF79AFF00EB800000EB800057
:10138C006568AD00B0FBF5F9FFF790FF00EB80004E
:10139C0000EB80006568AD00B0FBF5F5A7FB0535EB
:1013AC006D094FF0640808FB15952D013235A7FB2C
:1013BC0005356D0905F0F0053544FFF777FF00EBB7
:1013CC00800000EB80006668B600B0FBF6F6FFF715
:1013DC006DFF00EB800000EB800063689B00B0FBAE
:1013EC00F3F0A7FB0030400908FB10684FEA08181F
:1013FC0008F13208A7FB0837C7F3431723682F44BB
:10140C009F60BDE8F8830268844B9A4257D0FFF77F
:10141C004DFF00EB800000EB800065686D00B0FBB9
:10142C00F5F57F4FA7FB05356D092E01FFF73EFF44
:10143C0000EB800000EB800065686D00B0FBF5F9F7
:10144C00FFF734FF00EB800000EB800065686D0057
:10145C00B0FBF5F5A7FB05356D094FF0640808FBEB
:10146C001595ED003235A7FB05356D096D0005F4BA
:10147C00F8753544FFF71AFF00EB800000EB800095
:10148C0066687600B0FBF6F6FFF710FF00EB800005
:10149C0000EB800063685B00B0FBF3F3A7FB032356
:1014AC005B0908FB13684FEAC80808F13208A7FB70
:1014BC000837C7F3421723682F449F60A1E7FFF753
:1014CC000BFF00EB800000EB800065686D00B0FB4B
:1014DC00F5F5534FA7FB05356D092E01FFF7FCFE03
:1014EC0000EB800000EB800065686D00B0FBF5F947
:1014FC00FFF7F2FE00EB800000EB800065686D00EA
:10150C00B0FBF5F5A7FB05356D094FF0640808FB3A
:10151C001595ED003235A7FB05356D096D0005F409
:10152C00F8753544FFF7D8FE00EB800000EB800027
:10153C0066687600B0FBF6F6FFF7CEFE00EB800097
:10154C0000EB800063685B00B0FBF3F3A7FB0323A5
:10155C005B0908FB13684FEAC80808F13208A7FBBF
:10156C000837C7F3421723682F449F6049E7FFF7FA
:10157C00B3FE00EB800000EB80006568AD00B0FBB3
:10158C00F5F5274FA7FB05356D092E01FFF7A4FED6
:10159C0000EB800000EB80006568AD00B0FBF5F956
:1015AC00FFF79AFE00EB800000EB80006568AD0051
:1015BC00B0FBF5F5A7FB05356D094FF0640808FB8A
:1015CC0015952D013235A7FB05356D0905F0F00594
:1015DC003544FFF781FE00EB800000EB800066686D
:1015EC00B600B0FBF6F6FFF777FE00EB800000EBE1
:1015FC00800063689B00B0FBF3F3A7FB03235B093C
:10160C0008FB13684FEA081808F13208A7FB0837E3
:10161C00C7F3431723682F449F60F2E6003801405C
:10162C001F85EB512DE9F04105460E4690461C46B0
:10163C00FEF7D0FD0746B8F1000F29D02B681B68C8
:10164C0036EA030351D1B4F1FF3FF7D024B1FEF7D2
:10165C00C1FDC01BA042F1D92A68D36823F08003D6
:10166C00D3602A68D36823F02003D3602A68D36838
:10167C0023F48073D3602A68536923F00103536108
:10168C00012385F83930002385F8383003202AE00F
:10169C002B681B6836EA030324D0B4F1FF3FF7D064
:1016AC0024B1FEF797FDC01BA042F1D92A68D3687C
:1016BC0023F08003D3602A68D36823F02003D3601F
:1016CC002A68D36823F48073D3602A68536923F0A3
:1016DC0001035361012385F83930002385F8383034
:1016EC00032000E00020BDE8F0810020FBE748B3B8
:1016FC0010B5044690F83930FBB1022384F8393028
:10170C002268D36823F40053D3602046FFF7FAFD18
:10171C002268136923F4904313612268536923F000
:10172C002A0353612268D36843F40053D36000202A
:10173C00E063012384F8393010BD80F8383000F0B4
:10174C0007FADAE70120704770B504460D461E46CD
:10175C0090F83930DBB2012B01D0222B59D1002D5E
:10176C005AD0002A5AD094F83830012B58D0012383
:10177C0084F838300023E36394F83930DBB2222B41
:10178C0005D0122384F83930A284E28413E032238A
:10179C0084F83930F8E73346002280212046FFF7E1
:1017AC0041FF00283ED12B882268C3F30803536005
:1017BC002369A3B90235E38C9BB1013BE384A36895
:1017CC00B3F5805FE7D03346002280212046FFF737
:1017DC0029FF48BB2A7823685A600135EBE70135AD
:1017EC00E9E73346002240212046FFF71BFF034662
:1017FC00E0B994F83920D2B2322A06D0012284F80A
:10180C003920002284F8382004E0222284F8392080
:10181C00F7E70223184670BD0123FBE70123F9E724
:10182C000223F7E70323F5E70323F3E70323F1E7A9
:10183C0030B589B00024039404940594069407945D
:10184C00174BDA6942F00402DA61DA6902F0040239
:10185C000092009ADA6942F00102DA61DA6902F068
:10186C0001020192019ADA6942F00202DA61DB6943
:10187C0003F002030293029B0A4D01221021284619
:10188C00FEF7E2FD10230393012304930594022336
:10189C00069303A92846FEF70DFD09B030BD00BF25
:1018AC000038024000040240FEE7000008B50A4878
:1018BC000A4B03604FF4E133436000238360C36041
:1018CC0003610C2242618361C361FFF710FF00B911
:1018DC0008BDFFF7E9FF00BFE80000200038014019
:1018EC0008B50A480A4B03600A4B43600023836027
:1018FC00C3604FF48042026143618361C361036240
:10190C00FEF7DCFD00B908BDFFF7CEFF9400002008
:10191C0000540040A086010000B593B03422002191
:10192C0005A800F0C7F900230093019302930393D9
:10193C00049316490A6822F4C05242F400620A6009
:10194C000222059201210891102109910E920F9308
:10195C004FF4802310934FF48003119305A8FEF7E6
:10196C0067FF78B90F23009303230193002302939D
:10197C000393049301216846FFF76EFB20B913B063
:10198C005DF804FBFFF790FFFFF78EFF007000403F
:10199C0070B582B0FEF70AFCFFF7BEFFFFF748FFF9
:1019AC00FFF784FFFFF79CFF64230F223149324875
:1019BC00FFF7CAFE56E06423022230492E48FFF797
:1019CC00C3FE0DE032462E49684600F07BF96846AE
:1019DC00FEF7CEFB642382B269462748FFF7B4FEBC
:1019EC0001340F2C1BDC6423012226492248FFF70B
:1019FC00ABFE14EB0516DED004EB051189B24900E1
:101A0C0089B2C8230A222048FEF70AFE0028D9D042
:101A1C006423022219491848FFF796FEE0E7642375
:101A2C0002221A491448FFF78FFE0135072D0FDCEF
:101A3C002A461749684600F045F96846FEF798FBB8
:101A4C00642382B269460C48FFF77EFE0024C8E787
:101A5C00642326220F490848FFF776FE42F21070E5
:101A6C00FEF7BEFB642335220B490348FFF76CFEDF
:101A7C000025DBE748250008E80000209C2500082D
:101A8C00A02500089825000894000020A82500082F
:101A9C0090250008AC2500085825000884B00F4B91
:101AAC005A6A42F000425A625A6A02F000420192AB
:101ABC00019A1A6A42F001021A621A6A02F00102D1
:101ACC000292029A5A6A42F080525A625B6A03F09E
:101ADC0080530393039B04B0704700BF003802404F
:101AEC0010B588B0002303930493059306930793D2
:101AFC000268144B9A4201D008B010BD124CE36935
:101B0C0043F00203E361E36903F002030193019BD9
:101B1C004FF440730393122304930123059303237F
:101B2C0006930423079303A90848FEF7C3FB636AD3
:101B3C0043F400136362636A03F400130293029B81
:101B4C00DAE700BF005400400038024000040240B5
:101B5C0000B589B000230393049305930693079370
:101B6C000268154B9A4202D009B05DF804FB03F5EC
:101B7C0080331A6A42F480421A621A6A02F4804272
:101B8C000192019ADA6942F00102DA61DB6903F031
:101B9C0001030293029B4FF4C0630393022304934B
:101BAC0001230593032306930723079303A90348F3
:101BBC00FEF780FBD8E700BF003801400000024070
:101BCC007047FEE7FEE7FEE7FEE770477047704799
:101BDC0008B5FEF7F7FA08BD0E4B1A6842F480728E
:101BEC001A6099680C4A0A409A601A6822F0885266
:101BFC0022F001121A601A6822F480221A609A6884
:101C0C0022F47D029A600022DA60044B4FF00062ED
:101C1C009A607047003802400CC0FF8800ED00E06D
:101C2C00002103E00B4B5B58435004310A480B4B2B
:101C3C0042189A42F6D30A4A02E0002342F8043BC7
:101C4C00084B9A42F9D3FFF7C7FF00F00FF8FFF7E4
:101C5C009FFE70471026000800000020680000203E
:101C6C00680000202C010020FEE7000070B5002564
:101C7C000C4E0D4CA41BA410A54209D100F040FC45
:101C8C0000250A4E0A4CA41BA410A54205D170BD18
:101C9C0056F8253098470135EEE756F82530984729
:101CAC000135F2E708260008082600080826000877
:101CBC000C26000803460244934200D1704703F8F7
:101CCC00011BF9E70EB46FF0004100B59CB01DABE1
:101CDC0002900690079104910848094953F8042B87
:101CEC000591006802A9019300F066F80022029B9E
:101CFC001A701CB05DF804EB03B0704704000020B0
:101D0C000802FFFF2DE9F0478E6882469E420C4682
:101D1C009046994637D88A8912F4906F31D00223B5
:101D2C00256809696F1A656905EB450595FBF3F59F
:101D3C0009F101033B449D4238BF1D46530530D584
:101D4C00294600F035FB064650B90C234FF0FF3006
:101D5C00CAF80030A38943F04003A381BDE8F087A3
:101D6C003A46216900F0B4FAA38923F4906343F056
:101D7C008003A38126613E4426604E466561ED1BBF
:101D8C00A5604E4500D94E4632464146206800F0CB
:101D9C00AAFAA36800209B1BA36023681E4426603C
:101DAC00DCE72A4600F05EFB06460028E2D12169FA
:101DBC00504600F0B1FAC8E72DE9F04F9DB00393FF
:101DCC008B8980461D060C4616460FD50B696BB9E0
:101DDC00402100F0EDFA2060206128B90C23C8F8EE
:101DEC0000304FF0FF30C7E04023636100230993BC
:101DFC0020238DF8293030234FF0010B8DF82A3039
:101E0C0037463D4615F8013B0BB1252B3ED1B7EBC0
:101E1C00060A0BD05346324621464046FFF772FF66
:101E2C00013000F0A480099B534409933B78002BAC
:101E3C0000F09D8000234FF0FF32CDE90523049381
:101E4C0007938DF853301A932F46052217F8011B70
:101E5C004F4800F02FFA049BD0B9D90644BF20227A
:101E6C008DF853201A0744BF2B228DF853202A7863
:101E7C002A2A15D02F4600200A25079A394611F830
:101E8C00013B303B092B4DD9B8B10FE02F46B8E7D9
:101E9C003F4A3D46801A0BFA00F018430490D3E7F2
:101EAC00039A111D12680391002A01DB079204E0CA
:101EBC00524243F00203079204933B782E2B0CD131
:101ECC007B782A2B33D1039B02371A1D1B68039294
:101EDC00002BB8BF4FF0FF3305932E4D03223978FA
:101EEC00284600F0E7F938B14023401B03FA00F014
:101EFC00049B0137034304933978062226487E1C41
:101F0C008DF8281000F0D6F9002838D0234B13BBDD
:101F1C00039B073323F0070308330393099B4B44BC
:101F2C0009936DE705FB023201200F46A6E700235B
:101F3C000A25194601370593384610F8012B303A1B
:101F4C00092A03D9002BC8D00591C6E705FB01214E
:101F5C0001230746F0E703AB00932246104B04A97C
:101F6C004046AFF30080B0F1FF3F8146D6D1A38944
:101F7C005B063FF536AF09981DB0BDE8F08F03AB9B
:101F8C0000932246064B04A9404600F081F8EAE78C
:101F9C00D4250008DA250008DE2500080000000022
:101FAC00111D00082DE9F04791461F468A680B6900
:101FBC0006469342B8BF1346C9F8003091F8432047
:101FCC000C46DDF8208012B10133C9F800302368CB
:101FDC00990642BFD9F800300233C9F800302568A1
:101FEC0015F0060507D104F1190AE368D9F80020A9
:101FFC009B1AAB4229DC94F843302268003318BF9B
:10200C00012392062ED404F1430239463046C047D0
:10201C00013021D02368E56803F00603042B18BFB8
:10202C000025D9F800204FF0000908BFAD1AA368AD
:10203C00226908BF25EAE5759342C4BF9B1AED18C7
:10204C001A344D451AD1002008E001235246394676
:10205C003046C047013003D14FF0FF30BDE8F08768
:10206C000135C2E73020E11881F843005A1C94F87E
:10207C0045102244023382F84310C4E70123224660
:10208C0039463046C0470130E6D009F10109D8E79E
:10209C002DE9F04301F1430C0C46097E85B06E2905
:1020AC001746064698460C9A00F0B38022D863294E
:1020BC0036D00AD8002900F0B980582900F0838066
:1020CC0004F1420584F8421032E0642901D06929F8
:1020DC00F6D120681368050603F104012AD51B68A4
:1020EC001160002B03DA2D225B4284F843206F48E9
:1020FC000A2239E0732900F09D8008D86F2920D07E
:10210C007029DDD1236843F02003236003E0752997
:10211C0017D07829D4D17823654884F8453055E018
:10212C00136804F14205191D1B68116084F84230D4
:10213C0001238CE01B6810F0400F116018BF1BB21C
:10214C00CFE713682568181D1060280601D51B6899
:10215C0002E06806FBD51B886F2914BF0A220822EF
:10216C005248002184F843106568002DA560C0F228
:10217C009580216821F004012160002B3DD1002DB8
:10218C0040F08E806546082A0BD12368DB0708D502
:10219C00236962689A42DEBF302305F8013C05F1E1
:1021AC00FF35ACEB05032361CDF800803B4603AA59
:1021BC0021463046FFF7F6FE01304DD14FF0FF308F
:1021CC0005B0BDE8F083394884F8451013682168E0
:1021DC001D1D1B6815600A060BD5CA0744BF41F0CC
:1021EC00200121601BB9226822F0200222601022FB
:1021FC00B7E74D0648BF9BB2EFE76546B3FBF2F17C
:10220C0002FB1133C35C05F8013D0B460029F5D1E7
:10221C00B9E713682568181D6169106028061B68EA
:10222C0001D5196002E06A06FBD5198000236546CA
:10223C002361B9E71368191D11601D6862680021DC
:10224C00284600F037F808B1401B606063682361D2
:10225C00002384F84330A7E723692A4639463046E1
:10226C00C0470130AAD023689B0713D4E068039BB6
:10227C009842B8BF1846A3E701234A463946304670
:10228C00C04701309AD00135E368039A9B1AAB42E0
:10229C00F2DCEBE7002504F11909F5E7002BACD1D2
:1022AC00037804F1420584F842306CE7E525000818
:1022BC00F625000810B5C9B202449042034601D17C
:1022CC00002303E01C7801308C42F6D1184610BD77
:1022DC0010B5431E0A44914200D110BD11F8014BB8
:1022EC0003F8014FF7E7884210B501EB020307D85A
:1022FC00421E99420AD011F8014B02F8014FF8E73F
:10230C008342F5D98118D21AD34200D110BD13F8EB
:10231C00014D01F8014DF7E738B50546002943D0CA
:10232C0051F8043C0C1F002BB8BFE41800F0D0F897
:10233C001E4A1368104633B9636014602846BDE822
:10234C00384000F0C6B8A3420BD9216862189342FA
:10235C0001BF1A685B685218226063600460EDE785
:10236C0013465A680AB1A242FAD919685818A04201
:10237C000BD120680144581882421960DED11068D4
:10238C005268014419605A60D8E702D90C232B60BB
:10239C00D4E7206821188A4201BF116852680918D5
:1023AC00216062605C60C9E738BD00BF840000201A
:1023BC0070B5CD1C25F0030508350C2D38BF0C2548
:1023CC00002D064601DBA94203D90C233360002003
:1023DC0070BD00F07DF8214A1468214691B9204C5B
:1023EC0023681BB9304600F063F82060294630465C
:1023FC0000F05EF8431C24D10C233046336000F00F
:10240C0068F8E4E70B685B1B18D40B2B0FD90B6037
:10241C00CC18CD50304600F05CF804F10B00231DB5
:10242C0020F00700C31AD3D05A42E250D0E74B68D1
:10243C008C4216BF636013600C46EBE70C46496890
:10244C00CCE7C41C24F00304A04205D0211A30466A
:10245C0000F02EF80130CFD02560DBE7840000209F
:10246C0088000020F8B5074614460E4621B9BDE891
:10247C00F8401146FFF79CBF22B9FFF74DFF2546E8
:10248C002846F8BD00F026F8A0420FD22146384667
:10249C00FFF78EFF05460028F2D031462246FFF7A3
:1024AC0017FF31463846FFF737FFE9E73546E7E7D0
:1024BC0038B50023054C05460846236000F012F899
:1024CC00431C02D1236803B12B6038BD28010020C6
:1024DC007047704751F8043C181F002BBCBF0B58B9
:1024EC00C0187047044A05491368002B08BF0B46F7
:1024FC0018441060184670478C00002030010020F2
:10250C00F8B500BFF8BC08BC9E467047F8B500BFD4
:08251C00F8BC08BC9E467047A4
:10252400030406080C10182030000000000000000E
:10253400000000000102030406070809000000006F
:102544000102030449324320427573205363616ED0
:102554000D0A0A00202020202030202031202032A3
:1025640020203320203420203520203620203720FE
:102574002038202039202061202062202063202060
:10258400642020652020660D0A0000002530327882
:102594003A000000200000002D2D00002530327884
:1025A400000000000D0A00000D0A0A5761697469F1
:1025B4006E6720666F72203130207320756E7469E7
:1025C4006C206E657874207363616E0D0A0A0000D6
:1025D400232D302B2000686C4C0065666745464708
:1025E400003031323334353637383941424344458B
:1025F40046003031323334353637383961626364FA
:042604006566000007
:042608006101000864
:04260C003D01000884
:1026100068FF1F000800002000000000000000000C
:1026200000000000000000000000000000000000AA
:10263000000000000000000000000000000000009A
:10264000000000000000000000000000000000008A
:10265000000000000000000000000000000000007A
:10266000000000000000000000000000000000006A
:08267000000000000000000062
:0400000508001C2DA6
:00000001FF
